{
	"Cyfrin Updraft Challenge/1.09.sol": {
		"DataLocations": {
			"abi": [
				{
					"inputs": [
						{
							"internalType": "string",
							"name": "_name",
							"type": "string"
						},
						{
							"internalType": "string",
							"name": "_surname",
							"type": "string"
						}
					],
					"name": "changeNameAndSurname",
					"outputs": [],
					"stateMutability": "nonpayable",
					"type": "function"
				}
			],
			"devdoc": {
				"kind": "dev",
				"methods": {},
				"version": 1
			},
			"evm": {
				"assembly": "    /* \"Cyfrin Updraft Challenge/1.09.sol\":61:310  contract DataLocations{... */\n  mstore(0x40, 0x80)\n  callvalue\n  dup1\n  iszero\n  tag_1\n  jumpi\n  0x00\n  dup1\n  revert\ntag_1:\n  pop\n  dataSize(sub_0)\n  dup1\n  dataOffset(sub_0)\n  0x00\n  codecopy\n  0x00\n  return\nstop\n\nsub_0: assembly {\n        /* \"Cyfrin Updraft Challenge/1.09.sol\":61:310  contract DataLocations{... */\n      mstore(0x40, 0x80)\n      callvalue\n      dup1\n      iszero\n      tag_1\n      jumpi\n      0x00\n      dup1\n      revert\n    tag_1:\n      pop\n      jumpi(tag_2, lt(calldatasize, 0x04))\n      shr(0xe0, calldataload(0x00))\n      dup1\n      0x9a0f3aca\n      eq\n      tag_3\n      jumpi\n    tag_2:\n      0x00\n      dup1\n      revert\n        /* \"Cyfrin Updraft Challenge/1.09.sol\":131:307  function changeNameAndSurname(string calldata _name, string memory _surname) public{... */\n    tag_3:\n      tag_4\n      0x04\n      dup1\n      calldatasize\n      sub\n      dup2\n      add\n      swap1\n      tag_5\n      swap2\n      swap1\n      tag_6\n      jump\t// in\n    tag_5:\n      tag_7\n      jump\t// in\n    tag_4:\n      stop\n    tag_7:\n        /* \"Cyfrin Updraft Challenge/1.09.sol\":232:237  _name */\n      dup3\n      dup3\n        /* \"Cyfrin Updraft Challenge/1.09.sol\":225:229  name */\n      0x00\n        /* \"Cyfrin Updraft Challenge/1.09.sol\":225:237  name = _name */\n      swap2\n      dup3\n      tag_9\n      swap3\n      swap2\n      swap1\n      tag_10\n      jump\t// in\n    tag_9:\n      pop\n        /* \"Cyfrin Updraft Challenge/1.09.sol\":249:268  _surname = 'Deacon' */\n      mload(0x40)\n      dup1\n      0x40\n      add\n      0x40\n      mstore\n      dup1\n      0x06\n      dup2\n      mstore\n      0x20\n      add\n      0x446561636f6e0000000000000000000000000000000000000000000000000000\n      dup2\n      mstore\n      pop\n      swap1\n      pop\n        /* \"Cyfrin Updraft Challenge/1.09.sol\":290:298  _surname */\n      dup1\n        /* \"Cyfrin Updraft Challenge/1.09.sol\":280:287  surname */\n      0x01\n        /* \"Cyfrin Updraft Challenge/1.09.sol\":280:298  surname = _surname */\n      swap1\n      dup2\n      tag_11\n      swap2\n      swap1\n      tag_12\n      jump\t// in\n    tag_11:\n      pop\n        /* \"Cyfrin Updraft Challenge/1.09.sol\":131:307  function changeNameAndSurname(string calldata _name, string memory _surname) public{... */\n      pop\n      pop\n      pop\n      jump\t// out\n        /* \"#utility.yul\":7:82   */\n    tag_13:\n        /* \"#utility.yul\":40:46   */\n      0x00\n        /* \"#utility.yul\":73:75   */\n      0x40\n        /* \"#utility.yul\":67:76   */\n      mload\n        /* \"#utility.yul\":57:76   */\n      swap1\n      pop\n        /* \"#utility.yul\":7:82   */\n      swap1\n      jump\t// out\n        /* \"#utility.yul\":88:205   */\n    tag_14:\n        /* \"#utility.yul\":197:198   */\n      0x00\n        /* \"#utility.yul\":194:195   */\n      dup1\n        /* \"#utility.yul\":187:199   */\n      revert\n        /* \"#utility.yul\":211:328   */\n    tag_15:\n        /* \"#utility.yul\":320:321   */\n      0x00\n        /* \"#utility.yul\":317:318   */\n      dup1\n        /* \"#utility.yul\":310:322   */\n      revert\n        /* \"#utility.yul\":334:451   */\n    tag_16:\n        /* \"#utility.yul\":443:444   */\n      0x00\n        /* \"#utility.yul\":440:441   */\n      dup1\n        /* \"#utility.yul\":433:445   */\n      revert\n        /* \"#utility.yul\":457:574   */\n    tag_17:\n        /* \"#utility.yul\":566:567   */\n      0x00\n        /* \"#utility.yul\":563:564   */\n      dup1\n        /* \"#utility.yul\":556:568   */\n      revert\n        /* \"#utility.yul\":580:697   */\n    tag_18:\n        /* \"#utility.yul\":689:690   */\n      0x00\n        /* \"#utility.yul\":686:687   */\n      dup1\n        /* \"#utility.yul\":679:691   */\n      revert\n        /* \"#utility.yul\":717:1270   */\n    tag_19:\n        /* \"#utility.yul\":775:783   */\n      0x00\n        /* \"#utility.yul\":785:791   */\n      dup1\n        /* \"#utility.yul\":835:838   */\n      dup4\n        /* \"#utility.yul\":828:832   */\n      0x1f\n        /* \"#utility.yul\":820:826   */\n      dup5\n        /* \"#utility.yul\":816:833   */\n      add\n        /* \"#utility.yul\":812:839   */\n      slt\n        /* \"#utility.yul\":802:924   */\n      tag_57\n      jumpi\n        /* \"#utility.yul\":843:922   */\n      tag_58\n      tag_16\n      jump\t// in\n    tag_58:\n        /* \"#utility.yul\":802:924   */\n    tag_57:\n        /* \"#utility.yul\":956:962   */\n      dup3\n        /* \"#utility.yul\":943:963   */\n      calldataload\n        /* \"#utility.yul\":933:963   */\n      swap1\n      pop\n        /* \"#utility.yul\":986:1004   */\n      0xffffffffffffffff\n        /* \"#utility.yul\":978:984   */\n      dup2\n        /* \"#utility.yul\":975:1005   */\n      gt\n        /* \"#utility.yul\":972:1089   */\n      iszero\n      tag_59\n      jumpi\n        /* \"#utility.yul\":1008:1087   */\n      tag_60\n      tag_17\n      jump\t// in\n    tag_60:\n        /* \"#utility.yul\":972:1089   */\n    tag_59:\n        /* \"#utility.yul\":1122:1126   */\n      0x20\n        /* \"#utility.yul\":1114:1120   */\n      dup4\n        /* \"#utility.yul\":1110:1127   */\n      add\n        /* \"#utility.yul\":1098:1127   */\n      swap2\n      pop\n        /* \"#utility.yul\":1176:1179   */\n      dup4\n        /* \"#utility.yul\":1168:1172   */\n      0x01\n        /* \"#utility.yul\":1160:1166   */\n      dup3\n        /* \"#utility.yul\":1156:1173   */\n      mul\n        /* \"#utility.yul\":1146:1154   */\n      dup4\n        /* \"#utility.yul\":1142:1174   */\n      add\n        /* \"#utility.yul\":1139:1180   */\n      gt\n        /* \"#utility.yul\":1136:1264   */\n      iszero\n      tag_61\n      jumpi\n        /* \"#utility.yul\":1183:1262   */\n      tag_62\n      tag_18\n      jump\t// in\n    tag_62:\n        /* \"#utility.yul\":1136:1264   */\n    tag_61:\n        /* \"#utility.yul\":717:1270   */\n      swap3\n      pop\n      swap3\n      swap1\n      pop\n      jump\t// out\n        /* \"#utility.yul\":1276:1393   */\n    tag_20:\n        /* \"#utility.yul\":1385:1386   */\n      0x00\n        /* \"#utility.yul\":1382:1383   */\n      dup1\n        /* \"#utility.yul\":1375:1387   */\n      revert\n        /* \"#utility.yul\":1399:1501   */\n    tag_21:\n        /* \"#utility.yul\":1440:1446   */\n      0x00\n        /* \"#utility.yul\":1491:1493   */\n      0x1f\n        /* \"#utility.yul\":1487:1494   */\n      not\n        /* \"#utility.yul\":1482:1484   */\n      0x1f\n        /* \"#utility.yul\":1475:1480   */\n      dup4\n        /* \"#utility.yul\":1471:1485   */\n      add\n        /* \"#utility.yul\":1467:1495   */\n      and\n        /* \"#utility.yul\":1457:1495   */\n      swap1\n      pop\n        /* \"#utility.yul\":1399:1501   */\n      swap2\n      swap1\n      pop\n      jump\t// out\n        /* \"#utility.yul\":1507:1687   */\n    tag_22:\n        /* \"#utility.yul\":1555:1632   */\n      0x4e487b7100000000000000000000000000000000000000000000000000000000\n        /* \"#utility.yul\":1552:1553   */\n      0x00\n        /* \"#utility.yul\":1545:1633   */\n      mstore\n        /* \"#utility.yul\":1652:1656   */\n      0x41\n        /* \"#utility.yul\":1649:1650   */\n      0x04\n        /* \"#utility.yul\":1642:1657   */\n      mstore\n        /* \"#utility.yul\":1676:1680   */\n      0x24\n        /* \"#utility.yul\":1673:1674   */\n      0x00\n        /* \"#utility.yul\":1666:1681   */\n      revert\n        /* \"#utility.yul\":1693:1974   */\n    tag_23:\n        /* \"#utility.yul\":1776:1803   */\n      tag_67\n        /* \"#utility.yul\":1798:1802   */\n      dup3\n        /* \"#utility.yul\":1776:1803   */\n      tag_21\n      jump\t// in\n    tag_67:\n        /* \"#utility.yul\":1768:1774   */\n      dup2\n        /* \"#utility.yul\":1764:1804   */\n      add\n        /* \"#utility.yul\":1906:1912   */\n      dup2\n        /* \"#utility.yul\":1894:1904   */\n      dup2\n        /* \"#utility.yul\":1891:1913   */\n      lt\n        /* \"#utility.yul\":1870:1888   */\n      0xffffffffffffffff\n        /* \"#utility.yul\":1858:1868   */\n      dup3\n        /* \"#utility.yul\":1855:1889   */\n      gt\n        /* \"#utility.yul\":1852:1914   */\n      or\n        /* \"#utility.yul\":1849:1937   */\n      iszero\n      tag_68\n      jumpi\n        /* \"#utility.yul\":1917:1935   */\n      tag_69\n      tag_22\n      jump\t// in\n    tag_69:\n        /* \"#utility.yul\":1849:1937   */\n    tag_68:\n        /* \"#utility.yul\":1957:1967   */\n      dup1\n        /* \"#utility.yul\":1953:1955   */\n      0x40\n        /* \"#utility.yul\":1946:1968   */\n      mstore\n        /* \"#utility.yul\":1736:1974   */\n      pop\n        /* \"#utility.yul\":1693:1974   */\n      pop\n      pop\n      jump\t// out\n        /* \"#utility.yul\":1980:2109   */\n    tag_24:\n        /* \"#utility.yul\":2014:2020   */\n      0x00\n        /* \"#utility.yul\":2041:2061   */\n      tag_71\n      tag_13\n      jump\t// in\n    tag_71:\n        /* \"#utility.yul\":2031:2061   */\n      swap1\n      pop\n        /* \"#utility.yul\":2070:2103   */\n      tag_72\n        /* \"#utility.yul\":2098:2102   */\n      dup3\n        /* \"#utility.yul\":2090:2096   */\n      dup3\n        /* \"#utility.yul\":2070:2103   */\n      tag_23\n      jump\t// in\n    tag_72:\n        /* \"#utility.yul\":1980:2109   */\n      swap2\n      swap1\n      pop\n      jump\t// out\n        /* \"#utility.yul\":2115:2423   */\n    tag_25:\n        /* \"#utility.yul\":2177:2181   */\n      0x00\n        /* \"#utility.yul\":2267:2285   */\n      0xffffffffffffffff\n        /* \"#utility.yul\":2259:2265   */\n      dup3\n        /* \"#utility.yul\":2256:2286   */\n      gt\n        /* \"#utility.yul\":2253:2309   */\n      iszero\n      tag_74\n      jumpi\n        /* \"#utility.yul\":2289:2307   */\n      tag_75\n      tag_22\n      jump\t// in\n    tag_75:\n        /* \"#utility.yul\":2253:2309   */\n    tag_74:\n        /* \"#utility.yul\":2327:2356   */\n      tag_76\n        /* \"#utility.yul\":2349:2355   */\n      dup3\n        /* \"#utility.yul\":2327:2356   */\n      tag_21\n      jump\t// in\n    tag_76:\n        /* \"#utility.yul\":2319:2356   */\n      swap1\n      pop\n        /* \"#utility.yul\":2411:2415   */\n      0x20\n        /* \"#utility.yul\":2405:2409   */\n      dup2\n        /* \"#utility.yul\":2401:2416   */\n      add\n        /* \"#utility.yul\":2393:2416   */\n      swap1\n      pop\n        /* \"#utility.yul\":2115:2423   */\n      swap2\n      swap1\n      pop\n      jump\t// out\n        /* \"#utility.yul\":2429:2575   */\n    tag_26:\n        /* \"#utility.yul\":2526:2532   */\n      dup3\n        /* \"#utility.yul\":2521:2524   */\n      dup2\n        /* \"#utility.yul\":2516:2519   */\n      dup4\n        /* \"#utility.yul\":2503:2533   */\n      calldatacopy\n        /* \"#utility.yul\":2567:2568   */\n      0x00\n        /* \"#utility.yul\":2558:2564   */\n      dup4\n        /* \"#utility.yul\":2553:2556   */\n      dup4\n        /* \"#utility.yul\":2549:2565   */\n      add\n        /* \"#utility.yul\":2542:2569   */\n      mstore\n        /* \"#utility.yul\":2429:2575   */\n      pop\n      pop\n      pop\n      jump\t// out\n        /* \"#utility.yul\":2581:3006   */\n    tag_27:\n        /* \"#utility.yul\":2659:2664   */\n      0x00\n        /* \"#utility.yul\":2684:2750   */\n      tag_79\n        /* \"#utility.yul\":2700:2749   */\n      tag_80\n        /* \"#utility.yul\":2742:2748   */\n      dup5\n        /* \"#utility.yul\":2700:2749   */\n      tag_25\n      jump\t// in\n    tag_80:\n        /* \"#utility.yul\":2684:2750   */\n      tag_24\n      jump\t// in\n    tag_79:\n        /* \"#utility.yul\":2675:2750   */\n      swap1\n      pop\n        /* \"#utility.yul\":2773:2779   */\n      dup3\n        /* \"#utility.yul\":2766:2771   */\n      dup2\n        /* \"#utility.yul\":2759:2780   */\n      mstore\n        /* \"#utility.yul\":2811:2815   */\n      0x20\n        /* \"#utility.yul\":2804:2809   */\n      dup2\n        /* \"#utility.yul\":2800:2816   */\n      add\n        /* \"#utility.yul\":2849:2852   */\n      dup5\n        /* \"#utility.yul\":2840:2846   */\n      dup5\n        /* \"#utility.yul\":2835:2838   */\n      dup5\n        /* \"#utility.yul\":2831:2847   */\n      add\n        /* \"#utility.yul\":2828:2853   */\n      gt\n        /* \"#utility.yul\":2825:2937   */\n      iszero\n      tag_81\n      jumpi\n        /* \"#utility.yul\":2856:2935   */\n      tag_82\n      tag_20\n      jump\t// in\n    tag_82:\n        /* \"#utility.yul\":2825:2937   */\n    tag_81:\n        /* \"#utility.yul\":2946:3000   */\n      tag_83\n        /* \"#utility.yul\":2993:2999   */\n      dup5\n        /* \"#utility.yul\":2988:2991   */\n      dup3\n        /* \"#utility.yul\":2983:2986   */\n      dup6\n        /* \"#utility.yul\":2946:3000   */\n      tag_26\n      jump\t// in\n    tag_83:\n        /* \"#utility.yul\":2665:3006   */\n      pop\n        /* \"#utility.yul\":2581:3006   */\n      swap4\n      swap3\n      pop\n      pop\n      pop\n      jump\t// out\n        /* \"#utility.yul\":3026:3366   */\n    tag_28:\n        /* \"#utility.yul\":3082:3087   */\n      0x00\n        /* \"#utility.yul\":3131:3134   */\n      dup3\n        /* \"#utility.yul\":3124:3128   */\n      0x1f\n        /* \"#utility.yul\":3116:3122   */\n      dup4\n        /* \"#utility.yul\":3112:3129   */\n      add\n        /* \"#utility.yul\":3108:3135   */\n      slt\n        /* \"#utility.yul\":3098:3220   */\n      tag_85\n      jumpi\n        /* \"#utility.yul\":3139:3218   */\n      tag_86\n      tag_16\n      jump\t// in\n    tag_86:\n        /* \"#utility.yul\":3098:3220   */\n    tag_85:\n        /* \"#utility.yul\":3256:3262   */\n      dup2\n        /* \"#utility.yul\":3243:3263   */\n      calldataload\n        /* \"#utility.yul\":3281:3360   */\n      tag_87\n        /* \"#utility.yul\":3356:3359   */\n      dup5\n        /* \"#utility.yul\":3348:3354   */\n      dup3\n        /* \"#utility.yul\":3341:3345   */\n      0x20\n        /* \"#utility.yul\":3333:3339   */\n      dup7\n        /* \"#utility.yul\":3329:3346   */\n      add\n        /* \"#utility.yul\":3281:3360   */\n      tag_27\n      jump\t// in\n    tag_87:\n        /* \"#utility.yul\":3272:3360   */\n      swap2\n      pop\n        /* \"#utility.yul\":3088:3366   */\n      pop\n        /* \"#utility.yul\":3026:3366   */\n      swap3\n      swap2\n      pop\n      pop\n      jump\t// out\n        /* \"#utility.yul\":3372:4226   */\n    tag_6:\n        /* \"#utility.yul\":3462:3468   */\n      0x00\n        /* \"#utility.yul\":3470:3476   */\n      dup1\n        /* \"#utility.yul\":3478:3484   */\n      0x00\n        /* \"#utility.yul\":3527:3529   */\n      0x40\n        /* \"#utility.yul\":3515:3524   */\n      dup5\n        /* \"#utility.yul\":3506:3513   */\n      dup7\n        /* \"#utility.yul\":3502:3525   */\n      sub\n        /* \"#utility.yul\":3498:3530   */\n      slt\n        /* \"#utility.yul\":3495:3614   */\n      iszero\n      tag_89\n      jumpi\n        /* \"#utility.yul\":3533:3612   */\n      tag_90\n      tag_14\n      jump\t// in\n    tag_90:\n        /* \"#utility.yul\":3495:3614   */\n    tag_89:\n        /* \"#utility.yul\":3681:3682   */\n      0x00\n        /* \"#utility.yul\":3670:3679   */\n      dup5\n        /* \"#utility.yul\":3666:3683   */\n      add\n        /* \"#utility.yul\":3653:3684   */\n      calldataload\n        /* \"#utility.yul\":3711:3729   */\n      0xffffffffffffffff\n        /* \"#utility.yul\":3703:3709   */\n      dup2\n        /* \"#utility.yul\":3700:3730   */\n      gt\n        /* \"#utility.yul\":3697:3814   */\n      iszero\n      tag_91\n      jumpi\n        /* \"#utility.yul\":3733:3812   */\n      tag_92\n      tag_15\n      jump\t// in\n    tag_92:\n        /* \"#utility.yul\":3697:3814   */\n    tag_91:\n        /* \"#utility.yul\":3846:3911   */\n      tag_93\n        /* \"#utility.yul\":3903:3910   */\n      dup7\n        /* \"#utility.yul\":3894:3900   */\n      dup3\n        /* \"#utility.yul\":3883:3892   */\n      dup8\n        /* \"#utility.yul\":3879:3901   */\n      add\n        /* \"#utility.yul\":3846:3911   */\n      tag_19\n      jump\t// in\n    tag_93:\n        /* \"#utility.yul\":3828:3911   */\n      swap4\n      pop\n      swap4\n      pop\n        /* \"#utility.yul\":3624:3921   */\n      pop\n        /* \"#utility.yul\":3988:3990   */\n      0x20\n        /* \"#utility.yul\":3977:3986   */\n      dup5\n        /* \"#utility.yul\":3973:3991   */\n      add\n        /* \"#utility.yul\":3960:3992   */\n      calldataload\n        /* \"#utility.yul\":4019:4037   */\n      0xffffffffffffffff\n        /* \"#utility.yul\":4011:4017   */\n      dup2\n        /* \"#utility.yul\":4008:4038   */\n      gt\n        /* \"#utility.yul\":4005:4122   */\n      iszero\n      tag_94\n      jumpi\n        /* \"#utility.yul\":4041:4120   */\n      tag_95\n      tag_15\n      jump\t// in\n    tag_95:\n        /* \"#utility.yul\":4005:4122   */\n    tag_94:\n        /* \"#utility.yul\":4146:4209   */\n      tag_96\n        /* \"#utility.yul\":4201:4208   */\n      dup7\n        /* \"#utility.yul\":4192:4198   */\n      dup3\n        /* \"#utility.yul\":4181:4190   */\n      dup8\n        /* \"#utility.yul\":4177:4199   */\n      add\n        /* \"#utility.yul\":4146:4209   */\n      tag_28\n      jump\t// in\n    tag_96:\n        /* \"#utility.yul\":4136:4209   */\n      swap2\n      pop\n        /* \"#utility.yul\":3931:4219   */\n      pop\n        /* \"#utility.yul\":3372:4226   */\n      swap3\n      pop\n      swap3\n      pop\n      swap3\n      jump\t// out\n        /* \"#utility.yul\":4232:4329   */\n    tag_29:\n        /* \"#utility.yul\":4291:4297   */\n      0x00\n        /* \"#utility.yul\":4319:4322   */\n      dup3\n        /* \"#utility.yul\":4309:4322   */\n      swap1\n      pop\n        /* \"#utility.yul\":4232:4329   */\n      swap3\n      swap2\n      pop\n      pop\n      jump\t// out\n        /* \"#utility.yul\":4335:4515   */\n    tag_30:\n        /* \"#utility.yul\":4383:4460   */\n      0x4e487b7100000000000000000000000000000000000000000000000000000000\n        /* \"#utility.yul\":4380:4381   */\n      0x00\n        /* \"#utility.yul\":4373:4461   */\n      mstore\n        /* \"#utility.yul\":4480:4484   */\n      0x22\n        /* \"#utility.yul\":4477:4478   */\n      0x04\n        /* \"#utility.yul\":4470:4485   */\n      mstore\n        /* \"#utility.yul\":4504:4508   */\n      0x24\n        /* \"#utility.yul\":4501:4502   */\n      0x00\n        /* \"#utility.yul\":4494:4509   */\n      revert\n        /* \"#utility.yul\":4521:4841   */\n    tag_31:\n        /* \"#utility.yul\":4565:4571   */\n      0x00\n        /* \"#utility.yul\":4602:4603   */\n      0x02\n        /* \"#utility.yul\":4596:4600   */\n      dup3\n        /* \"#utility.yul\":4592:4604   */\n      div\n        /* \"#utility.yul\":4582:4604   */\n      swap1\n      pop\n        /* \"#utility.yul\":4649:4650   */\n      0x01\n        /* \"#utility.yul\":4643:4647   */\n      dup3\n        /* \"#utility.yul\":4639:4651   */\n      and\n        /* \"#utility.yul\":4670:4688   */\n      dup1\n        /* \"#utility.yul\":4660:4741   */\n      tag_100\n      jumpi\n        /* \"#utility.yul\":4726:4730   */\n      0x7f\n        /* \"#utility.yul\":4718:4724   */\n      dup3\n        /* \"#utility.yul\":4714:4731   */\n      and\n        /* \"#utility.yul\":4704:4731   */\n      swap2\n      pop\n        /* \"#utility.yul\":4660:4741   */\n    tag_100:\n        /* \"#utility.yul\":4788:4790   */\n      0x20\n        /* \"#utility.yul\":4780:4786   */\n      dup3\n        /* \"#utility.yul\":4777:4791   */\n      lt\n        /* \"#utility.yul\":4757:4775   */\n      dup2\n        /* \"#utility.yul\":4754:4792   */\n      sub\n        /* \"#utility.yul\":4751:4835   */\n      tag_101\n      jumpi\n        /* \"#utility.yul\":4807:4825   */\n      tag_102\n      tag_30\n      jump\t// in\n    tag_102:\n        /* \"#utility.yul\":4751:4835   */\n    tag_101:\n        /* \"#utility.yul\":4572:4841   */\n      pop\n        /* \"#utility.yul\":4521:4841   */\n      swap2\n      swap1\n      pop\n      jump\t// out\n        /* \"#utility.yul\":4847:4988   */\n    tag_32:\n        /* \"#utility.yul\":4896:4900   */\n      0x00\n        /* \"#utility.yul\":4919:4922   */\n      dup2\n        /* \"#utility.yul\":4911:4922   */\n      swap1\n      pop\n        /* \"#utility.yul\":4942:4945   */\n      dup2\n        /* \"#utility.yul\":4939:4940   */\n      0x00\n        /* \"#utility.yul\":4932:4946   */\n      mstore\n        /* \"#utility.yul\":4976:4980   */\n      0x20\n        /* \"#utility.yul\":4973:4974   */\n      0x00\n        /* \"#utility.yul\":4963:4981   */\n      keccak256\n        /* \"#utility.yul\":4955:4981   */\n      swap1\n      pop\n        /* \"#utility.yul\":4847:4988   */\n      swap2\n      swap1\n      pop\n      jump\t// out\n        /* \"#utility.yul\":4994:5087   */\n    tag_33:\n        /* \"#utility.yul\":5031:5037   */\n      0x00\n        /* \"#utility.yul\":5078:5080   */\n      0x20\n        /* \"#utility.yul\":5073:5075   */\n      0x1f\n        /* \"#utility.yul\":5066:5071   */\n      dup4\n        /* \"#utility.yul\":5062:5076   */\n      add\n        /* \"#utility.yul\":5058:5081   */\n      div\n        /* \"#utility.yul\":5048:5081   */\n      swap1\n      pop\n        /* \"#utility.yul\":4994:5087   */\n      swap2\n      swap1\n      pop\n      jump\t// out\n        /* \"#utility.yul\":5093:5200   */\n    tag_34:\n        /* \"#utility.yul\":5137:5145   */\n      0x00\n        /* \"#utility.yul\":5187:5192   */\n      dup3\n        /* \"#utility.yul\":5181:5185   */\n      dup3\n        /* \"#utility.yul\":5177:5193   */\n      shl\n        /* \"#utility.yul\":5156:5193   */\n      swap1\n      pop\n        /* \"#utility.yul\":5093:5200   */\n      swap3\n      swap2\n      pop\n      pop\n      jump\t// out\n        /* \"#utility.yul\":5206:5599   */\n    tag_35:\n        /* \"#utility.yul\":5275:5281   */\n      0x00\n        /* \"#utility.yul\":5325:5326   */\n      0x08\n        /* \"#utility.yul\":5313:5323   */\n      dup4\n        /* \"#utility.yul\":5309:5327   */\n      mul\n        /* \"#utility.yul\":5348:5445   */\n      tag_107\n        /* \"#utility.yul\":5378:5444   */\n      0xffffffffffffffffffffffffffffffffffffffffffffffffffffffffffffffff\n        /* \"#utility.yul\":5367:5376   */\n      dup3\n        /* \"#utility.yul\":5348:5445   */\n      tag_34\n      jump\t// in\n    tag_107:\n        /* \"#utility.yul\":5466:5505   */\n      tag_108\n        /* \"#utility.yul\":5496:5504   */\n      dup7\n        /* \"#utility.yul\":5485:5494   */\n      dup4\n        /* \"#utility.yul\":5466:5505   */\n      tag_34\n      jump\t// in\n    tag_108:\n        /* \"#utility.yul\":5454:5505   */\n      swap6\n      pop\n        /* \"#utility.yul\":5538:5542   */\n      dup1\n        /* \"#utility.yul\":5534:5543   */\n      not\n        /* \"#utility.yul\":5527:5532   */\n      dup5\n        /* \"#utility.yul\":5523:5544   */\n      and\n        /* \"#utility.yul\":5514:5544   */\n      swap4\n      pop\n        /* \"#utility.yul\":5587:5591   */\n      dup1\n        /* \"#utility.yul\":5577:5585   */\n      dup7\n        /* \"#utility.yul\":5573:5592   */\n      and\n        /* \"#utility.yul\":5566:5571   */\n      dup5\n        /* \"#utility.yul\":5563:5593   */\n      or\n        /* \"#utility.yul\":5553:5593   */\n      swap3\n      pop\n        /* \"#utility.yul\":5282:5599   */\n      pop\n      pop\n        /* \"#utility.yul\":5206:5599   */\n      swap4\n      swap3\n      pop\n      pop\n      pop\n      jump\t// out\n        /* \"#utility.yul\":5605:5682   */\n    tag_36:\n        /* \"#utility.yul\":5642:5649   */\n      0x00\n        /* \"#utility.yul\":5671:5676   */\n      dup2\n        /* \"#utility.yul\":5660:5676   */\n      swap1\n      pop\n        /* \"#utility.yul\":5605:5682   */\n      swap2\n      swap1\n      pop\n      jump\t// out\n        /* \"#utility.yul\":5688:5748   */\n    tag_37:\n        /* \"#utility.yul\":5716:5719   */\n      0x00\n        /* \"#utility.yul\":5737:5742   */\n      dup2\n        /* \"#utility.yul\":5730:5742   */\n      swap1\n      pop\n        /* \"#utility.yul\":5688:5748   */\n      swap2\n      swap1\n      pop\n      jump\t// out\n        /* \"#utility.yul\":5754:5896   */\n    tag_38:\n        /* \"#utility.yul\":5804:5813   */\n      0x00\n        /* \"#utility.yul\":5837:5890   */\n      tag_112\n        /* \"#utility.yul\":5855:5889   */\n      tag_113\n        /* \"#utility.yul\":5864:5888   */\n      tag_114\n        /* \"#utility.yul\":5882:5887   */\n      dup5\n        /* \"#utility.yul\":5864:5888   */\n      tag_36\n      jump\t// in\n    tag_114:\n        /* \"#utility.yul\":5855:5889   */\n      tag_37\n      jump\t// in\n    tag_113:\n        /* \"#utility.yul\":5837:5890   */\n      tag_36\n      jump\t// in\n    tag_112:\n        /* \"#utility.yul\":5824:5890   */\n      swap1\n      pop\n        /* \"#utility.yul\":5754:5896   */\n      swap2\n      swap1\n      pop\n      jump\t// out\n        /* \"#utility.yul\":5902:5977   */\n    tag_39:\n        /* \"#utility.yul\":5945:5948   */\n      0x00\n        /* \"#utility.yul\":5966:5971   */\n      dup2\n        /* \"#utility.yul\":5959:5971   */\n      swap1\n      pop\n        /* \"#utility.yul\":5902:5977   */\n      swap2\n      swap1\n      pop\n      jump\t// out\n        /* \"#utility.yul\":5983:6252   */\n    tag_40:\n        /* \"#utility.yul\":6093:6132   */\n      tag_117\n        /* \"#utility.yul\":6124:6131   */\n      dup4\n        /* \"#utility.yul\":6093:6132   */\n      tag_38\n      jump\t// in\n    tag_117:\n        /* \"#utility.yul\":6154:6245   */\n      tag_118\n        /* \"#utility.yul\":6203:6244   */\n      tag_119\n        /* \"#utility.yul\":6227:6243   */\n      dup3\n        /* \"#utility.yul\":6203:6244   */\n      tag_39\n      jump\t// in\n    tag_119:\n        /* \"#utility.yul\":6195:6201   */\n      dup5\n        /* \"#utility.yul\":6188:6192   */\n      dup5\n        /* \"#utility.yul\":6182:6193   */\n      sload\n        /* \"#utility.yul\":6154:6245   */\n      tag_35\n      jump\t// in\n    tag_118:\n        /* \"#utility.yul\":6148:6152   */\n      dup3\n        /* \"#utility.yul\":6141:6246   */\n      sstore\n        /* \"#utility.yul\":6059:6252   */\n      pop\n        /* \"#utility.yul\":5983:6252   */\n      pop\n      pop\n      pop\n      jump\t// out\n        /* \"#utility.yul\":6258:6331   */\n    tag_41:\n        /* \"#utility.yul\":6303:6306   */\n      0x00\n        /* \"#utility.yul\":6258:6331   */\n      swap1\n      jump\t// out\n        /* \"#utility.yul\":6337:6526   */\n    tag_42:\n        /* \"#utility.yul\":6414:6446   */\n      tag_122\n      tag_41\n      jump\t// in\n    tag_122:\n        /* \"#utility.yul\":6455:6520   */\n      tag_123\n        /* \"#utility.yul\":6513:6519   */\n      dup2\n        /* \"#utility.yul\":6505:6511   */\n      dup5\n        /* \"#utility.yul\":6499:6503   */\n      dup5\n        /* \"#utility.yul\":6455:6520   */\n      tag_40\n      jump\t// in\n    tag_123:\n        /* \"#utility.yul\":6390:6526   */\n      pop\n        /* \"#utility.yul\":6337:6526   */\n      pop\n      pop\n      jump\t// out\n        /* \"#utility.yul\":6532:6718   */\n    tag_43:\n        /* \"#utility.yul\":6592:6712   */\n    tag_125:\n        /* \"#utility.yul\":6609:6612   */\n      dup2\n        /* \"#utility.yul\":6602:6607   */\n      dup2\n        /* \"#utility.yul\":6599:6613   */\n      lt\n        /* \"#utility.yul\":6592:6712   */\n      iszero\n      tag_127\n      jumpi\n        /* \"#utility.yul\":6663:6702   */\n      tag_128\n        /* \"#utility.yul\":6700:6701   */\n      0x00\n        /* \"#utility.yul\":6693:6698   */\n      dup3\n        /* \"#utility.yul\":6663:6702   */\n      tag_42\n      jump\t// in\n    tag_128:\n        /* \"#utility.yul\":6636:6637   */\n      0x01\n        /* \"#utility.yul\":6629:6634   */\n      dup2\n        /* \"#utility.yul\":6625:6638   */\n      add\n        /* \"#utility.yul\":6616:6638   */\n      swap1\n      pop\n        /* \"#utility.yul\":6592:6712   */\n      jump(tag_125)\n    tag_127:\n        /* \"#utility.yul\":6532:6718   */\n      pop\n      pop\n      jump\t// out\n        /* \"#utility.yul\":6724:7267   */\n    tag_44:\n        /* \"#utility.yul\":6825:6827   */\n      0x1f\n        /* \"#utility.yul\":6820:6823   */\n      dup3\n        /* \"#utility.yul\":6817:6828   */\n      gt\n        /* \"#utility.yul\":6814:7260   */\n      iszero\n      tag_130\n      jumpi\n        /* \"#utility.yul\":6859:6897   */\n      tag_131\n        /* \"#utility.yul\":6891:6896   */\n      dup2\n        /* \"#utility.yul\":6859:6897   */\n      tag_32\n      jump\t// in\n    tag_131:\n        /* \"#utility.yul\":6943:6972   */\n      tag_132\n        /* \"#utility.yul\":6961:6971   */\n      dup5\n        /* \"#utility.yul\":6943:6972   */\n      tag_33\n      jump\t// in\n    tag_132:\n        /* \"#utility.yul\":6933:6941   */\n      dup2\n        /* \"#utility.yul\":6929:6973   */\n      add\n        /* \"#utility.yul\":7126:7128   */\n      0x20\n        /* \"#utility.yul\":7114:7124   */\n      dup6\n        /* \"#utility.yul\":7111:7129   */\n      lt\n        /* \"#utility.yul\":7108:7157   */\n      iszero\n      tag_133\n      jumpi\n        /* \"#utility.yul\":7147:7155   */\n      dup2\n        /* \"#utility.yul\":7132:7155   */\n      swap1\n      pop\n        /* \"#utility.yul\":7108:7157   */\n    tag_133:\n        /* \"#utility.yul\":7170:7250   */\n      tag_134\n        /* \"#utility.yul\":7226:7248   */\n      tag_135\n        /* \"#utility.yul\":7244:7247   */\n      dup6\n        /* \"#utility.yul\":7226:7248   */\n      tag_33\n      jump\t// in\n    tag_135:\n        /* \"#utility.yul\":7216:7224   */\n      dup4\n        /* \"#utility.yul\":7212:7249   */\n      add\n        /* \"#utility.yul\":7199:7210   */\n      dup3\n        /* \"#utility.yul\":7170:7250   */\n      tag_43\n      jump\t// in\n    tag_134:\n        /* \"#utility.yul\":6829:7260   */\n      pop\n      pop\n        /* \"#utility.yul\":6814:7260   */\n    tag_130:\n        /* \"#utility.yul\":6724:7267   */\n      pop\n      pop\n      pop\n      jump\t// out\n        /* \"#utility.yul\":7273:7390   */\n    tag_45:\n        /* \"#utility.yul\":7327:7335   */\n      0x00\n        /* \"#utility.yul\":7377:7382   */\n      dup3\n        /* \"#utility.yul\":7371:7375   */\n      dup3\n        /* \"#utility.yul\":7367:7383   */\n      shr\n        /* \"#utility.yul\":7346:7383   */\n      swap1\n      pop\n        /* \"#utility.yul\":7273:7390   */\n      swap3\n      swap2\n      pop\n      pop\n      jump\t// out\n        /* \"#utility.yul\":7396:7565   */\n    tag_46:\n        /* \"#utility.yul\":7440:7446   */\n      0x00\n        /* \"#utility.yul\":7473:7524   */\n      tag_138\n        /* \"#utility.yul\":7521:7522   */\n      0x00\n        /* \"#utility.yul\":7517:7523   */\n      not\n        /* \"#utility.yul\":7509:7514   */\n      dup5\n        /* \"#utility.yul\":7506:7507   */\n      0x08\n        /* \"#utility.yul\":7502:7515   */\n      mul\n        /* \"#utility.yul\":7473:7524   */\n      tag_45\n      jump\t// in\n    tag_138:\n        /* \"#utility.yul\":7469:7525   */\n      not\n        /* \"#utility.yul\":7554:7558   */\n      dup1\n        /* \"#utility.yul\":7548:7552   */\n      dup4\n        /* \"#utility.yul\":7544:7559   */\n      and\n        /* \"#utility.yul\":7534:7559   */\n      swap2\n      pop\n        /* \"#utility.yul\":7447:7565   */\n      pop\n        /* \"#utility.yul\":7396:7565   */\n      swap3\n      swap2\n      pop\n      pop\n      jump\t// out\n        /* \"#utility.yul\":7570:7865   */\n    tag_47:\n        /* \"#utility.yul\":7646:7650   */\n      0x00\n        /* \"#utility.yul\":7792:7821   */\n      tag_140\n        /* \"#utility.yul\":7817:7820   */\n      dup4\n        /* \"#utility.yul\":7811:7815   */\n      dup4\n        /* \"#utility.yul\":7792:7821   */\n      tag_46\n      jump\t// in\n    tag_140:\n        /* \"#utility.yul\":7784:7821   */\n      swap2\n      pop\n        /* \"#utility.yul\":7854:7857   */\n      dup3\n        /* \"#utility.yul\":7851:7852   */\n      0x02\n        /* \"#utility.yul\":7847:7858   */\n      mul\n        /* \"#utility.yul\":7841:7845   */\n      dup3\n        /* \"#utility.yul\":7838:7859   */\n      or\n        /* \"#utility.yul\":7830:7859   */\n      swap1\n      pop\n        /* \"#utility.yul\":7570:7865   */\n      swap3\n      swap2\n      pop\n      pop\n      jump\t// out\n        /* \"#utility.yul\":7870:9273   */\n    tag_10:\n        /* \"#utility.yul\":7994:8038   */\n      tag_142\n        /* \"#utility.yul\":8034:8037   */\n      dup4\n        /* \"#utility.yul\":8029:8032   */\n      dup4\n        /* \"#utility.yul\":7994:8038   */\n      tag_29\n      jump\t// in\n    tag_142:\n        /* \"#utility.yul\":8103:8121   */\n      0xffffffffffffffff\n        /* \"#utility.yul\":8095:8101   */\n      dup2\n        /* \"#utility.yul\":8092:8122   */\n      gt\n        /* \"#utility.yul\":8089:8145   */\n      iszero\n      tag_143\n      jumpi\n        /* \"#utility.yul\":8125:8143   */\n      tag_144\n      tag_22\n      jump\t// in\n    tag_144:\n        /* \"#utility.yul\":8089:8145   */\n    tag_143:\n        /* \"#utility.yul\":8169:8207   */\n      tag_145\n        /* \"#utility.yul\":8201:8205   */\n      dup3\n        /* \"#utility.yul\":8195:8206   */\n      sload\n        /* \"#utility.yul\":8169:8207   */\n      tag_31\n      jump\t// in\n    tag_145:\n        /* \"#utility.yul\":8254:8321   */\n      tag_146\n        /* \"#utility.yul\":8314:8320   */\n      dup3\n        /* \"#utility.yul\":8306:8312   */\n      dup3\n        /* \"#utility.yul\":8300:8304   */\n      dup6\n        /* \"#utility.yul\":8254:8321   */\n      tag_44\n      jump\t// in\n    tag_146:\n        /* \"#utility.yul\":8348:8349   */\n      0x00\n        /* \"#utility.yul\":8377:8379   */\n      0x1f\n        /* \"#utility.yul\":8369:8375   */\n      dup4\n        /* \"#utility.yul\":8366:8380   */\n      gt\n        /* \"#utility.yul\":8394:8395   */\n      0x01\n        /* \"#utility.yul\":8389:9021   */\n      dup2\n      eq\n      tag_148\n      jumpi\n        /* \"#utility.yul\":9065:9066   */\n      0x00\n        /* \"#utility.yul\":9082:9088   */\n      dup5\n        /* \"#utility.yul\":9079:9163   */\n      iszero\n      tag_149\n      jumpi\n        /* \"#utility.yul\":9138:9147   */\n      dup3\n        /* \"#utility.yul\":9133:9136   */\n      dup8\n        /* \"#utility.yul\":9129:9148   */\n      add\n        /* \"#utility.yul\":9116:9149   */\n      calldataload\n        /* \"#utility.yul\":9107:9149   */\n      swap1\n      pop\n        /* \"#utility.yul\":9079:9163   */\n    tag_149:\n        /* \"#utility.yul\":9189:9256   */\n      tag_150\n        /* \"#utility.yul\":9249:9255   */\n      dup6\n        /* \"#utility.yul\":9242:9247   */\n      dup3\n        /* \"#utility.yul\":9189:9256   */\n      tag_47\n      jump\t// in\n    tag_150:\n        /* \"#utility.yul\":9183:9187   */\n      dup7\n        /* \"#utility.yul\":9176:9257   */\n      sstore\n        /* \"#utility.yul\":9038:9267   */\n      pop\n        /* \"#utility.yul\":8359:9267   */\n      jump(tag_147)\n        /* \"#utility.yul\":8389:9021   */\n    tag_148:\n        /* \"#utility.yul\":8441:8445   */\n      0x1f\n        /* \"#utility.yul\":8437:8446   */\n      not\n        /* \"#utility.yul\":8429:8435   */\n      dup5\n        /* \"#utility.yul\":8425:8447   */\n      and\n        /* \"#utility.yul\":8475:8512   */\n      tag_151\n        /* \"#utility.yul\":8507:8511   */\n      dup7\n        /* \"#utility.yul\":8475:8512   */\n      tag_32\n      jump\t// in\n    tag_151:\n        /* \"#utility.yul\":8534:8535   */\n      0x00\n        /* \"#utility.yul\":8548:8763   */\n    tag_152:\n        /* \"#utility.yul\":8562:8569   */\n      dup3\n        /* \"#utility.yul\":8559:8560   */\n      dup2\n        /* \"#utility.yul\":8556:8570   */\n      lt\n        /* \"#utility.yul\":8548:8763   */\n      iszero\n      tag_154\n      jumpi\n        /* \"#utility.yul\":8648:8657   */\n      dup5\n        /* \"#utility.yul\":8643:8646   */\n      dup10\n        /* \"#utility.yul\":8639:8658   */\n      add\n        /* \"#utility.yul\":8626:8659   */\n      calldataload\n        /* \"#utility.yul\":8618:8624   */\n      dup3\n        /* \"#utility.yul\":8611:8660   */\n      sstore\n        /* \"#utility.yul\":8699:8700   */\n      0x01\n        /* \"#utility.yul\":8691:8697   */\n      dup3\n        /* \"#utility.yul\":8687:8701   */\n      add\n        /* \"#utility.yul\":8677:8701   */\n      swap2\n      pop\n        /* \"#utility.yul\":8746:8748   */\n      0x20\n        /* \"#utility.yul\":8735:8744   */\n      dup6\n        /* \"#utility.yul\":8731:8749   */\n      add\n        /* \"#utility.yul\":8718:8749   */\n      swap5\n      pop\n        /* \"#utility.yul\":8585:8589   */\n      0x20\n        /* \"#utility.yul\":8582:8583   */\n      dup2\n        /* \"#utility.yul\":8578:8590   */\n      add\n        /* \"#utility.yul\":8573:8590   */\n      swap1\n      pop\n        /* \"#utility.yul\":8548:8763   */\n      jump(tag_152)\n    tag_154:\n        /* \"#utility.yul\":8791:8797   */\n      dup7\n        /* \"#utility.yul\":8782:8789   */\n      dup4\n        /* \"#utility.yul\":8779:8798   */\n      lt\n        /* \"#utility.yul\":8776:8962   */\n      iszero\n      tag_155\n      jumpi\n        /* \"#utility.yul\":8856:8865   */\n      dup5\n        /* \"#utility.yul\":8851:8854   */\n      dup10\n        /* \"#utility.yul\":8847:8866   */\n      add\n        /* \"#utility.yul\":8834:8867   */\n      calldataload\n        /* \"#utility.yul\":8899:8947   */\n      tag_156\n        /* \"#utility.yul\":8941:8945   */\n      0x1f\n        /* \"#utility.yul\":8933:8939   */\n      dup10\n        /* \"#utility.yul\":8929:8946   */\n      and\n        /* \"#utility.yul\":8918:8927   */\n      dup3\n        /* \"#utility.yul\":8899:8947   */\n      tag_46\n      jump\t// in\n    tag_156:\n        /* \"#utility.yul\":8891:8897   */\n      dup4\n        /* \"#utility.yul\":8884:8948   */\n      sstore\n        /* \"#utility.yul\":8799:8962   */\n      pop\n        /* \"#utility.yul\":8776:8962   */\n    tag_155:\n        /* \"#utility.yul\":9008:9009   */\n      0x01\n        /* \"#utility.yul\":9004:9005   */\n      0x02\n        /* \"#utility.yul\":8996:9002   */\n      dup9\n        /* \"#utility.yul\":8992:9006   */\n      mul\n        /* \"#utility.yul\":8988:9010   */\n      add\n        /* \"#utility.yul\":8982:8986   */\n      dup9\n        /* \"#utility.yul\":8975:9011   */\n      sstore\n        /* \"#utility.yul\":8396:9021   */\n      pop\n      pop\n      pop\n        /* \"#utility.yul\":8359:9267   */\n    tag_147:\n      pop\n        /* \"#utility.yul\":7969:9273   */\n      pop\n      pop\n      pop\n        /* \"#utility.yul\":7870:9273   */\n      pop\n      pop\n      pop\n      jump\t// out\n        /* \"#utility.yul\":9279:9378   */\n    tag_48:\n        /* \"#utility.yul\":9331:9337   */\n      0x00\n        /* \"#utility.yul\":9365:9370   */\n      dup2\n        /* \"#utility.yul\":9359:9371   */\n      mload\n        /* \"#utility.yul\":9349:9371   */\n      swap1\n      pop\n        /* \"#utility.yul\":9279:9378   */\n      swap2\n      swap1\n      pop\n      jump\t// out\n        /* \"#utility.yul\":9384:10779   */\n    tag_12:\n        /* \"#utility.yul\":9501:9538   */\n      tag_159\n        /* \"#utility.yul\":9534:9537   */\n      dup3\n        /* \"#utility.yul\":9501:9538   */\n      tag_48\n      jump\t// in\n    tag_159:\n        /* \"#utility.yul\":9603:9621   */\n      0xffffffffffffffff\n        /* \"#utility.yul\":9595:9601   */\n      dup2\n        /* \"#utility.yul\":9592:9622   */\n      gt\n        /* \"#utility.yul\":9589:9645   */\n      iszero\n      tag_160\n      jumpi\n        /* \"#utility.yul\":9625:9643   */\n      tag_161\n      tag_22\n      jump\t// in\n    tag_161:\n        /* \"#utility.yul\":9589:9645   */\n    tag_160:\n        /* \"#utility.yul\":9669:9707   */\n      tag_162\n        /* \"#utility.yul\":9701:9705   */\n      dup3\n        /* \"#utility.yul\":9695:9706   */\n      sload\n        /* \"#utility.yul\":9669:9707   */\n      tag_31\n      jump\t// in\n    tag_162:\n        /* \"#utility.yul\":9754:9821   */\n      tag_163\n        /* \"#utility.yul\":9814:9820   */\n      dup3\n        /* \"#utility.yul\":9806:9812   */\n      dup3\n        /* \"#utility.yul\":9800:9804   */\n      dup6\n        /* \"#utility.yul\":9754:9821   */\n      tag_44\n      jump\t// in\n    tag_163:\n        /* \"#utility.yul\":9848:9849   */\n      0x00\n        /* \"#utility.yul\":9872:9876   */\n      0x20\n        /* \"#utility.yul\":9859:9876   */\n      swap1\n      pop\n        /* \"#utility.yul\":9904:9906   */\n      0x1f\n        /* \"#utility.yul\":9896:9902   */\n      dup4\n        /* \"#utility.yul\":9893:9907   */\n      gt\n        /* \"#utility.yul\":9921:9922   */\n      0x01\n        /* \"#utility.yul\":9916:10534   */\n      dup2\n      eq\n      tag_165\n      jumpi\n        /* \"#utility.yul\":10578:10579   */\n      0x00\n        /* \"#utility.yul\":10595:10601   */\n      dup5\n        /* \"#utility.yul\":10592:10669   */\n      iszero\n      tag_166\n      jumpi\n        /* \"#utility.yul\":10644:10653   */\n      dup3\n        /* \"#utility.yul\":10639:10642   */\n      dup8\n        /* \"#utility.yul\":10635:10654   */\n      add\n        /* \"#utility.yul\":10629:10655   */\n      mload\n        /* \"#utility.yul\":10620:10655   */\n      swap1\n      pop\n        /* \"#utility.yul\":10592:10669   */\n    tag_166:\n        /* \"#utility.yul\":10695:10762   */\n      tag_167\n        /* \"#utility.yul\":10755:10761   */\n      dup6\n        /* \"#utility.yul\":10748:10753   */\n      dup3\n        /* \"#utility.yul\":10695:10762   */\n      tag_47\n      jump\t// in\n    tag_167:\n        /* \"#utility.yul\":10689:10693   */\n      dup7\n        /* \"#utility.yul\":10682:10763   */\n      sstore\n        /* \"#utility.yul\":10551:10773   */\n      pop\n        /* \"#utility.yul\":9886:10773   */\n      jump(tag_164)\n        /* \"#utility.yul\":9916:10534   */\n    tag_165:\n        /* \"#utility.yul\":9968:9972   */\n      0x1f\n        /* \"#utility.yul\":9964:9973   */\n      not\n        /* \"#utility.yul\":9956:9962   */\n      dup5\n        /* \"#utility.yul\":9952:9974   */\n      and\n        /* \"#utility.yul\":10002:10039   */\n      tag_168\n        /* \"#utility.yul\":10034:10038   */\n      dup7\n        /* \"#utility.yul\":10002:10039   */\n      tag_32\n      jump\t// in\n    tag_168:\n        /* \"#utility.yul\":10061:10062   */\n      0x00\n        /* \"#utility.yul\":10075:10283   */\n    tag_169:\n        /* \"#utility.yul\":10089:10096   */\n      dup3\n        /* \"#utility.yul\":10086:10087   */\n      dup2\n        /* \"#utility.yul\":10083:10097   */\n      lt\n        /* \"#utility.yul\":10075:10283   */\n      iszero\n      tag_171\n      jumpi\n        /* \"#utility.yul\":10168:10177   */\n      dup5\n        /* \"#utility.yul\":10163:10166   */\n      dup10\n        /* \"#utility.yul\":10159:10178   */\n      add\n        /* \"#utility.yul\":10153:10179   */\n      mload\n        /* \"#utility.yul\":10145:10151   */\n      dup3\n        /* \"#utility.yul\":10138:10180   */\n      sstore\n        /* \"#utility.yul\":10219:10220   */\n      0x01\n        /* \"#utility.yul\":10211:10217   */\n      dup3\n        /* \"#utility.yul\":10207:10221   */\n      add\n        /* \"#utility.yul\":10197:10221   */\n      swap2\n      pop\n        /* \"#utility.yul\":10266:10268   */\n      0x20\n        /* \"#utility.yul\":10255:10264   */\n      dup6\n        /* \"#utility.yul\":10251:10269   */\n      add\n        /* \"#utility.yul\":10238:10269   */\n      swap5\n      pop\n        /* \"#utility.yul\":10112:10116   */\n      0x20\n        /* \"#utility.yul\":10109:10110   */\n      dup2\n        /* \"#utility.yul\":10105:10117   */\n      add\n        /* \"#utility.yul\":10100:10117   */\n      swap1\n      pop\n        /* \"#utility.yul\":10075:10283   */\n      jump(tag_169)\n    tag_171:\n        /* \"#utility.yul\":10311:10317   */\n      dup7\n        /* \"#utility.yul\":10302:10309   */\n      dup4\n        /* \"#utility.yul\":10299:10318   */\n      lt\n        /* \"#utility.yul\":10296:10475   */\n      iszero\n      tag_172\n      jumpi\n        /* \"#utility.yul\":10369:10378   */\n      dup5\n        /* \"#utility.yul\":10364:10367   */\n      dup10\n        /* \"#utility.yul\":10360:10379   */\n      add\n        /* \"#utility.yul\":10354:10380   */\n      mload\n        /* \"#utility.yul\":10412:10460   */\n      tag_173\n        /* \"#utility.yul\":10454:10458   */\n      0x1f\n        /* \"#utility.yul\":10446:10452   */\n      dup10\n        /* \"#utility.yul\":10442:10459   */\n      and\n        /* \"#utility.yul\":10431:10440   */\n      dup3\n        /* \"#utility.yul\":10412:10460   */\n      tag_46\n      jump\t// in\n    tag_173:\n        /* \"#utility.yul\":10404:10410   */\n      dup4\n        /* \"#utility.yul\":10397:10461   */\n      sstore\n        /* \"#utility.yul\":10319:10475   */\n      pop\n        /* \"#utility.yul\":10296:10475   */\n    tag_172:\n        /* \"#utility.yul\":10521:10522   */\n      0x01\n        /* \"#utility.yul\":10517:10518   */\n      0x02\n        /* \"#utility.yul\":10509:10515   */\n      dup9\n        /* \"#utility.yul\":10505:10519   */\n      mul\n        /* \"#utility.yul\":10501:10523   */\n      add\n        /* \"#utility.yul\":10495:10499   */\n      dup9\n        /* \"#utility.yul\":10488:10524   */\n      sstore\n        /* \"#utility.yul\":9923:10534   */\n      pop\n      pop\n      pop\n        /* \"#utility.yul\":9886:10773   */\n    tag_164:\n      pop\n        /* \"#utility.yul\":9476:10779   */\n      pop\n      pop\n      pop\n        /* \"#utility.yul\":9384:10779   */\n      pop\n      pop\n      jump\t// out\n\n    auxdata: 0xa26469706673582212208a4488c2d12d48be85fe38d315087dcae331e68ba95b533e607fd1012023ab7a64736f6c63430008130033\n}\n",
				"bytecode": {
					"linkReferences": {},
					"object": "608060405234801561001057600080fd5b506106e5806100206000396000f3fe608060405234801561001057600080fd5b506004361061002b5760003560e01c80639a0f3aca14610030575b600080fd5b61004a60048036038101906100459190610265565b61004c565b005b82826000918261005d929190610502565b506040518060400160405280600681526020017f446561636f6e0000000000000000000000000000000000000000000000000000815250905080600190816100a591906105dd565b50505050565b6000604051905090565b600080fd5b600080fd5b600080fd5b600080fd5b600080fd5b60008083601f8401126100e4576100e36100bf565b5b8235905067ffffffffffffffff811115610101576101006100c4565b5b60208301915083600182028301111561011d5761011c6100c9565b5b9250929050565b600080fd5b6000601f19601f8301169050919050565b7f4e487b7100000000000000000000000000000000000000000000000000000000600052604160045260246000fd5b61017282610129565b810181811067ffffffffffffffff821117156101915761019061013a565b5b80604052505050565b60006101a46100ab565b90506101b08282610169565b919050565b600067ffffffffffffffff8211156101d0576101cf61013a565b5b6101d982610129565b9050602081019050919050565b82818337600083830152505050565b6000610208610203846101b5565b61019a565b90508281526020810184848401111561022457610223610124565b5b61022f8482856101e6565b509392505050565b600082601f83011261024c5761024b6100bf565b5b813561025c8482602086016101f5565b91505092915050565b60008060006040848603121561027e5761027d6100b5565b5b600084013567ffffffffffffffff81111561029c5761029b6100ba565b5b6102a8868287016100ce565b9350935050602084013567ffffffffffffffff8111156102cb576102ca6100ba565b5b6102d786828701610237565b9150509250925092565b600082905092915050565b7f4e487b7100000000000000000000000000000000000000000000000000000000600052602260045260246000fd5b6000600282049050600182168061033357607f821691505b602082108103610346576103456102ec565b5b50919050565b60008190508160005260206000209050919050565b60006020601f8301049050919050565b600082821b905092915050565b6000600883026103ae7fffffffffffffffffffffffffffffffffffffffffffffffffffffffffffffffff82610371565b6103b88683610371565b95508019841693508086168417925050509392505050565b6000819050919050565b6000819050919050565b60006103ff6103fa6103f5846103d0565b6103da565b6103d0565b9050919050565b6000819050919050565b610419836103e4565b61042d61042582610406565b84845461037e565b825550505050565b600090565b610442610435565b61044d818484610410565b505050565b5b818110156104715761046660008261043a565b600181019050610453565b5050565b601f8211156104b6576104878161034c565b61049084610361565b8101602085101561049f578190505b6104b36104ab85610361565b830182610452565b50505b505050565b600082821c905092915050565b60006104d9600019846008026104bb565b1980831691505092915050565b60006104f283836104c8565b9150826002028217905092915050565b61050c83836102e1565b67ffffffffffffffff8111156105255761052461013a565b5b61052f825461031b565b61053a828285610475565b6000601f8311600181146105695760008415610557578287013590505b61056185826104e6565b8655506105c9565b601f1984166105778661034c565b60005b8281101561059f5784890135825560018201915060208501945060208101905061057a565b868310156105bc57848901356105b8601f8916826104c8565b8355505b6001600288020188555050505b50505050505050565b600081519050919050565b6105e6826105d2565b67ffffffffffffffff8111156105ff576105fe61013a565b5b610609825461031b565b610614828285610475565b600060209050601f8311600181146106475760008415610635578287015190505b61063f85826104e6565b8655506106a7565b601f1984166106558661034c565b60005b8281101561067d57848901518255600182019150602085019450602081019050610658565b8683101561069a5784890151610696601f8916826104c8565b8355505b6001600288020188555050505b50505050505056fea26469706673582212208a4488c2d12d48be85fe38d315087dcae331e68ba95b533e607fd1012023ab7a64736f6c63430008130033",
					"opcodes": "PUSH1 0x80 PUSH1 0x40 MSTORE CALLVALUE DUP1 ISZERO PUSH2 0x10 JUMPI PUSH1 0x0 DUP1 REVERT JUMPDEST POP PUSH2 0x6E5 DUP1 PUSH2 0x20 PUSH1 0x0 CODECOPY PUSH1 0x0 RETURN INVALID PUSH1 0x80 PUSH1 0x40 MSTORE CALLVALUE DUP1 ISZERO PUSH2 0x10 JUMPI PUSH1 0x0 DUP1 REVERT JUMPDEST POP PUSH1 0x4 CALLDATASIZE LT PUSH2 0x2B JUMPI PUSH1 0x0 CALLDATALOAD PUSH1 0xE0 SHR DUP1 PUSH4 0x9A0F3ACA EQ PUSH2 0x30 JUMPI JUMPDEST PUSH1 0x0 DUP1 REVERT JUMPDEST PUSH2 0x4A PUSH1 0x4 DUP1 CALLDATASIZE SUB DUP2 ADD SWAP1 PUSH2 0x45 SWAP2 SWAP1 PUSH2 0x265 JUMP JUMPDEST PUSH2 0x4C JUMP JUMPDEST STOP JUMPDEST DUP3 DUP3 PUSH1 0x0 SWAP2 DUP3 PUSH2 0x5D SWAP3 SWAP2 SWAP1 PUSH2 0x502 JUMP JUMPDEST POP PUSH1 0x40 MLOAD DUP1 PUSH1 0x40 ADD PUSH1 0x40 MSTORE DUP1 PUSH1 0x6 DUP2 MSTORE PUSH1 0x20 ADD PUSH32 0x446561636F6E0000000000000000000000000000000000000000000000000000 DUP2 MSTORE POP SWAP1 POP DUP1 PUSH1 0x1 SWAP1 DUP2 PUSH2 0xA5 SWAP2 SWAP1 PUSH2 0x5DD JUMP JUMPDEST POP POP POP POP JUMP JUMPDEST PUSH1 0x0 PUSH1 0x40 MLOAD SWAP1 POP SWAP1 JUMP JUMPDEST PUSH1 0x0 DUP1 REVERT JUMPDEST PUSH1 0x0 DUP1 REVERT JUMPDEST PUSH1 0x0 DUP1 REVERT JUMPDEST PUSH1 0x0 DUP1 REVERT JUMPDEST PUSH1 0x0 DUP1 REVERT JUMPDEST PUSH1 0x0 DUP1 DUP4 PUSH1 0x1F DUP5 ADD SLT PUSH2 0xE4 JUMPI PUSH2 0xE3 PUSH2 0xBF JUMP JUMPDEST JUMPDEST DUP3 CALLDATALOAD SWAP1 POP PUSH8 0xFFFFFFFFFFFFFFFF DUP2 GT ISZERO PUSH2 0x101 JUMPI PUSH2 0x100 PUSH2 0xC4 JUMP JUMPDEST JUMPDEST PUSH1 0x20 DUP4 ADD SWAP2 POP DUP4 PUSH1 0x1 DUP3 MUL DUP4 ADD GT ISZERO PUSH2 0x11D JUMPI PUSH2 0x11C PUSH2 0xC9 JUMP JUMPDEST JUMPDEST SWAP3 POP SWAP3 SWAP1 POP JUMP JUMPDEST PUSH1 0x0 DUP1 REVERT JUMPDEST PUSH1 0x0 PUSH1 0x1F NOT PUSH1 0x1F DUP4 ADD AND SWAP1 POP SWAP2 SWAP1 POP JUMP JUMPDEST PUSH32 0x4E487B7100000000000000000000000000000000000000000000000000000000 PUSH1 0x0 MSTORE PUSH1 0x41 PUSH1 0x4 MSTORE PUSH1 0x24 PUSH1 0x0 REVERT JUMPDEST PUSH2 0x172 DUP3 PUSH2 0x129 JUMP JUMPDEST DUP2 ADD DUP2 DUP2 LT PUSH8 0xFFFFFFFFFFFFFFFF DUP3 GT OR ISZERO PUSH2 0x191 JUMPI PUSH2 0x190 PUSH2 0x13A JUMP JUMPDEST JUMPDEST DUP1 PUSH1 0x40 MSTORE POP POP POP JUMP JUMPDEST PUSH1 0x0 PUSH2 0x1A4 PUSH2 0xAB JUMP JUMPDEST SWAP1 POP PUSH2 0x1B0 DUP3 DUP3 PUSH2 0x169 JUMP JUMPDEST SWAP2 SWAP1 POP JUMP JUMPDEST PUSH1 0x0 PUSH8 0xFFFFFFFFFFFFFFFF DUP3 GT ISZERO PUSH2 0x1D0 JUMPI PUSH2 0x1CF PUSH2 0x13A JUMP JUMPDEST JUMPDEST PUSH2 0x1D9 DUP3 PUSH2 0x129 JUMP JUMPDEST SWAP1 POP PUSH1 0x20 DUP2 ADD SWAP1 POP SWAP2 SWAP1 POP JUMP JUMPDEST DUP3 DUP2 DUP4 CALLDATACOPY PUSH1 0x0 DUP4 DUP4 ADD MSTORE POP POP POP JUMP JUMPDEST PUSH1 0x0 PUSH2 0x208 PUSH2 0x203 DUP5 PUSH2 0x1B5 JUMP JUMPDEST PUSH2 0x19A JUMP JUMPDEST SWAP1 POP DUP3 DUP2 MSTORE PUSH1 0x20 DUP2 ADD DUP5 DUP5 DUP5 ADD GT ISZERO PUSH2 0x224 JUMPI PUSH2 0x223 PUSH2 0x124 JUMP JUMPDEST JUMPDEST PUSH2 0x22F DUP5 DUP3 DUP6 PUSH2 0x1E6 JUMP JUMPDEST POP SWAP4 SWAP3 POP POP POP JUMP JUMPDEST PUSH1 0x0 DUP3 PUSH1 0x1F DUP4 ADD SLT PUSH2 0x24C JUMPI PUSH2 0x24B PUSH2 0xBF JUMP JUMPDEST JUMPDEST DUP2 CALLDATALOAD PUSH2 0x25C DUP5 DUP3 PUSH1 0x20 DUP7 ADD PUSH2 0x1F5 JUMP JUMPDEST SWAP2 POP POP SWAP3 SWAP2 POP POP JUMP JUMPDEST PUSH1 0x0 DUP1 PUSH1 0x0 PUSH1 0x40 DUP5 DUP7 SUB SLT ISZERO PUSH2 0x27E JUMPI PUSH2 0x27D PUSH2 0xB5 JUMP JUMPDEST JUMPDEST PUSH1 0x0 DUP5 ADD CALLDATALOAD PUSH8 0xFFFFFFFFFFFFFFFF DUP2 GT ISZERO PUSH2 0x29C JUMPI PUSH2 0x29B PUSH2 0xBA JUMP JUMPDEST JUMPDEST PUSH2 0x2A8 DUP7 DUP3 DUP8 ADD PUSH2 0xCE JUMP JUMPDEST SWAP4 POP SWAP4 POP POP PUSH1 0x20 DUP5 ADD CALLDATALOAD PUSH8 0xFFFFFFFFFFFFFFFF DUP2 GT ISZERO PUSH2 0x2CB JUMPI PUSH2 0x2CA PUSH2 0xBA JUMP JUMPDEST JUMPDEST PUSH2 0x2D7 DUP7 DUP3 DUP8 ADD PUSH2 0x237 JUMP JUMPDEST SWAP2 POP POP SWAP3 POP SWAP3 POP SWAP3 JUMP JUMPDEST PUSH1 0x0 DUP3 SWAP1 POP SWAP3 SWAP2 POP POP JUMP JUMPDEST PUSH32 0x4E487B7100000000000000000000000000000000000000000000000000000000 PUSH1 0x0 MSTORE PUSH1 0x22 PUSH1 0x4 MSTORE PUSH1 0x24 PUSH1 0x0 REVERT JUMPDEST PUSH1 0x0 PUSH1 0x2 DUP3 DIV SWAP1 POP PUSH1 0x1 DUP3 AND DUP1 PUSH2 0x333 JUMPI PUSH1 0x7F DUP3 AND SWAP2 POP JUMPDEST PUSH1 0x20 DUP3 LT DUP2 SUB PUSH2 0x346 JUMPI PUSH2 0x345 PUSH2 0x2EC JUMP JUMPDEST JUMPDEST POP SWAP2 SWAP1 POP JUMP JUMPDEST PUSH1 0x0 DUP2 SWAP1 POP DUP2 PUSH1 0x0 MSTORE PUSH1 0x20 PUSH1 0x0 KECCAK256 SWAP1 POP SWAP2 SWAP1 POP JUMP JUMPDEST PUSH1 0x0 PUSH1 0x20 PUSH1 0x1F DUP4 ADD DIV SWAP1 POP SWAP2 SWAP1 POP JUMP JUMPDEST PUSH1 0x0 DUP3 DUP3 SHL SWAP1 POP SWAP3 SWAP2 POP POP JUMP JUMPDEST PUSH1 0x0 PUSH1 0x8 DUP4 MUL PUSH2 0x3AE PUSH32 0xFFFFFFFFFFFFFFFFFFFFFFFFFFFFFFFFFFFFFFFFFFFFFFFFFFFFFFFFFFFFFFFF DUP3 PUSH2 0x371 JUMP JUMPDEST PUSH2 0x3B8 DUP7 DUP4 PUSH2 0x371 JUMP JUMPDEST SWAP6 POP DUP1 NOT DUP5 AND SWAP4 POP DUP1 DUP7 AND DUP5 OR SWAP3 POP POP POP SWAP4 SWAP3 POP POP POP JUMP JUMPDEST PUSH1 0x0 DUP2 SWAP1 POP SWAP2 SWAP1 POP JUMP JUMPDEST PUSH1 0x0 DUP2 SWAP1 POP SWAP2 SWAP1 POP JUMP JUMPDEST PUSH1 0x0 PUSH2 0x3FF PUSH2 0x3FA PUSH2 0x3F5 DUP5 PUSH2 0x3D0 JUMP JUMPDEST PUSH2 0x3DA JUMP JUMPDEST PUSH2 0x3D0 JUMP JUMPDEST SWAP1 POP SWAP2 SWAP1 POP JUMP JUMPDEST PUSH1 0x0 DUP2 SWAP1 POP SWAP2 SWAP1 POP JUMP JUMPDEST PUSH2 0x419 DUP4 PUSH2 0x3E4 JUMP JUMPDEST PUSH2 0x42D PUSH2 0x425 DUP3 PUSH2 0x406 JUMP JUMPDEST DUP5 DUP5 SLOAD PUSH2 0x37E JUMP JUMPDEST DUP3 SSTORE POP POP POP POP JUMP JUMPDEST PUSH1 0x0 SWAP1 JUMP JUMPDEST PUSH2 0x442 PUSH2 0x435 JUMP JUMPDEST PUSH2 0x44D DUP2 DUP5 DUP5 PUSH2 0x410 JUMP JUMPDEST POP POP POP JUMP JUMPDEST JUMPDEST DUP2 DUP2 LT ISZERO PUSH2 0x471 JUMPI PUSH2 0x466 PUSH1 0x0 DUP3 PUSH2 0x43A JUMP JUMPDEST PUSH1 0x1 DUP2 ADD SWAP1 POP PUSH2 0x453 JUMP JUMPDEST POP POP JUMP JUMPDEST PUSH1 0x1F DUP3 GT ISZERO PUSH2 0x4B6 JUMPI PUSH2 0x487 DUP2 PUSH2 0x34C JUMP JUMPDEST PUSH2 0x490 DUP5 PUSH2 0x361 JUMP JUMPDEST DUP2 ADD PUSH1 0x20 DUP6 LT ISZERO PUSH2 0x49F JUMPI DUP2 SWAP1 POP JUMPDEST PUSH2 0x4B3 PUSH2 0x4AB DUP6 PUSH2 0x361 JUMP JUMPDEST DUP4 ADD DUP3 PUSH2 0x452 JUMP JUMPDEST POP POP JUMPDEST POP POP POP JUMP JUMPDEST PUSH1 0x0 DUP3 DUP3 SHR SWAP1 POP SWAP3 SWAP2 POP POP JUMP JUMPDEST PUSH1 0x0 PUSH2 0x4D9 PUSH1 0x0 NOT DUP5 PUSH1 0x8 MUL PUSH2 0x4BB JUMP JUMPDEST NOT DUP1 DUP4 AND SWAP2 POP POP SWAP3 SWAP2 POP POP JUMP JUMPDEST PUSH1 0x0 PUSH2 0x4F2 DUP4 DUP4 PUSH2 0x4C8 JUMP JUMPDEST SWAP2 POP DUP3 PUSH1 0x2 MUL DUP3 OR SWAP1 POP SWAP3 SWAP2 POP POP JUMP JUMPDEST PUSH2 0x50C DUP4 DUP4 PUSH2 0x2E1 JUMP JUMPDEST PUSH8 0xFFFFFFFFFFFFFFFF DUP2 GT ISZERO PUSH2 0x525 JUMPI PUSH2 0x524 PUSH2 0x13A JUMP JUMPDEST JUMPDEST PUSH2 0x52F DUP3 SLOAD PUSH2 0x31B JUMP JUMPDEST PUSH2 0x53A DUP3 DUP3 DUP6 PUSH2 0x475 JUMP JUMPDEST PUSH1 0x0 PUSH1 0x1F DUP4 GT PUSH1 0x1 DUP2 EQ PUSH2 0x569 JUMPI PUSH1 0x0 DUP5 ISZERO PUSH2 0x557 JUMPI DUP3 DUP8 ADD CALLDATALOAD SWAP1 POP JUMPDEST PUSH2 0x561 DUP6 DUP3 PUSH2 0x4E6 JUMP JUMPDEST DUP7 SSTORE POP PUSH2 0x5C9 JUMP JUMPDEST PUSH1 0x1F NOT DUP5 AND PUSH2 0x577 DUP7 PUSH2 0x34C JUMP JUMPDEST PUSH1 0x0 JUMPDEST DUP3 DUP2 LT ISZERO PUSH2 0x59F JUMPI DUP5 DUP10 ADD CALLDATALOAD DUP3 SSTORE PUSH1 0x1 DUP3 ADD SWAP2 POP PUSH1 0x20 DUP6 ADD SWAP5 POP PUSH1 0x20 DUP2 ADD SWAP1 POP PUSH2 0x57A JUMP JUMPDEST DUP7 DUP4 LT ISZERO PUSH2 0x5BC JUMPI DUP5 DUP10 ADD CALLDATALOAD PUSH2 0x5B8 PUSH1 0x1F DUP10 AND DUP3 PUSH2 0x4C8 JUMP JUMPDEST DUP4 SSTORE POP JUMPDEST PUSH1 0x1 PUSH1 0x2 DUP9 MUL ADD DUP9 SSTORE POP POP POP JUMPDEST POP POP POP POP POP POP POP JUMP JUMPDEST PUSH1 0x0 DUP2 MLOAD SWAP1 POP SWAP2 SWAP1 POP JUMP JUMPDEST PUSH2 0x5E6 DUP3 PUSH2 0x5D2 JUMP JUMPDEST PUSH8 0xFFFFFFFFFFFFFFFF DUP2 GT ISZERO PUSH2 0x5FF JUMPI PUSH2 0x5FE PUSH2 0x13A JUMP JUMPDEST JUMPDEST PUSH2 0x609 DUP3 SLOAD PUSH2 0x31B JUMP JUMPDEST PUSH2 0x614 DUP3 DUP3 DUP6 PUSH2 0x475 JUMP JUMPDEST PUSH1 0x0 PUSH1 0x20 SWAP1 POP PUSH1 0x1F DUP4 GT PUSH1 0x1 DUP2 EQ PUSH2 0x647 JUMPI PUSH1 0x0 DUP5 ISZERO PUSH2 0x635 JUMPI DUP3 DUP8 ADD MLOAD SWAP1 POP JUMPDEST PUSH2 0x63F DUP6 DUP3 PUSH2 0x4E6 JUMP JUMPDEST DUP7 SSTORE POP PUSH2 0x6A7 JUMP JUMPDEST PUSH1 0x1F NOT DUP5 AND PUSH2 0x655 DUP7 PUSH2 0x34C JUMP JUMPDEST PUSH1 0x0 JUMPDEST DUP3 DUP2 LT ISZERO PUSH2 0x67D JUMPI DUP5 DUP10 ADD MLOAD DUP3 SSTORE PUSH1 0x1 DUP3 ADD SWAP2 POP PUSH1 0x20 DUP6 ADD SWAP5 POP PUSH1 0x20 DUP2 ADD SWAP1 POP PUSH2 0x658 JUMP JUMPDEST DUP7 DUP4 LT ISZERO PUSH2 0x69A JUMPI DUP5 DUP10 ADD MLOAD PUSH2 0x696 PUSH1 0x1F DUP10 AND DUP3 PUSH2 0x4C8 JUMP JUMPDEST DUP4 SSTORE POP JUMPDEST PUSH1 0x1 PUSH1 0x2 DUP9 MUL ADD DUP9 SSTORE POP POP POP JUMPDEST POP POP POP POP POP POP JUMP INVALID LOG2 PUSH5 0x6970667358 0x22 SLT KECCAK256 DUP11 PREVRANDAO DUP9 0xC2 0xD1 0x2D BASEFEE 0xBE DUP6 INVALID CODESIZE 0xD3 ISZERO ADDMOD PUSH30 0xCAE331E68BA95B533E607FD1012023AB7A64736F6C634300081300330000 "
				},
				"gasEstimates": {
					"creation": {
						"codeDepositCost": "353000",
						"executionCost": "393",
						"totalCost": "353393"
					},
					"external": {
						"changeNameAndSurname(string,string)": "infinite"
					}
				},
				"methodIdentifiers": {
					"changeNameAndSurname(string,string)": "9a0f3aca"
				}
			},
			"storageLayout": {
				"storage": [
					{
						"astId": 3,
						"contract": "Cyfrin Updraft Challenge/1.09.sol:DataLocations",
						"label": "name",
						"offset": 0,
						"slot": "0",
						"type": "t_string_storage"
					},
					{
						"astId": 5,
						"contract": "Cyfrin Updraft Challenge/1.09.sol:DataLocations",
						"label": "surname",
						"offset": 0,
						"slot": "1",
						"type": "t_string_storage"
					}
				],
				"types": {
					"t_string_storage": {
						"encoding": "bytes",
						"label": "string",
						"numberOfBytes": "32"
					}
				}
			},
			"userdoc": {
				"kind": "user",
				"methods": {},
				"version": 1
			}
		}
	}
}