{
	"Cyfrin Updraft Challenge/1.8.sol": {
		"DataLocations": {
			"abi": [
				{
					"inputs": [
						{
							"internalType": "string",
							"name": "_name",
							"type": "string"
						},
						{
							"internalType": "string",
							"name": "_surname",
							"type": "string"
						}
					],
					"name": "changeNameAndSurname",
					"outputs": [],
					"stateMutability": "nonpayable",
					"type": "function"
				}
			],
			"devdoc": {
				"kind": "dev",
				"methods": {},
				"version": 1
			},
			"evm": {
				"assembly": "    /* \"Cyfrin Updraft Challenge/1.8.sol\":61:310  contract DataLocations{... */\n  mstore(0x40, 0x80)\n  callvalue\n  dup1\n  iszero\n  tag_1\n  jumpi\n  revert(0x00, 0x00)\ntag_1:\n  pop\n  dataSize(sub_0)\n  dup1\n  dataOffset(sub_0)\n  0x00\n  codecopy\n  0x00\n  return\nstop\n\nsub_0: assembly {\n        /* \"Cyfrin Updraft Challenge/1.8.sol\":61:310  contract DataLocations{... */\n      mstore(0x40, 0x80)\n      callvalue\n      dup1\n      iszero\n      tag_1\n      jumpi\n      revert(0x00, 0x00)\n    tag_1:\n      pop\n      jumpi(tag_2, lt(calldatasize, 0x04))\n      shr(0xe0, calldataload(0x00))\n      dup1\n      0x9a0f3aca\n      eq\n      tag_3\n      jumpi\n    tag_2:\n      revert(0x00, 0x00)\n        /* \"Cyfrin Updraft Challenge/1.8.sol\":131:307  function changeNameAndSurname(string calldata _name, string memory _surname) public{... */\n    tag_3:\n      tag_4\n      0x04\n      dup1\n      calldatasize\n      sub\n      dup2\n      add\n      swap1\n      tag_5\n      swap2\n      swap1\n      tag_6\n      jump\t// in\n    tag_5:\n      tag_7\n      jump\t// in\n    tag_4:\n      stop\n    tag_7:\n        /* \"Cyfrin Updraft Challenge/1.8.sol\":232:237  _name */\n      dup3\n      dup3\n        /* \"Cyfrin Updraft Challenge/1.8.sol\":225:229  name */\n      0x00\n        /* \"Cyfrin Updraft Challenge/1.8.sol\":225:237  name = _name */\n      swap2\n      dup3\n      tag_9\n      swap3\n      swap2\n      swap1\n      tag_10\n      jump\t// in\n    tag_9:\n      pop\n        /* \"Cyfrin Updraft Challenge/1.8.sol\":249:268  _surname = 'Deacon' */\n      mload(0x40)\n      dup1\n      0x40\n      add\n      0x40\n      mstore\n      dup1\n      0x06\n      dup2\n      mstore\n      0x20\n      add\n      0x446561636f6e0000000000000000000000000000000000000000000000000000\n      dup2\n      mstore\n      pop\n      swap1\n      pop\n        /* \"Cyfrin Updraft Challenge/1.8.sol\":290:298  _surname */\n      dup1\n        /* \"Cyfrin Updraft Challenge/1.8.sol\":280:287  surname */\n      0x01\n        /* \"Cyfrin Updraft Challenge/1.8.sol\":280:298  surname = _surname */\n      swap1\n      dup2\n      tag_11\n      swap2\n      swap1\n      tag_12\n      jump\t// in\n    tag_11:\n      pop\n        /* \"Cyfrin Updraft Challenge/1.8.sol\":131:307  function changeNameAndSurname(string calldata _name, string memory _surname) public{... */\n      pop\n      pop\n      pop\n      jump\t// out\n        /* \"#utility.yul\":7:82   */\n    tag_13:\n        /* \"#utility.yul\":40:46   */\n      0x00\n        /* \"#utility.yul\":73:75   */\n      0x40\n        /* \"#utility.yul\":67:76   */\n      mload\n        /* \"#utility.yul\":57:76   */\n      swap1\n      pop\n        /* \"#utility.yul\":7:82   */\n      swap1\n      jump\t// out\n        /* \"#utility.yul\":88:205   */\n    tag_14:\n        /* \"#utility.yul\":197:198   */\n      0x00\n        /* \"#utility.yul\":194:195   */\n      0x00\n        /* \"#utility.yul\":187:199   */\n      revert\n        /* \"#utility.yul\":211:328   */\n    tag_15:\n        /* \"#utility.yul\":320:321   */\n      0x00\n        /* \"#utility.yul\":317:318   */\n      0x00\n        /* \"#utility.yul\":310:322   */\n      revert\n        /* \"#utility.yul\":334:451   */\n    tag_16:\n        /* \"#utility.yul\":443:444   */\n      0x00\n        /* \"#utility.yul\":440:441   */\n      0x00\n        /* \"#utility.yul\":433:445   */\n      revert\n        /* \"#utility.yul\":457:574   */\n    tag_17:\n        /* \"#utility.yul\":566:567   */\n      0x00\n        /* \"#utility.yul\":563:564   */\n      0x00\n        /* \"#utility.yul\":556:568   */\n      revert\n        /* \"#utility.yul\":580:697   */\n    tag_18:\n        /* \"#utility.yul\":689:690   */\n      0x00\n        /* \"#utility.yul\":686:687   */\n      0x00\n        /* \"#utility.yul\":679:691   */\n      revert\n        /* \"#utility.yul\":717:1270   */\n    tag_19:\n        /* \"#utility.yul\":775:783   */\n      0x00\n        /* \"#utility.yul\":785:791   */\n      0x00\n        /* \"#utility.yul\":835:838   */\n      dup4\n        /* \"#utility.yul\":828:832   */\n      0x1f\n        /* \"#utility.yul\":820:826   */\n      dup5\n        /* \"#utility.yul\":816:833   */\n      add\n        /* \"#utility.yul\":812:839   */\n      slt\n        /* \"#utility.yul\":802:924   */\n      tag_57\n      jumpi\n        /* \"#utility.yul\":843:922   */\n      tag_58\n      tag_16\n      jump\t// in\n    tag_58:\n        /* \"#utility.yul\":802:924   */\n    tag_57:\n        /* \"#utility.yul\":956:962   */\n      dup3\n        /* \"#utility.yul\":943:963   */\n      calldataload\n        /* \"#utility.yul\":933:963   */\n      swap1\n      pop\n        /* \"#utility.yul\":986:1004   */\n      0xffffffffffffffff\n        /* \"#utility.yul\":978:984   */\n      dup2\n        /* \"#utility.yul\":975:1005   */\n      gt\n        /* \"#utility.yul\":972:1089   */\n      iszero\n      tag_59\n      jumpi\n        /* \"#utility.yul\":1008:1087   */\n      tag_60\n      tag_17\n      jump\t// in\n    tag_60:\n        /* \"#utility.yul\":972:1089   */\n    tag_59:\n        /* \"#utility.yul\":1122:1126   */\n      0x20\n        /* \"#utility.yul\":1114:1120   */\n      dup4\n        /* \"#utility.yul\":1110:1127   */\n      add\n        /* \"#utility.yul\":1098:1127   */\n      swap2\n      pop\n        /* \"#utility.yul\":1176:1179   */\n      dup4\n        /* \"#utility.yul\":1168:1172   */\n      0x01\n        /* \"#utility.yul\":1160:1166   */\n      dup3\n        /* \"#utility.yul\":1156:1173   */\n      mul\n        /* \"#utility.yul\":1146:1154   */\n      dup4\n        /* \"#utility.yul\":1142:1174   */\n      add\n        /* \"#utility.yul\":1139:1180   */\n      gt\n        /* \"#utility.yul\":1136:1264   */\n      iszero\n      tag_61\n      jumpi\n        /* \"#utility.yul\":1183:1262   */\n      tag_62\n      tag_18\n      jump\t// in\n    tag_62:\n        /* \"#utility.yul\":1136:1264   */\n    tag_61:\n        /* \"#utility.yul\":717:1270   */\n      swap3\n      pop\n      swap3\n      swap1\n      pop\n      jump\t// out\n        /* \"#utility.yul\":1276:1393   */\n    tag_20:\n        /* \"#utility.yul\":1385:1386   */\n      0x00\n        /* \"#utility.yul\":1382:1383   */\n      0x00\n        /* \"#utility.yul\":1375:1387   */\n      revert\n        /* \"#utility.yul\":1399:1501   */\n    tag_21:\n        /* \"#utility.yul\":1440:1446   */\n      0x00\n        /* \"#utility.yul\":1491:1493   */\n      0x1f\n        /* \"#utility.yul\":1487:1494   */\n      not\n        /* \"#utility.yul\":1482:1484   */\n      0x1f\n        /* \"#utility.yul\":1475:1480   */\n      dup4\n        /* \"#utility.yul\":1471:1485   */\n      add\n        /* \"#utility.yul\":1467:1495   */\n      and\n        /* \"#utility.yul\":1457:1495   */\n      swap1\n      pop\n        /* \"#utility.yul\":1399:1501   */\n      swap2\n      swap1\n      pop\n      jump\t// out\n        /* \"#utility.yul\":1507:1687   */\n    tag_22:\n        /* \"#utility.yul\":1555:1632   */\n      0x4e487b7100000000000000000000000000000000000000000000000000000000\n        /* \"#utility.yul\":1552:1553   */\n      0x00\n        /* \"#utility.yul\":1545:1633   */\n      mstore\n        /* \"#utility.yul\":1652:1656   */\n      0x41\n        /* \"#utility.yul\":1649:1650   */\n      0x04\n        /* \"#utility.yul\":1642:1657   */\n      mstore\n        /* \"#utility.yul\":1676:1680   */\n      0x24\n        /* \"#utility.yul\":1673:1674   */\n      0x00\n        /* \"#utility.yul\":1666:1681   */\n      revert\n        /* \"#utility.yul\":1693:1974   */\n    tag_23:\n        /* \"#utility.yul\":1776:1803   */\n      tag_67\n        /* \"#utility.yul\":1798:1802   */\n      dup3\n        /* \"#utility.yul\":1776:1803   */\n      tag_21\n      jump\t// in\n    tag_67:\n        /* \"#utility.yul\":1768:1774   */\n      dup2\n        /* \"#utility.yul\":1764:1804   */\n      add\n        /* \"#utility.yul\":1906:1912   */\n      dup2\n        /* \"#utility.yul\":1894:1904   */\n      dup2\n        /* \"#utility.yul\":1891:1913   */\n      lt\n        /* \"#utility.yul\":1870:1888   */\n      0xffffffffffffffff\n        /* \"#utility.yul\":1858:1868   */\n      dup3\n        /* \"#utility.yul\":1855:1889   */\n      gt\n        /* \"#utility.yul\":1852:1914   */\n      or\n        /* \"#utility.yul\":1849:1937   */\n      iszero\n      tag_68\n      jumpi\n        /* \"#utility.yul\":1917:1935   */\n      tag_69\n      tag_22\n      jump\t// in\n    tag_69:\n        /* \"#utility.yul\":1849:1937   */\n    tag_68:\n        /* \"#utility.yul\":1957:1967   */\n      dup1\n        /* \"#utility.yul\":1953:1955   */\n      0x40\n        /* \"#utility.yul\":1946:1968   */\n      mstore\n        /* \"#utility.yul\":1736:1974   */\n      pop\n        /* \"#utility.yul\":1693:1974   */\n      pop\n      pop\n      jump\t// out\n        /* \"#utility.yul\":1980:2109   */\n    tag_24:\n        /* \"#utility.yul\":2014:2020   */\n      0x00\n        /* \"#utility.yul\":2041:2061   */\n      tag_71\n      tag_13\n      jump\t// in\n    tag_71:\n        /* \"#utility.yul\":2031:2061   */\n      swap1\n      pop\n        /* \"#utility.yul\":2070:2103   */\n      tag_72\n        /* \"#utility.yul\":2098:2102   */\n      dup3\n        /* \"#utility.yul\":2090:2096   */\n      dup3\n        /* \"#utility.yul\":2070:2103   */\n      tag_23\n      jump\t// in\n    tag_72:\n        /* \"#utility.yul\":1980:2109   */\n      swap2\n      swap1\n      pop\n      jump\t// out\n        /* \"#utility.yul\":2115:2423   */\n    tag_25:\n        /* \"#utility.yul\":2177:2181   */\n      0x00\n        /* \"#utility.yul\":2267:2285   */\n      0xffffffffffffffff\n        /* \"#utility.yul\":2259:2265   */\n      dup3\n        /* \"#utility.yul\":2256:2286   */\n      gt\n        /* \"#utility.yul\":2253:2309   */\n      iszero\n      tag_74\n      jumpi\n        /* \"#utility.yul\":2289:2307   */\n      tag_75\n      tag_22\n      jump\t// in\n    tag_75:\n        /* \"#utility.yul\":2253:2309   */\n    tag_74:\n        /* \"#utility.yul\":2327:2356   */\n      tag_76\n        /* \"#utility.yul\":2349:2355   */\n      dup3\n        /* \"#utility.yul\":2327:2356   */\n      tag_21\n      jump\t// in\n    tag_76:\n        /* \"#utility.yul\":2319:2356   */\n      swap1\n      pop\n        /* \"#utility.yul\":2411:2415   */\n      0x20\n        /* \"#utility.yul\":2405:2409   */\n      dup2\n        /* \"#utility.yul\":2401:2416   */\n      add\n        /* \"#utility.yul\":2393:2416   */\n      swap1\n      pop\n        /* \"#utility.yul\":2115:2423   */\n      swap2\n      swap1\n      pop\n      jump\t// out\n        /* \"#utility.yul\":2429:2577   */\n    tag_26:\n        /* \"#utility.yul\":2527:2533   */\n      dup3\n        /* \"#utility.yul\":2522:2525   */\n      dup2\n        /* \"#utility.yul\":2517:2520   */\n      dup4\n        /* \"#utility.yul\":2504:2534   */\n      calldatacopy\n        /* \"#utility.yul\":2568:2569   */\n      0x00\n        /* \"#utility.yul\":2559:2565   */\n      dup4\n        /* \"#utility.yul\":2554:2557   */\n      dup4\n        /* \"#utility.yul\":2550:2566   */\n      add\n        /* \"#utility.yul\":2543:2570   */\n      mstore\n        /* \"#utility.yul\":2429:2577   */\n      pop\n      pop\n      pop\n      jump\t// out\n        /* \"#utility.yul\":2583:3008   */\n    tag_27:\n        /* \"#utility.yul\":2661:2666   */\n      0x00\n        /* \"#utility.yul\":2686:2752   */\n      tag_79\n        /* \"#utility.yul\":2702:2751   */\n      tag_80\n        /* \"#utility.yul\":2744:2750   */\n      dup5\n        /* \"#utility.yul\":2702:2751   */\n      tag_25\n      jump\t// in\n    tag_80:\n        /* \"#utility.yul\":2686:2752   */\n      tag_24\n      jump\t// in\n    tag_79:\n        /* \"#utility.yul\":2677:2752   */\n      swap1\n      pop\n        /* \"#utility.yul\":2775:2781   */\n      dup3\n        /* \"#utility.yul\":2768:2773   */\n      dup2\n        /* \"#utility.yul\":2761:2782   */\n      mstore\n        /* \"#utility.yul\":2813:2817   */\n      0x20\n        /* \"#utility.yul\":2806:2811   */\n      dup2\n        /* \"#utility.yul\":2802:2818   */\n      add\n        /* \"#utility.yul\":2851:2854   */\n      dup5\n        /* \"#utility.yul\":2842:2848   */\n      dup5\n        /* \"#utility.yul\":2837:2840   */\n      dup5\n        /* \"#utility.yul\":2833:2849   */\n      add\n        /* \"#utility.yul\":2830:2855   */\n      gt\n        /* \"#utility.yul\":2827:2939   */\n      iszero\n      tag_81\n      jumpi\n        /* \"#utility.yul\":2858:2937   */\n      tag_82\n      tag_20\n      jump\t// in\n    tag_82:\n        /* \"#utility.yul\":2827:2939   */\n    tag_81:\n        /* \"#utility.yul\":2948:3002   */\n      tag_83\n        /* \"#utility.yul\":2995:3001   */\n      dup5\n        /* \"#utility.yul\":2990:2993   */\n      dup3\n        /* \"#utility.yul\":2985:2988   */\n      dup6\n        /* \"#utility.yul\":2948:3002   */\n      tag_26\n      jump\t// in\n    tag_83:\n        /* \"#utility.yul\":2667:3008   */\n      pop\n        /* \"#utility.yul\":2583:3008   */\n      swap4\n      swap3\n      pop\n      pop\n      pop\n      jump\t// out\n        /* \"#utility.yul\":3028:3368   */\n    tag_28:\n        /* \"#utility.yul\":3084:3089   */\n      0x00\n        /* \"#utility.yul\":3133:3136   */\n      dup3\n        /* \"#utility.yul\":3126:3130   */\n      0x1f\n        /* \"#utility.yul\":3118:3124   */\n      dup4\n        /* \"#utility.yul\":3114:3131   */\n      add\n        /* \"#utility.yul\":3110:3137   */\n      slt\n        /* \"#utility.yul\":3100:3222   */\n      tag_85\n      jumpi\n        /* \"#utility.yul\":3141:3220   */\n      tag_86\n      tag_16\n      jump\t// in\n    tag_86:\n        /* \"#utility.yul\":3100:3222   */\n    tag_85:\n        /* \"#utility.yul\":3258:3264   */\n      dup2\n        /* \"#utility.yul\":3245:3265   */\n      calldataload\n        /* \"#utility.yul\":3283:3362   */\n      tag_87\n        /* \"#utility.yul\":3358:3361   */\n      dup5\n        /* \"#utility.yul\":3350:3356   */\n      dup3\n        /* \"#utility.yul\":3343:3347   */\n      0x20\n        /* \"#utility.yul\":3335:3341   */\n      dup7\n        /* \"#utility.yul\":3331:3348   */\n      add\n        /* \"#utility.yul\":3283:3362   */\n      tag_27\n      jump\t// in\n    tag_87:\n        /* \"#utility.yul\":3274:3362   */\n      swap2\n      pop\n        /* \"#utility.yul\":3090:3368   */\n      pop\n        /* \"#utility.yul\":3028:3368   */\n      swap3\n      swap2\n      pop\n      pop\n      jump\t// out\n        /* \"#utility.yul\":3374:4228   */\n    tag_6:\n        /* \"#utility.yul\":3464:3470   */\n      0x00\n        /* \"#utility.yul\":3472:3478   */\n      0x00\n        /* \"#utility.yul\":3480:3486   */\n      0x00\n        /* \"#utility.yul\":3529:3531   */\n      0x40\n        /* \"#utility.yul\":3517:3526   */\n      dup5\n        /* \"#utility.yul\":3508:3515   */\n      dup7\n        /* \"#utility.yul\":3504:3527   */\n      sub\n        /* \"#utility.yul\":3500:3532   */\n      slt\n        /* \"#utility.yul\":3497:3616   */\n      iszero\n      tag_89\n      jumpi\n        /* \"#utility.yul\":3535:3614   */\n      tag_90\n      tag_14\n      jump\t// in\n    tag_90:\n        /* \"#utility.yul\":3497:3616   */\n    tag_89:\n        /* \"#utility.yul\":3683:3684   */\n      0x00\n        /* \"#utility.yul\":3672:3681   */\n      dup5\n        /* \"#utility.yul\":3668:3685   */\n      add\n        /* \"#utility.yul\":3655:3686   */\n      calldataload\n        /* \"#utility.yul\":3713:3731   */\n      0xffffffffffffffff\n        /* \"#utility.yul\":3705:3711   */\n      dup2\n        /* \"#utility.yul\":3702:3732   */\n      gt\n        /* \"#utility.yul\":3699:3816   */\n      iszero\n      tag_91\n      jumpi\n        /* \"#utility.yul\":3735:3814   */\n      tag_92\n      tag_15\n      jump\t// in\n    tag_92:\n        /* \"#utility.yul\":3699:3816   */\n    tag_91:\n        /* \"#utility.yul\":3848:3913   */\n      tag_93\n        /* \"#utility.yul\":3905:3912   */\n      dup7\n        /* \"#utility.yul\":3896:3902   */\n      dup3\n        /* \"#utility.yul\":3885:3894   */\n      dup8\n        /* \"#utility.yul\":3881:3903   */\n      add\n        /* \"#utility.yul\":3848:3913   */\n      tag_19\n      jump\t// in\n    tag_93:\n        /* \"#utility.yul\":3830:3913   */\n      swap4\n      pop\n      swap4\n      pop\n        /* \"#utility.yul\":3626:3923   */\n      pop\n        /* \"#utility.yul\":3990:3992   */\n      0x20\n        /* \"#utility.yul\":3979:3988   */\n      dup5\n        /* \"#utility.yul\":3975:3993   */\n      add\n        /* \"#utility.yul\":3962:3994   */\n      calldataload\n        /* \"#utility.yul\":4021:4039   */\n      0xffffffffffffffff\n        /* \"#utility.yul\":4013:4019   */\n      dup2\n        /* \"#utility.yul\":4010:4040   */\n      gt\n        /* \"#utility.yul\":4007:4124   */\n      iszero\n      tag_94\n      jumpi\n        /* \"#utility.yul\":4043:4122   */\n      tag_95\n      tag_15\n      jump\t// in\n    tag_95:\n        /* \"#utility.yul\":4007:4124   */\n    tag_94:\n        /* \"#utility.yul\":4148:4211   */\n      tag_96\n        /* \"#utility.yul\":4203:4210   */\n      dup7\n        /* \"#utility.yul\":4194:4200   */\n      dup3\n        /* \"#utility.yul\":4183:4192   */\n      dup8\n        /* \"#utility.yul\":4179:4201   */\n      add\n        /* \"#utility.yul\":4148:4211   */\n      tag_28\n      jump\t// in\n    tag_96:\n        /* \"#utility.yul\":4138:4211   */\n      swap2\n      pop\n        /* \"#utility.yul\":3933:4221   */\n      pop\n        /* \"#utility.yul\":3374:4228   */\n      swap3\n      pop\n      swap3\n      pop\n      swap3\n      jump\t// out\n        /* \"#utility.yul\":4234:4331   */\n    tag_29:\n        /* \"#utility.yul\":4293:4299   */\n      0x00\n        /* \"#utility.yul\":4321:4324   */\n      dup3\n        /* \"#utility.yul\":4311:4324   */\n      swap1\n      pop\n        /* \"#utility.yul\":4234:4331   */\n      swap3\n      swap2\n      pop\n      pop\n      jump\t// out\n        /* \"#utility.yul\":4337:4517   */\n    tag_30:\n        /* \"#utility.yul\":4385:4462   */\n      0x4e487b7100000000000000000000000000000000000000000000000000000000\n        /* \"#utility.yul\":4382:4383   */\n      0x00\n        /* \"#utility.yul\":4375:4463   */\n      mstore\n        /* \"#utility.yul\":4482:4486   */\n      0x22\n        /* \"#utility.yul\":4479:4480   */\n      0x04\n        /* \"#utility.yul\":4472:4487   */\n      mstore\n        /* \"#utility.yul\":4506:4510   */\n      0x24\n        /* \"#utility.yul\":4503:4504   */\n      0x00\n        /* \"#utility.yul\":4496:4511   */\n      revert\n        /* \"#utility.yul\":4523:4843   */\n    tag_31:\n        /* \"#utility.yul\":4567:4573   */\n      0x00\n        /* \"#utility.yul\":4604:4605   */\n      0x02\n        /* \"#utility.yul\":4598:4602   */\n      dup3\n        /* \"#utility.yul\":4594:4606   */\n      div\n        /* \"#utility.yul\":4584:4606   */\n      swap1\n      pop\n        /* \"#utility.yul\":4651:4652   */\n      0x01\n        /* \"#utility.yul\":4645:4649   */\n      dup3\n        /* \"#utility.yul\":4641:4653   */\n      and\n        /* \"#utility.yul\":4672:4690   */\n      dup1\n        /* \"#utility.yul\":4662:4743   */\n      tag_100\n      jumpi\n        /* \"#utility.yul\":4728:4732   */\n      0x7f\n        /* \"#utility.yul\":4720:4726   */\n      dup3\n        /* \"#utility.yul\":4716:4733   */\n      and\n        /* \"#utility.yul\":4706:4733   */\n      swap2\n      pop\n        /* \"#utility.yul\":4662:4743   */\n    tag_100:\n        /* \"#utility.yul\":4790:4792   */\n      0x20\n        /* \"#utility.yul\":4782:4788   */\n      dup3\n        /* \"#utility.yul\":4779:4793   */\n      lt\n        /* \"#utility.yul\":4759:4777   */\n      dup2\n        /* \"#utility.yul\":4756:4794   */\n      sub\n        /* \"#utility.yul\":4753:4837   */\n      tag_101\n      jumpi\n        /* \"#utility.yul\":4809:4827   */\n      tag_102\n      tag_30\n      jump\t// in\n    tag_102:\n        /* \"#utility.yul\":4753:4837   */\n    tag_101:\n        /* \"#utility.yul\":4574:4843   */\n      pop\n        /* \"#utility.yul\":4523:4843   */\n      swap2\n      swap1\n      pop\n      jump\t// out\n        /* \"#utility.yul\":4849:4990   */\n    tag_32:\n        /* \"#utility.yul\":4898:4902   */\n      0x00\n        /* \"#utility.yul\":4921:4924   */\n      dup2\n        /* \"#utility.yul\":4913:4924   */\n      swap1\n      pop\n        /* \"#utility.yul\":4944:4947   */\n      dup2\n        /* \"#utility.yul\":4941:4942   */\n      0x00\n        /* \"#utility.yul\":4934:4948   */\n      mstore\n        /* \"#utility.yul\":4978:4982   */\n      0x20\n        /* \"#utility.yul\":4975:4976   */\n      0x00\n        /* \"#utility.yul\":4965:4983   */\n      keccak256\n        /* \"#utility.yul\":4957:4983   */\n      swap1\n      pop\n        /* \"#utility.yul\":4849:4990   */\n      swap2\n      swap1\n      pop\n      jump\t// out\n        /* \"#utility.yul\":4996:5089   */\n    tag_33:\n        /* \"#utility.yul\":5033:5039   */\n      0x00\n        /* \"#utility.yul\":5080:5082   */\n      0x20\n        /* \"#utility.yul\":5075:5077   */\n      0x1f\n        /* \"#utility.yul\":5068:5073   */\n      dup4\n        /* \"#utility.yul\":5064:5078   */\n      add\n        /* \"#utility.yul\":5060:5083   */\n      div\n        /* \"#utility.yul\":5050:5083   */\n      swap1\n      pop\n        /* \"#utility.yul\":4996:5089   */\n      swap2\n      swap1\n      pop\n      jump\t// out\n        /* \"#utility.yul\":5095:5202   */\n    tag_34:\n        /* \"#utility.yul\":5139:5147   */\n      0x00\n        /* \"#utility.yul\":5189:5194   */\n      dup3\n        /* \"#utility.yul\":5183:5187   */\n      dup3\n        /* \"#utility.yul\":5179:5195   */\n      shl\n        /* \"#utility.yul\":5158:5195   */\n      swap1\n      pop\n        /* \"#utility.yul\":5095:5202   */\n      swap3\n      swap2\n      pop\n      pop\n      jump\t// out\n        /* \"#utility.yul\":5208:5601   */\n    tag_35:\n        /* \"#utility.yul\":5277:5283   */\n      0x00\n        /* \"#utility.yul\":5327:5328   */\n      0x08\n        /* \"#utility.yul\":5315:5325   */\n      dup4\n        /* \"#utility.yul\":5311:5329   */\n      mul\n        /* \"#utility.yul\":5350:5447   */\n      tag_107\n        /* \"#utility.yul\":5380:5446   */\n      0xffffffffffffffffffffffffffffffffffffffffffffffffffffffffffffffff\n        /* \"#utility.yul\":5369:5378   */\n      dup3\n        /* \"#utility.yul\":5350:5447   */\n      tag_34\n      jump\t// in\n    tag_107:\n        /* \"#utility.yul\":5468:5507   */\n      tag_108\n        /* \"#utility.yul\":5498:5506   */\n      dup7\n        /* \"#utility.yul\":5487:5496   */\n      dup4\n        /* \"#utility.yul\":5468:5507   */\n      tag_34\n      jump\t// in\n    tag_108:\n        /* \"#utility.yul\":5456:5507   */\n      swap6\n      pop\n        /* \"#utility.yul\":5540:5544   */\n      dup1\n        /* \"#utility.yul\":5536:5545   */\n      not\n        /* \"#utility.yul\":5529:5534   */\n      dup5\n        /* \"#utility.yul\":5525:5546   */\n      and\n        /* \"#utility.yul\":5516:5546   */\n      swap4\n      pop\n        /* \"#utility.yul\":5589:5593   */\n      dup1\n        /* \"#utility.yul\":5579:5587   */\n      dup7\n        /* \"#utility.yul\":5575:5594   */\n      and\n        /* \"#utility.yul\":5568:5573   */\n      dup5\n        /* \"#utility.yul\":5565:5595   */\n      or\n        /* \"#utility.yul\":5555:5595   */\n      swap3\n      pop\n        /* \"#utility.yul\":5284:5601   */\n      pop\n      pop\n        /* \"#utility.yul\":5208:5601   */\n      swap4\n      swap3\n      pop\n      pop\n      pop\n      jump\t// out\n        /* \"#utility.yul\":5607:5684   */\n    tag_36:\n        /* \"#utility.yul\":5644:5651   */\n      0x00\n        /* \"#utility.yul\":5673:5678   */\n      dup2\n        /* \"#utility.yul\":5662:5678   */\n      swap1\n      pop\n        /* \"#utility.yul\":5607:5684   */\n      swap2\n      swap1\n      pop\n      jump\t// out\n        /* \"#utility.yul\":5690:5750   */\n    tag_37:\n        /* \"#utility.yul\":5718:5721   */\n      0x00\n        /* \"#utility.yul\":5739:5744   */\n      dup2\n        /* \"#utility.yul\":5732:5744   */\n      swap1\n      pop\n        /* \"#utility.yul\":5690:5750   */\n      swap2\n      swap1\n      pop\n      jump\t// out\n        /* \"#utility.yul\":5756:5898   */\n    tag_38:\n        /* \"#utility.yul\":5806:5815   */\n      0x00\n        /* \"#utility.yul\":5839:5892   */\n      tag_112\n        /* \"#utility.yul\":5857:5891   */\n      tag_113\n        /* \"#utility.yul\":5866:5890   */\n      tag_114\n        /* \"#utility.yul\":5884:5889   */\n      dup5\n        /* \"#utility.yul\":5866:5890   */\n      tag_36\n      jump\t// in\n    tag_114:\n        /* \"#utility.yul\":5857:5891   */\n      tag_37\n      jump\t// in\n    tag_113:\n        /* \"#utility.yul\":5839:5892   */\n      tag_36\n      jump\t// in\n    tag_112:\n        /* \"#utility.yul\":5826:5892   */\n      swap1\n      pop\n        /* \"#utility.yul\":5756:5898   */\n      swap2\n      swap1\n      pop\n      jump\t// out\n        /* \"#utility.yul\":5904:5979   */\n    tag_39:\n        /* \"#utility.yul\":5947:5950   */\n      0x00\n        /* \"#utility.yul\":5968:5973   */\n      dup2\n        /* \"#utility.yul\":5961:5973   */\n      swap1\n      pop\n        /* \"#utility.yul\":5904:5979   */\n      swap2\n      swap1\n      pop\n      jump\t// out\n        /* \"#utility.yul\":5985:6254   */\n    tag_40:\n        /* \"#utility.yul\":6095:6134   */\n      tag_117\n        /* \"#utility.yul\":6126:6133   */\n      dup4\n        /* \"#utility.yul\":6095:6134   */\n      tag_38\n      jump\t// in\n    tag_117:\n        /* \"#utility.yul\":6156:6247   */\n      tag_118\n        /* \"#utility.yul\":6205:6246   */\n      tag_119\n        /* \"#utility.yul\":6229:6245   */\n      dup3\n        /* \"#utility.yul\":6205:6246   */\n      tag_39\n      jump\t// in\n    tag_119:\n        /* \"#utility.yul\":6197:6203   */\n      dup5\n        /* \"#utility.yul\":6190:6194   */\n      dup5\n        /* \"#utility.yul\":6184:6195   */\n      sload\n        /* \"#utility.yul\":6156:6247   */\n      tag_35\n      jump\t// in\n    tag_118:\n        /* \"#utility.yul\":6150:6154   */\n      dup3\n        /* \"#utility.yul\":6143:6248   */\n      sstore\n        /* \"#utility.yul\":6061:6254   */\n      pop\n        /* \"#utility.yul\":5985:6254   */\n      pop\n      pop\n      pop\n      jump\t// out\n        /* \"#utility.yul\":6260:6333   */\n    tag_41:\n        /* \"#utility.yul\":6305:6308   */\n      0x00\n        /* \"#utility.yul\":6326:6327   */\n      0x00\n        /* \"#utility.yul\":6319:6327   */\n      swap1\n      pop\n        /* \"#utility.yul\":6260:6333   */\n      swap1\n      jump\t// out\n        /* \"#utility.yul\":6339:6528   */\n    tag_42:\n        /* \"#utility.yul\":6416:6448   */\n      tag_122\n      tag_41\n      jump\t// in\n    tag_122:\n        /* \"#utility.yul\":6457:6522   */\n      tag_123\n        /* \"#utility.yul\":6515:6521   */\n      dup2\n        /* \"#utility.yul\":6507:6513   */\n      dup5\n        /* \"#utility.yul\":6501:6505   */\n      dup5\n        /* \"#utility.yul\":6457:6522   */\n      tag_40\n      jump\t// in\n    tag_123:\n        /* \"#utility.yul\":6392:6528   */\n      pop\n        /* \"#utility.yul\":6339:6528   */\n      pop\n      pop\n      jump\t// out\n        /* \"#utility.yul\":6534:6720   */\n    tag_43:\n        /* \"#utility.yul\":6594:6714   */\n    tag_125:\n        /* \"#utility.yul\":6611:6614   */\n      dup2\n        /* \"#utility.yul\":6604:6609   */\n      dup2\n        /* \"#utility.yul\":6601:6615   */\n      lt\n        /* \"#utility.yul\":6594:6714   */\n      iszero\n      tag_127\n      jumpi\n        /* \"#utility.yul\":6665:6704   */\n      tag_128\n        /* \"#utility.yul\":6702:6703   */\n      0x00\n        /* \"#utility.yul\":6695:6700   */\n      dup3\n        /* \"#utility.yul\":6665:6704   */\n      tag_42\n      jump\t// in\n    tag_128:\n        /* \"#utility.yul\":6638:6639   */\n      0x01\n        /* \"#utility.yul\":6631:6636   */\n      dup2\n        /* \"#utility.yul\":6627:6640   */\n      add\n        /* \"#utility.yul\":6618:6640   */\n      swap1\n      pop\n        /* \"#utility.yul\":6594:6714   */\n      jump(tag_125)\n    tag_127:\n        /* \"#utility.yul\":6534:6720   */\n      pop\n      pop\n      jump\t// out\n        /* \"#utility.yul\":6726:7269   */\n    tag_44:\n        /* \"#utility.yul\":6827:6829   */\n      0x1f\n        /* \"#utility.yul\":6822:6825   */\n      dup3\n        /* \"#utility.yul\":6819:6830   */\n      gt\n        /* \"#utility.yul\":6816:7262   */\n      iszero\n      tag_130\n      jumpi\n        /* \"#utility.yul\":6861:6899   */\n      tag_131\n        /* \"#utility.yul\":6893:6898   */\n      dup2\n        /* \"#utility.yul\":6861:6899   */\n      tag_32\n      jump\t// in\n    tag_131:\n        /* \"#utility.yul\":6945:6974   */\n      tag_132\n        /* \"#utility.yul\":6963:6973   */\n      dup5\n        /* \"#utility.yul\":6945:6974   */\n      tag_33\n      jump\t// in\n    tag_132:\n        /* \"#utility.yul\":6935:6943   */\n      dup2\n        /* \"#utility.yul\":6931:6975   */\n      add\n        /* \"#utility.yul\":7128:7130   */\n      0x20\n        /* \"#utility.yul\":7116:7126   */\n      dup6\n        /* \"#utility.yul\":7113:7131   */\n      lt\n        /* \"#utility.yul\":7110:7159   */\n      iszero\n      tag_133\n      jumpi\n        /* \"#utility.yul\":7149:7157   */\n      dup2\n        /* \"#utility.yul\":7134:7157   */\n      swap1\n      pop\n        /* \"#utility.yul\":7110:7159   */\n    tag_133:\n        /* \"#utility.yul\":7172:7252   */\n      tag_134\n        /* \"#utility.yul\":7228:7250   */\n      tag_135\n        /* \"#utility.yul\":7246:7249   */\n      dup6\n        /* \"#utility.yul\":7228:7250   */\n      tag_33\n      jump\t// in\n    tag_135:\n        /* \"#utility.yul\":7218:7226   */\n      dup4\n        /* \"#utility.yul\":7214:7251   */\n      add\n        /* \"#utility.yul\":7201:7212   */\n      dup3\n        /* \"#utility.yul\":7172:7252   */\n      tag_43\n      jump\t// in\n    tag_134:\n        /* \"#utility.yul\":6831:7262   */\n      pop\n      pop\n        /* \"#utility.yul\":6816:7262   */\n    tag_130:\n        /* \"#utility.yul\":6726:7269   */\n      pop\n      pop\n      pop\n      jump\t// out\n        /* \"#utility.yul\":7275:7392   */\n    tag_45:\n        /* \"#utility.yul\":7329:7337   */\n      0x00\n        /* \"#utility.yul\":7379:7384   */\n      dup3\n        /* \"#utility.yul\":7373:7377   */\n      dup3\n        /* \"#utility.yul\":7369:7385   */\n      shr\n        /* \"#utility.yul\":7348:7385   */\n      swap1\n      pop\n        /* \"#utility.yul\":7275:7392   */\n      swap3\n      swap2\n      pop\n      pop\n      jump\t// out\n        /* \"#utility.yul\":7398:7567   */\n    tag_46:\n        /* \"#utility.yul\":7442:7448   */\n      0x00\n        /* \"#utility.yul\":7475:7526   */\n      tag_138\n        /* \"#utility.yul\":7523:7524   */\n      0x00\n        /* \"#utility.yul\":7519:7525   */\n      not\n        /* \"#utility.yul\":7511:7516   */\n      dup5\n        /* \"#utility.yul\":7508:7509   */\n      0x08\n        /* \"#utility.yul\":7504:7517   */\n      mul\n        /* \"#utility.yul\":7475:7526   */\n      tag_45\n      jump\t// in\n    tag_138:\n        /* \"#utility.yul\":7471:7527   */\n      not\n        /* \"#utility.yul\":7556:7560   */\n      dup1\n        /* \"#utility.yul\":7550:7554   */\n      dup4\n        /* \"#utility.yul\":7546:7561   */\n      and\n        /* \"#utility.yul\":7536:7561   */\n      swap2\n      pop\n        /* \"#utility.yul\":7449:7567   */\n      pop\n        /* \"#utility.yul\":7398:7567   */\n      swap3\n      swap2\n      pop\n      pop\n      jump\t// out\n        /* \"#utility.yul\":7572:7867   */\n    tag_47:\n        /* \"#utility.yul\":7648:7652   */\n      0x00\n        /* \"#utility.yul\":7794:7823   */\n      tag_140\n        /* \"#utility.yul\":7819:7822   */\n      dup4\n        /* \"#utility.yul\":7813:7817   */\n      dup4\n        /* \"#utility.yul\":7794:7823   */\n      tag_46\n      jump\t// in\n    tag_140:\n        /* \"#utility.yul\":7786:7823   */\n      swap2\n      pop\n        /* \"#utility.yul\":7856:7859   */\n      dup3\n        /* \"#utility.yul\":7853:7854   */\n      0x02\n        /* \"#utility.yul\":7849:7860   */\n      mul\n        /* \"#utility.yul\":7843:7847   */\n      dup3\n        /* \"#utility.yul\":7840:7861   */\n      or\n        /* \"#utility.yul\":7832:7861   */\n      swap1\n      pop\n        /* \"#utility.yul\":7572:7867   */\n      swap3\n      swap2\n      pop\n      pop\n      jump\t// out\n        /* \"#utility.yul\":7872:9275   */\n    tag_10:\n        /* \"#utility.yul\":7996:8040   */\n      tag_142\n        /* \"#utility.yul\":8036:8039   */\n      dup4\n        /* \"#utility.yul\":8031:8034   */\n      dup4\n        /* \"#utility.yul\":7996:8040   */\n      tag_29\n      jump\t// in\n    tag_142:\n        /* \"#utility.yul\":8105:8123   */\n      0xffffffffffffffff\n        /* \"#utility.yul\":8097:8103   */\n      dup2\n        /* \"#utility.yul\":8094:8124   */\n      gt\n        /* \"#utility.yul\":8091:8147   */\n      iszero\n      tag_143\n      jumpi\n        /* \"#utility.yul\":8127:8145   */\n      tag_144\n      tag_22\n      jump\t// in\n    tag_144:\n        /* \"#utility.yul\":8091:8147   */\n    tag_143:\n        /* \"#utility.yul\":8171:8209   */\n      tag_145\n        /* \"#utility.yul\":8203:8207   */\n      dup3\n        /* \"#utility.yul\":8197:8208   */\n      sload\n        /* \"#utility.yul\":8171:8209   */\n      tag_31\n      jump\t// in\n    tag_145:\n        /* \"#utility.yul\":8256:8323   */\n      tag_146\n        /* \"#utility.yul\":8316:8322   */\n      dup3\n        /* \"#utility.yul\":8308:8314   */\n      dup3\n        /* \"#utility.yul\":8302:8306   */\n      dup6\n        /* \"#utility.yul\":8256:8323   */\n      tag_44\n      jump\t// in\n    tag_146:\n        /* \"#utility.yul\":8350:8351   */\n      0x00\n        /* \"#utility.yul\":8379:8381   */\n      0x1f\n        /* \"#utility.yul\":8371:8377   */\n      dup4\n        /* \"#utility.yul\":8368:8382   */\n      gt\n        /* \"#utility.yul\":8396:8397   */\n      0x01\n        /* \"#utility.yul\":8391:9023   */\n      dup2\n      eq\n      tag_148\n      jumpi\n        /* \"#utility.yul\":9067:9068   */\n      0x00\n        /* \"#utility.yul\":9084:9090   */\n      dup5\n        /* \"#utility.yul\":9081:9165   */\n      iszero\n      tag_149\n      jumpi\n        /* \"#utility.yul\":9140:9149   */\n      dup3\n        /* \"#utility.yul\":9135:9138   */\n      dup8\n        /* \"#utility.yul\":9131:9150   */\n      add\n        /* \"#utility.yul\":9118:9151   */\n      calldataload\n        /* \"#utility.yul\":9109:9151   */\n      swap1\n      pop\n        /* \"#utility.yul\":9081:9165   */\n    tag_149:\n        /* \"#utility.yul\":9191:9258   */\n      tag_150\n        /* \"#utility.yul\":9251:9257   */\n      dup6\n        /* \"#utility.yul\":9244:9249   */\n      dup3\n        /* \"#utility.yul\":9191:9258   */\n      tag_47\n      jump\t// in\n    tag_150:\n        /* \"#utility.yul\":9185:9189   */\n      dup7\n        /* \"#utility.yul\":9178:9259   */\n      sstore\n        /* \"#utility.yul\":9040:9269   */\n      pop\n        /* \"#utility.yul\":8361:9269   */\n      jump(tag_147)\n        /* \"#utility.yul\":8391:9023   */\n    tag_148:\n        /* \"#utility.yul\":8443:8447   */\n      0x1f\n        /* \"#utility.yul\":8439:8448   */\n      not\n        /* \"#utility.yul\":8431:8437   */\n      dup5\n        /* \"#utility.yul\":8427:8449   */\n      and\n        /* \"#utility.yul\":8477:8514   */\n      tag_151\n        /* \"#utility.yul\":8509:8513   */\n      dup7\n        /* \"#utility.yul\":8477:8514   */\n      tag_32\n      jump\t// in\n    tag_151:\n        /* \"#utility.yul\":8536:8537   */\n      0x00\n        /* \"#utility.yul\":8550:8765   */\n    tag_152:\n        /* \"#utility.yul\":8564:8571   */\n      dup3\n        /* \"#utility.yul\":8561:8562   */\n      dup2\n        /* \"#utility.yul\":8558:8572   */\n      lt\n        /* \"#utility.yul\":8550:8765   */\n      iszero\n      tag_154\n      jumpi\n        /* \"#utility.yul\":8650:8659   */\n      dup5\n        /* \"#utility.yul\":8645:8648   */\n      dup10\n        /* \"#utility.yul\":8641:8660   */\n      add\n        /* \"#utility.yul\":8628:8661   */\n      calldataload\n        /* \"#utility.yul\":8620:8626   */\n      dup3\n        /* \"#utility.yul\":8613:8662   */\n      sstore\n        /* \"#utility.yul\":8701:8702   */\n      0x01\n        /* \"#utility.yul\":8693:8699   */\n      dup3\n        /* \"#utility.yul\":8689:8703   */\n      add\n        /* \"#utility.yul\":8679:8703   */\n      swap2\n      pop\n        /* \"#utility.yul\":8748:8750   */\n      0x20\n        /* \"#utility.yul\":8737:8746   */\n      dup6\n        /* \"#utility.yul\":8733:8751   */\n      add\n        /* \"#utility.yul\":8720:8751   */\n      swap5\n      pop\n        /* \"#utility.yul\":8587:8591   */\n      0x20\n        /* \"#utility.yul\":8584:8585   */\n      dup2\n        /* \"#utility.yul\":8580:8592   */\n      add\n        /* \"#utility.yul\":8575:8592   */\n      swap1\n      pop\n        /* \"#utility.yul\":8550:8765   */\n      jump(tag_152)\n    tag_154:\n        /* \"#utility.yul\":8793:8799   */\n      dup7\n        /* \"#utility.yul\":8784:8791   */\n      dup4\n        /* \"#utility.yul\":8781:8800   */\n      lt\n        /* \"#utility.yul\":8778:8964   */\n      iszero\n      tag_155\n      jumpi\n        /* \"#utility.yul\":8858:8867   */\n      dup5\n        /* \"#utility.yul\":8853:8856   */\n      dup10\n        /* \"#utility.yul\":8849:8868   */\n      add\n        /* \"#utility.yul\":8836:8869   */\n      calldataload\n        /* \"#utility.yul\":8901:8949   */\n      tag_156\n        /* \"#utility.yul\":8943:8947   */\n      0x1f\n        /* \"#utility.yul\":8935:8941   */\n      dup10\n        /* \"#utility.yul\":8931:8948   */\n      and\n        /* \"#utility.yul\":8920:8929   */\n      dup3\n        /* \"#utility.yul\":8901:8949   */\n      tag_46\n      jump\t// in\n    tag_156:\n        /* \"#utility.yul\":8893:8899   */\n      dup4\n        /* \"#utility.yul\":8886:8950   */\n      sstore\n        /* \"#utility.yul\":8801:8964   */\n      pop\n        /* \"#utility.yul\":8778:8964   */\n    tag_155:\n        /* \"#utility.yul\":9010:9011   */\n      0x01\n        /* \"#utility.yul\":9006:9007   */\n      0x02\n        /* \"#utility.yul\":8998:9004   */\n      dup9\n        /* \"#utility.yul\":8994:9008   */\n      mul\n        /* \"#utility.yul\":8990:9012   */\n      add\n        /* \"#utility.yul\":8984:8988   */\n      dup9\n        /* \"#utility.yul\":8977:9013   */\n      sstore\n        /* \"#utility.yul\":8398:9023   */\n      pop\n      pop\n      pop\n        /* \"#utility.yul\":8361:9269   */\n    tag_147:\n      pop\n        /* \"#utility.yul\":7971:9275   */\n      pop\n      pop\n      pop\n        /* \"#utility.yul\":7872:9275   */\n      pop\n      pop\n      pop\n      jump\t// out\n        /* \"#utility.yul\":9281:9380   */\n    tag_48:\n        /* \"#utility.yul\":9333:9339   */\n      0x00\n        /* \"#utility.yul\":9367:9372   */\n      dup2\n        /* \"#utility.yul\":9361:9373   */\n      mload\n        /* \"#utility.yul\":9351:9373   */\n      swap1\n      pop\n        /* \"#utility.yul\":9281:9380   */\n      swap2\n      swap1\n      pop\n      jump\t// out\n        /* \"#utility.yul\":9386:10781   */\n    tag_12:\n        /* \"#utility.yul\":9503:9540   */\n      tag_159\n        /* \"#utility.yul\":9536:9539   */\n      dup3\n        /* \"#utility.yul\":9503:9540   */\n      tag_48\n      jump\t// in\n    tag_159:\n        /* \"#utility.yul\":9605:9623   */\n      0xffffffffffffffff\n        /* \"#utility.yul\":9597:9603   */\n      dup2\n        /* \"#utility.yul\":9594:9624   */\n      gt\n        /* \"#utility.yul\":9591:9647   */\n      iszero\n      tag_160\n      jumpi\n        /* \"#utility.yul\":9627:9645   */\n      tag_161\n      tag_22\n      jump\t// in\n    tag_161:\n        /* \"#utility.yul\":9591:9647   */\n    tag_160:\n        /* \"#utility.yul\":9671:9709   */\n      tag_162\n        /* \"#utility.yul\":9703:9707   */\n      dup3\n        /* \"#utility.yul\":9697:9708   */\n      sload\n        /* \"#utility.yul\":9671:9709   */\n      tag_31\n      jump\t// in\n    tag_162:\n        /* \"#utility.yul\":9756:9823   */\n      tag_163\n        /* \"#utility.yul\":9816:9822   */\n      dup3\n        /* \"#utility.yul\":9808:9814   */\n      dup3\n        /* \"#utility.yul\":9802:9806   */\n      dup6\n        /* \"#utility.yul\":9756:9823   */\n      tag_44\n      jump\t// in\n    tag_163:\n        /* \"#utility.yul\":9850:9851   */\n      0x00\n        /* \"#utility.yul\":9874:9878   */\n      0x20\n        /* \"#utility.yul\":9861:9878   */\n      swap1\n      pop\n        /* \"#utility.yul\":9906:9908   */\n      0x1f\n        /* \"#utility.yul\":9898:9904   */\n      dup4\n        /* \"#utility.yul\":9895:9909   */\n      gt\n        /* \"#utility.yul\":9923:9924   */\n      0x01\n        /* \"#utility.yul\":9918:10536   */\n      dup2\n      eq\n      tag_165\n      jumpi\n        /* \"#utility.yul\":10580:10581   */\n      0x00\n        /* \"#utility.yul\":10597:10603   */\n      dup5\n        /* \"#utility.yul\":10594:10671   */\n      iszero\n      tag_166\n      jumpi\n        /* \"#utility.yul\":10646:10655   */\n      dup3\n        /* \"#utility.yul\":10641:10644   */\n      dup8\n        /* \"#utility.yul\":10637:10656   */\n      add\n        /* \"#utility.yul\":10631:10657   */\n      mload\n        /* \"#utility.yul\":10622:10657   */\n      swap1\n      pop\n        /* \"#utility.yul\":10594:10671   */\n    tag_166:\n        /* \"#utility.yul\":10697:10764   */\n      tag_167\n        /* \"#utility.yul\":10757:10763   */\n      dup6\n        /* \"#utility.yul\":10750:10755   */\n      dup3\n        /* \"#utility.yul\":10697:10764   */\n      tag_47\n      jump\t// in\n    tag_167:\n        /* \"#utility.yul\":10691:10695   */\n      dup7\n        /* \"#utility.yul\":10684:10765   */\n      sstore\n        /* \"#utility.yul\":10553:10775   */\n      pop\n        /* \"#utility.yul\":9888:10775   */\n      jump(tag_164)\n        /* \"#utility.yul\":9918:10536   */\n    tag_165:\n        /* \"#utility.yul\":9970:9974   */\n      0x1f\n        /* \"#utility.yul\":9966:9975   */\n      not\n        /* \"#utility.yul\":9958:9964   */\n      dup5\n        /* \"#utility.yul\":9954:9976   */\n      and\n        /* \"#utility.yul\":10004:10041   */\n      tag_168\n        /* \"#utility.yul\":10036:10040   */\n      dup7\n        /* \"#utility.yul\":10004:10041   */\n      tag_32\n      jump\t// in\n    tag_168:\n        /* \"#utility.yul\":10063:10064   */\n      0x00\n        /* \"#utility.yul\":10077:10285   */\n    tag_169:\n        /* \"#utility.yul\":10091:10098   */\n      dup3\n        /* \"#utility.yul\":10088:10089   */\n      dup2\n        /* \"#utility.yul\":10085:10099   */\n      lt\n        /* \"#utility.yul\":10077:10285   */\n      iszero\n      tag_171\n      jumpi\n        /* \"#utility.yul\":10170:10179   */\n      dup5\n        /* \"#utility.yul\":10165:10168   */\n      dup10\n        /* \"#utility.yul\":10161:10180   */\n      add\n        /* \"#utility.yul\":10155:10181   */\n      mload\n        /* \"#utility.yul\":10147:10153   */\n      dup3\n        /* \"#utility.yul\":10140:10182   */\n      sstore\n        /* \"#utility.yul\":10221:10222   */\n      0x01\n        /* \"#utility.yul\":10213:10219   */\n      dup3\n        /* \"#utility.yul\":10209:10223   */\n      add\n        /* \"#utility.yul\":10199:10223   */\n      swap2\n      pop\n        /* \"#utility.yul\":10268:10270   */\n      0x20\n        /* \"#utility.yul\":10257:10266   */\n      dup6\n        /* \"#utility.yul\":10253:10271   */\n      add\n        /* \"#utility.yul\":10240:10271   */\n      swap5\n      pop\n        /* \"#utility.yul\":10114:10118   */\n      0x20\n        /* \"#utility.yul\":10111:10112   */\n      dup2\n        /* \"#utility.yul\":10107:10119   */\n      add\n        /* \"#utility.yul\":10102:10119   */\n      swap1\n      pop\n        /* \"#utility.yul\":10077:10285   */\n      jump(tag_169)\n    tag_171:\n        /* \"#utility.yul\":10313:10319   */\n      dup7\n        /* \"#utility.yul\":10304:10311   */\n      dup4\n        /* \"#utility.yul\":10301:10320   */\n      lt\n        /* \"#utility.yul\":10298:10477   */\n      iszero\n      tag_172\n      jumpi\n        /* \"#utility.yul\":10371:10380   */\n      dup5\n        /* \"#utility.yul\":10366:10369   */\n      dup10\n        /* \"#utility.yul\":10362:10381   */\n      add\n        /* \"#utility.yul\":10356:10382   */\n      mload\n        /* \"#utility.yul\":10414:10462   */\n      tag_173\n        /* \"#utility.yul\":10456:10460   */\n      0x1f\n        /* \"#utility.yul\":10448:10454   */\n      dup10\n        /* \"#utility.yul\":10444:10461   */\n      and\n        /* \"#utility.yul\":10433:10442   */\n      dup3\n        /* \"#utility.yul\":10414:10462   */\n      tag_46\n      jump\t// in\n    tag_173:\n        /* \"#utility.yul\":10406:10412   */\n      dup4\n        /* \"#utility.yul\":10399:10463   */\n      sstore\n        /* \"#utility.yul\":10321:10477   */\n      pop\n        /* \"#utility.yul\":10298:10477   */\n    tag_172:\n        /* \"#utility.yul\":10523:10524   */\n      0x01\n        /* \"#utility.yul\":10519:10520   */\n      0x02\n        /* \"#utility.yul\":10511:10517   */\n      dup9\n        /* \"#utility.yul\":10507:10521   */\n      mul\n        /* \"#utility.yul\":10503:10525   */\n      add\n        /* \"#utility.yul\":10497:10501   */\n      dup9\n        /* \"#utility.yul\":10490:10526   */\n      sstore\n        /* \"#utility.yul\":9925:10536   */\n      pop\n      pop\n      pop\n        /* \"#utility.yul\":9888:10775   */\n    tag_164:\n      pop\n        /* \"#utility.yul\":9478:10781   */\n      pop\n      pop\n      pop\n        /* \"#utility.yul\":9386:10781   */\n      pop\n      pop\n      jump\t// out\n\n    auxdata: 0xa26469706673582212208b1bd55f060b22adf1255232c0fe39e5ba1c6b1ed38b1a53dca97fd201a33bd564736f6c634300081b0033\n}\n",
				"bytecode": {
					"linkReferences": {},
					"object": "6080604052348015600e575f5ffd5b506106b68061001c5f395ff3fe608060405234801561000f575f5ffd5b5060043610610029575f3560e01c80639a0f3aca1461002d575b5f5ffd5b61004760048036038101906100429190610251565b610049565b005b82825f91826100599291906104da565b506040518060400160405280600681526020017f446561636f6e0000000000000000000000000000000000000000000000000000815250905080600190816100a191906105b1565b50505050565b5f604051905090565b5f5ffd5b5f5ffd5b5f5ffd5b5f5ffd5b5f5ffd5b5f5f83601f8401126100d9576100d86100b8565b5b8235905067ffffffffffffffff8111156100f6576100f56100bc565b5b602083019150836001820283011115610112576101116100c0565b5b9250929050565b5f5ffd5b5f601f19601f8301169050919050565b7f4e487b71000000000000000000000000000000000000000000000000000000005f52604160045260245ffd5b6101638261011d565b810181811067ffffffffffffffff821117156101825761018161012d565b5b80604052505050565b5f6101946100a7565b90506101a0828261015a565b919050565b5f67ffffffffffffffff8211156101bf576101be61012d565b5b6101c88261011d565b9050602081019050919050565b828183375f83830152505050565b5f6101f56101f0846101a5565b61018b565b90508281526020810184848401111561021157610210610119565b5b61021c8482856101d5565b509392505050565b5f82601f830112610238576102376100b8565b5b81356102488482602086016101e3565b91505092915050565b5f5f5f60408486031215610268576102676100b0565b5b5f84013567ffffffffffffffff811115610285576102846100b4565b5b610291868287016100c4565b9350935050602084013567ffffffffffffffff8111156102b4576102b36100b4565b5b6102c086828701610224565b9150509250925092565b5f82905092915050565b7f4e487b71000000000000000000000000000000000000000000000000000000005f52602260045260245ffd5b5f600282049050600182168061031857607f821691505b60208210810361032b5761032a6102d4565b5b50919050565b5f819050815f5260205f209050919050565b5f6020601f8301049050919050565b5f82821b905092915050565b5f6008830261038d7fffffffffffffffffffffffffffffffffffffffffffffffffffffffffffffffff82610352565b6103978683610352565b95508019841693508086168417925050509392505050565b5f819050919050565b5f819050919050565b5f6103db6103d66103d1846103af565b6103b8565b6103af565b9050919050565b5f819050919050565b6103f4836103c1565b610408610400826103e2565b84845461035e565b825550505050565b5f5f905090565b61041f610410565b61042a8184846103eb565b505050565b5b8181101561044d576104425f82610417565b600181019050610430565b5050565b601f8211156104925761046381610331565b61046c84610343565b8101602085101561047b578190505b61048f61048785610343565b83018261042f565b50505b505050565b5f82821c905092915050565b5f6104b25f1984600802610497565b1980831691505092915050565b5f6104ca83836104a3565b9150826002028217905092915050565b6104e483836102ca565b67ffffffffffffffff8111156104fd576104fc61012d565b5b6105078254610301565b610512828285610451565b5f601f83116001811461053f575f841561052d578287013590505b61053785826104bf565b86555061059e565b601f19841661054d86610331565b5f5b828110156105745784890135825560018201915060208501945060208101905061054f565b86831015610591578489013561058d601f8916826104a3565b8355505b6001600288020188555050505b50505050505050565b5f81519050919050565b6105ba826105a7565b67ffffffffffffffff8111156105d3576105d261012d565b5b6105dd8254610301565b6105e8828285610451565b5f60209050601f831160018114610619575f8415610607578287015190505b61061185826104bf565b865550610678565b601f19841661062786610331565b5f5b8281101561064e57848901518255600182019150602085019450602081019050610629565b8683101561066b5784890151610667601f8916826104a3565b8355505b6001600288020188555050505b50505050505056fea26469706673582212208b1bd55f060b22adf1255232c0fe39e5ba1c6b1ed38b1a53dca97fd201a33bd564736f6c634300081b0033",
					"opcodes": "PUSH1 0x80 PUSH1 0x40 MSTORE CALLVALUE DUP1 ISZERO PUSH1 0xE JUMPI PUSH0 PUSH0 REVERT JUMPDEST POP PUSH2 0x6B6 DUP1 PUSH2 0x1C PUSH0 CODECOPY PUSH0 RETURN INVALID PUSH1 0x80 PUSH1 0x40 MSTORE CALLVALUE DUP1 ISZERO PUSH2 0xF JUMPI PUSH0 PUSH0 REVERT JUMPDEST POP PUSH1 0x4 CALLDATASIZE LT PUSH2 0x29 JUMPI PUSH0 CALLDATALOAD PUSH1 0xE0 SHR DUP1 PUSH4 0x9A0F3ACA EQ PUSH2 0x2D JUMPI JUMPDEST PUSH0 PUSH0 REVERT JUMPDEST PUSH2 0x47 PUSH1 0x4 DUP1 CALLDATASIZE SUB DUP2 ADD SWAP1 PUSH2 0x42 SWAP2 SWAP1 PUSH2 0x251 JUMP JUMPDEST PUSH2 0x49 JUMP JUMPDEST STOP JUMPDEST DUP3 DUP3 PUSH0 SWAP2 DUP3 PUSH2 0x59 SWAP3 SWAP2 SWAP1 PUSH2 0x4DA JUMP JUMPDEST POP PUSH1 0x40 MLOAD DUP1 PUSH1 0x40 ADD PUSH1 0x40 MSTORE DUP1 PUSH1 0x6 DUP2 MSTORE PUSH1 0x20 ADD PUSH32 0x446561636F6E0000000000000000000000000000000000000000000000000000 DUP2 MSTORE POP SWAP1 POP DUP1 PUSH1 0x1 SWAP1 DUP2 PUSH2 0xA1 SWAP2 SWAP1 PUSH2 0x5B1 JUMP JUMPDEST POP POP POP POP JUMP JUMPDEST PUSH0 PUSH1 0x40 MLOAD SWAP1 POP SWAP1 JUMP JUMPDEST PUSH0 PUSH0 REVERT JUMPDEST PUSH0 PUSH0 REVERT JUMPDEST PUSH0 PUSH0 REVERT JUMPDEST PUSH0 PUSH0 REVERT JUMPDEST PUSH0 PUSH0 REVERT JUMPDEST PUSH0 PUSH0 DUP4 PUSH1 0x1F DUP5 ADD SLT PUSH2 0xD9 JUMPI PUSH2 0xD8 PUSH2 0xB8 JUMP JUMPDEST JUMPDEST DUP3 CALLDATALOAD SWAP1 POP PUSH8 0xFFFFFFFFFFFFFFFF DUP2 GT ISZERO PUSH2 0xF6 JUMPI PUSH2 0xF5 PUSH2 0xBC JUMP JUMPDEST JUMPDEST PUSH1 0x20 DUP4 ADD SWAP2 POP DUP4 PUSH1 0x1 DUP3 MUL DUP4 ADD GT ISZERO PUSH2 0x112 JUMPI PUSH2 0x111 PUSH2 0xC0 JUMP JUMPDEST JUMPDEST SWAP3 POP SWAP3 SWAP1 POP JUMP JUMPDEST PUSH0 PUSH0 REVERT JUMPDEST PUSH0 PUSH1 0x1F NOT PUSH1 0x1F DUP4 ADD AND SWAP1 POP SWAP2 SWAP1 POP JUMP JUMPDEST PUSH32 0x4E487B7100000000000000000000000000000000000000000000000000000000 PUSH0 MSTORE PUSH1 0x41 PUSH1 0x4 MSTORE PUSH1 0x24 PUSH0 REVERT JUMPDEST PUSH2 0x163 DUP3 PUSH2 0x11D JUMP JUMPDEST DUP2 ADD DUP2 DUP2 LT PUSH8 0xFFFFFFFFFFFFFFFF DUP3 GT OR ISZERO PUSH2 0x182 JUMPI PUSH2 0x181 PUSH2 0x12D JUMP JUMPDEST JUMPDEST DUP1 PUSH1 0x40 MSTORE POP POP POP JUMP JUMPDEST PUSH0 PUSH2 0x194 PUSH2 0xA7 JUMP JUMPDEST SWAP1 POP PUSH2 0x1A0 DUP3 DUP3 PUSH2 0x15A JUMP JUMPDEST SWAP2 SWAP1 POP JUMP JUMPDEST PUSH0 PUSH8 0xFFFFFFFFFFFFFFFF DUP3 GT ISZERO PUSH2 0x1BF JUMPI PUSH2 0x1BE PUSH2 0x12D JUMP JUMPDEST JUMPDEST PUSH2 0x1C8 DUP3 PUSH2 0x11D JUMP JUMPDEST SWAP1 POP PUSH1 0x20 DUP2 ADD SWAP1 POP SWAP2 SWAP1 POP JUMP JUMPDEST DUP3 DUP2 DUP4 CALLDATACOPY PUSH0 DUP4 DUP4 ADD MSTORE POP POP POP JUMP JUMPDEST PUSH0 PUSH2 0x1F5 PUSH2 0x1F0 DUP5 PUSH2 0x1A5 JUMP JUMPDEST PUSH2 0x18B JUMP JUMPDEST SWAP1 POP DUP3 DUP2 MSTORE PUSH1 0x20 DUP2 ADD DUP5 DUP5 DUP5 ADD GT ISZERO PUSH2 0x211 JUMPI PUSH2 0x210 PUSH2 0x119 JUMP JUMPDEST JUMPDEST PUSH2 0x21C DUP5 DUP3 DUP6 PUSH2 0x1D5 JUMP JUMPDEST POP SWAP4 SWAP3 POP POP POP JUMP JUMPDEST PUSH0 DUP3 PUSH1 0x1F DUP4 ADD SLT PUSH2 0x238 JUMPI PUSH2 0x237 PUSH2 0xB8 JUMP JUMPDEST JUMPDEST DUP2 CALLDATALOAD PUSH2 0x248 DUP5 DUP3 PUSH1 0x20 DUP7 ADD PUSH2 0x1E3 JUMP JUMPDEST SWAP2 POP POP SWAP3 SWAP2 POP POP JUMP JUMPDEST PUSH0 PUSH0 PUSH0 PUSH1 0x40 DUP5 DUP7 SUB SLT ISZERO PUSH2 0x268 JUMPI PUSH2 0x267 PUSH2 0xB0 JUMP JUMPDEST JUMPDEST PUSH0 DUP5 ADD CALLDATALOAD PUSH8 0xFFFFFFFFFFFFFFFF DUP2 GT ISZERO PUSH2 0x285 JUMPI PUSH2 0x284 PUSH2 0xB4 JUMP JUMPDEST JUMPDEST PUSH2 0x291 DUP7 DUP3 DUP8 ADD PUSH2 0xC4 JUMP JUMPDEST SWAP4 POP SWAP4 POP POP PUSH1 0x20 DUP5 ADD CALLDATALOAD PUSH8 0xFFFFFFFFFFFFFFFF DUP2 GT ISZERO PUSH2 0x2B4 JUMPI PUSH2 0x2B3 PUSH2 0xB4 JUMP JUMPDEST JUMPDEST PUSH2 0x2C0 DUP7 DUP3 DUP8 ADD PUSH2 0x224 JUMP JUMPDEST SWAP2 POP POP SWAP3 POP SWAP3 POP SWAP3 JUMP JUMPDEST PUSH0 DUP3 SWAP1 POP SWAP3 SWAP2 POP POP JUMP JUMPDEST PUSH32 0x4E487B7100000000000000000000000000000000000000000000000000000000 PUSH0 MSTORE PUSH1 0x22 PUSH1 0x4 MSTORE PUSH1 0x24 PUSH0 REVERT JUMPDEST PUSH0 PUSH1 0x2 DUP3 DIV SWAP1 POP PUSH1 0x1 DUP3 AND DUP1 PUSH2 0x318 JUMPI PUSH1 0x7F DUP3 AND SWAP2 POP JUMPDEST PUSH1 0x20 DUP3 LT DUP2 SUB PUSH2 0x32B JUMPI PUSH2 0x32A PUSH2 0x2D4 JUMP JUMPDEST JUMPDEST POP SWAP2 SWAP1 POP JUMP JUMPDEST PUSH0 DUP2 SWAP1 POP DUP2 PUSH0 MSTORE PUSH1 0x20 PUSH0 KECCAK256 SWAP1 POP SWAP2 SWAP1 POP JUMP JUMPDEST PUSH0 PUSH1 0x20 PUSH1 0x1F DUP4 ADD DIV SWAP1 POP SWAP2 SWAP1 POP JUMP JUMPDEST PUSH0 DUP3 DUP3 SHL SWAP1 POP SWAP3 SWAP2 POP POP JUMP JUMPDEST PUSH0 PUSH1 0x8 DUP4 MUL PUSH2 0x38D PUSH32 0xFFFFFFFFFFFFFFFFFFFFFFFFFFFFFFFFFFFFFFFFFFFFFFFFFFFFFFFFFFFFFFFF DUP3 PUSH2 0x352 JUMP JUMPDEST PUSH2 0x397 DUP7 DUP4 PUSH2 0x352 JUMP JUMPDEST SWAP6 POP DUP1 NOT DUP5 AND SWAP4 POP DUP1 DUP7 AND DUP5 OR SWAP3 POP POP POP SWAP4 SWAP3 POP POP POP JUMP JUMPDEST PUSH0 DUP2 SWAP1 POP SWAP2 SWAP1 POP JUMP JUMPDEST PUSH0 DUP2 SWAP1 POP SWAP2 SWAP1 POP JUMP JUMPDEST PUSH0 PUSH2 0x3DB PUSH2 0x3D6 PUSH2 0x3D1 DUP5 PUSH2 0x3AF JUMP JUMPDEST PUSH2 0x3B8 JUMP JUMPDEST PUSH2 0x3AF JUMP JUMPDEST SWAP1 POP SWAP2 SWAP1 POP JUMP JUMPDEST PUSH0 DUP2 SWAP1 POP SWAP2 SWAP1 POP JUMP JUMPDEST PUSH2 0x3F4 DUP4 PUSH2 0x3C1 JUMP JUMPDEST PUSH2 0x408 PUSH2 0x400 DUP3 PUSH2 0x3E2 JUMP JUMPDEST DUP5 DUP5 SLOAD PUSH2 0x35E JUMP JUMPDEST DUP3 SSTORE POP POP POP POP JUMP JUMPDEST PUSH0 PUSH0 SWAP1 POP SWAP1 JUMP JUMPDEST PUSH2 0x41F PUSH2 0x410 JUMP JUMPDEST PUSH2 0x42A DUP2 DUP5 DUP5 PUSH2 0x3EB JUMP JUMPDEST POP POP POP JUMP JUMPDEST JUMPDEST DUP2 DUP2 LT ISZERO PUSH2 0x44D JUMPI PUSH2 0x442 PUSH0 DUP3 PUSH2 0x417 JUMP JUMPDEST PUSH1 0x1 DUP2 ADD SWAP1 POP PUSH2 0x430 JUMP JUMPDEST POP POP JUMP JUMPDEST PUSH1 0x1F DUP3 GT ISZERO PUSH2 0x492 JUMPI PUSH2 0x463 DUP2 PUSH2 0x331 JUMP JUMPDEST PUSH2 0x46C DUP5 PUSH2 0x343 JUMP JUMPDEST DUP2 ADD PUSH1 0x20 DUP6 LT ISZERO PUSH2 0x47B JUMPI DUP2 SWAP1 POP JUMPDEST PUSH2 0x48F PUSH2 0x487 DUP6 PUSH2 0x343 JUMP JUMPDEST DUP4 ADD DUP3 PUSH2 0x42F JUMP JUMPDEST POP POP JUMPDEST POP POP POP JUMP JUMPDEST PUSH0 DUP3 DUP3 SHR SWAP1 POP SWAP3 SWAP2 POP POP JUMP JUMPDEST PUSH0 PUSH2 0x4B2 PUSH0 NOT DUP5 PUSH1 0x8 MUL PUSH2 0x497 JUMP JUMPDEST NOT DUP1 DUP4 AND SWAP2 POP POP SWAP3 SWAP2 POP POP JUMP JUMPDEST PUSH0 PUSH2 0x4CA DUP4 DUP4 PUSH2 0x4A3 JUMP JUMPDEST SWAP2 POP DUP3 PUSH1 0x2 MUL DUP3 OR SWAP1 POP SWAP3 SWAP2 POP POP JUMP JUMPDEST PUSH2 0x4E4 DUP4 DUP4 PUSH2 0x2CA JUMP JUMPDEST PUSH8 0xFFFFFFFFFFFFFFFF DUP2 GT ISZERO PUSH2 0x4FD JUMPI PUSH2 0x4FC PUSH2 0x12D JUMP JUMPDEST JUMPDEST PUSH2 0x507 DUP3 SLOAD PUSH2 0x301 JUMP JUMPDEST PUSH2 0x512 DUP3 DUP3 DUP6 PUSH2 0x451 JUMP JUMPDEST PUSH0 PUSH1 0x1F DUP4 GT PUSH1 0x1 DUP2 EQ PUSH2 0x53F JUMPI PUSH0 DUP5 ISZERO PUSH2 0x52D JUMPI DUP3 DUP8 ADD CALLDATALOAD SWAP1 POP JUMPDEST PUSH2 0x537 DUP6 DUP3 PUSH2 0x4BF JUMP JUMPDEST DUP7 SSTORE POP PUSH2 0x59E JUMP JUMPDEST PUSH1 0x1F NOT DUP5 AND PUSH2 0x54D DUP7 PUSH2 0x331 JUMP JUMPDEST PUSH0 JUMPDEST DUP3 DUP2 LT ISZERO PUSH2 0x574 JUMPI DUP5 DUP10 ADD CALLDATALOAD DUP3 SSTORE PUSH1 0x1 DUP3 ADD SWAP2 POP PUSH1 0x20 DUP6 ADD SWAP5 POP PUSH1 0x20 DUP2 ADD SWAP1 POP PUSH2 0x54F JUMP JUMPDEST DUP7 DUP4 LT ISZERO PUSH2 0x591 JUMPI DUP5 DUP10 ADD CALLDATALOAD PUSH2 0x58D PUSH1 0x1F DUP10 AND DUP3 PUSH2 0x4A3 JUMP JUMPDEST DUP4 SSTORE POP JUMPDEST PUSH1 0x1 PUSH1 0x2 DUP9 MUL ADD DUP9 SSTORE POP POP POP JUMPDEST POP POP POP POP POP POP POP JUMP JUMPDEST PUSH0 DUP2 MLOAD SWAP1 POP SWAP2 SWAP1 POP JUMP JUMPDEST PUSH2 0x5BA DUP3 PUSH2 0x5A7 JUMP JUMPDEST PUSH8 0xFFFFFFFFFFFFFFFF DUP2 GT ISZERO PUSH2 0x5D3 JUMPI PUSH2 0x5D2 PUSH2 0x12D JUMP JUMPDEST JUMPDEST PUSH2 0x5DD DUP3 SLOAD PUSH2 0x301 JUMP JUMPDEST PUSH2 0x5E8 DUP3 DUP3 DUP6 PUSH2 0x451 JUMP JUMPDEST PUSH0 PUSH1 0x20 SWAP1 POP PUSH1 0x1F DUP4 GT PUSH1 0x1 DUP2 EQ PUSH2 0x619 JUMPI PUSH0 DUP5 ISZERO PUSH2 0x607 JUMPI DUP3 DUP8 ADD MLOAD SWAP1 POP JUMPDEST PUSH2 0x611 DUP6 DUP3 PUSH2 0x4BF JUMP JUMPDEST DUP7 SSTORE POP PUSH2 0x678 JUMP JUMPDEST PUSH1 0x1F NOT DUP5 AND PUSH2 0x627 DUP7 PUSH2 0x331 JUMP JUMPDEST PUSH0 JUMPDEST DUP3 DUP2 LT ISZERO PUSH2 0x64E JUMPI DUP5 DUP10 ADD MLOAD DUP3 SSTORE PUSH1 0x1 DUP3 ADD SWAP2 POP PUSH1 0x20 DUP6 ADD SWAP5 POP PUSH1 0x20 DUP2 ADD SWAP1 POP PUSH2 0x629 JUMP JUMPDEST DUP7 DUP4 LT ISZERO PUSH2 0x66B JUMPI DUP5 DUP10 ADD MLOAD PUSH2 0x667 PUSH1 0x1F DUP10 AND DUP3 PUSH2 0x4A3 JUMP JUMPDEST DUP4 SSTORE POP JUMPDEST PUSH1 0x1 PUSH1 0x2 DUP9 MUL ADD DUP9 SSTORE POP POP POP JUMPDEST POP POP POP POP POP POP JUMP INVALID LOG2 PUSH5 0x6970667358 0x22 SLT KECCAK256 DUP12 SHL 0xD5 PUSH0 MOD SIGNEXTEND 0x22 0xAD CALL 0x25 MSTORE ORIGIN 0xC0 INVALID CODECOPY 0xE5 0xBA SHR PUSH12 0x1ED38B1A53DCA97FD201A33B 0xD5 PUSH5 0x736F6C6343 STOP ADDMOD SHL STOP CALLER "
				},
				"gasEstimates": {
					"creation": {
						"codeDepositCost": "343600",
						"executionCost": "378",
						"totalCost": "343978"
					},
					"external": {
						"changeNameAndSurname(string,string)": "infinite"
					}
				},
				"methodIdentifiers": {
					"changeNameAndSurname(string,string)": "9a0f3aca"
				}
			},
			"storageLayout": {
				"storage": [
					{
						"astId": 3,
						"contract": "Cyfrin Updraft Challenge/1.8.sol:DataLocations",
						"label": "name",
						"offset": 0,
						"slot": "0",
						"type": "t_string_storage"
					},
					{
						"astId": 5,
						"contract": "Cyfrin Updraft Challenge/1.8.sol:DataLocations",
						"label": "surname",
						"offset": 0,
						"slot": "1",
						"type": "t_string_storage"
					}
				],
				"types": {
					"t_string_storage": {
						"encoding": "bytes",
						"label": "string",
						"numberOfBytes": "32"
					}
				}
			},
			"userdoc": {
				"kind": "user",
				"methods": {},
				"version": 1
			}
		}
	}
}