{
	"Cyfrin Updraft Challenge/2.07.sol": {
		"Squared": {
			"abi": [
				{
					"inputs": [
						{
							"internalType": "string",
							"name": "_name",
							"type": "string"
						},
						{
							"internalType": "uint256",
							"name": "_favoriteNumber",
							"type": "uint256"
						}
					],
					"name": "addPerson",
					"outputs": [],
					"stateMutability": "nonpayable",
					"type": "function"
				},
				{
					"inputs": [
						{
							"internalType": "uint256",
							"name": "",
							"type": "uint256"
						}
					],
					"name": "listOfPeople",
					"outputs": [
						{
							"internalType": "uint256",
							"name": "favoriteNumber",
							"type": "uint256"
						},
						{
							"internalType": "string",
							"name": "name",
							"type": "string"
						}
					],
					"stateMutability": "view",
					"type": "function"
				},
				{
					"inputs": [
						{
							"internalType": "string",
							"name": "",
							"type": "string"
						}
					],
					"name": "nameToFavoriteNumber",
					"outputs": [
						{
							"internalType": "uint256",
							"name": "",
							"type": "uint256"
						}
					],
					"stateMutability": "view",
					"type": "function"
				},
				{
					"inputs": [],
					"name": "retrieve",
					"outputs": [
						{
							"internalType": "uint256",
							"name": "",
							"type": "uint256"
						}
					],
					"stateMutability": "view",
					"type": "function"
				},
				{
					"inputs": [
						{
							"internalType": "uint256",
							"name": "_favoriteNumber",
							"type": "uint256"
						}
					],
					"name": "store",
					"outputs": [],
					"stateMutability": "nonpayable",
					"type": "function"
				}
			],
			"devdoc": {
				"kind": "dev",
				"methods": {},
				"version": 1
			},
			"evm": {
				"assembly": "    /* \"Cyfrin Updraft Challenge/2.07.sol\":115:271  contract Squared is SimpleStorage{... */\n  mstore(0x40, 0x80)\n  callvalue\n  dup1\n  iszero\n  tag_1\n  jumpi\n  revert(0x00, 0x00)\ntag_1:\n  pop\n  dataSize(sub_0)\n  dup1\n  dataOffset(sub_0)\n  0x00\n  codecopy\n  0x00\n  return\nstop\n\nsub_0: assembly {\n        /* \"Cyfrin Updraft Challenge/2.07.sol\":115:271  contract Squared is SimpleStorage{... */\n      mstore(0x40, 0x80)\n      callvalue\n      dup1\n      iszero\n      tag_1\n      jumpi\n      revert(0x00, 0x00)\n    tag_1:\n      pop\n      jumpi(tag_2, lt(calldatasize, 0x04))\n      shr(0xe0, calldataload(0x00))\n      dup1\n      0x2e64cec1\n      eq\n      tag_3\n      jumpi\n      dup1\n      0x2ebce631\n      eq\n      tag_4\n      jumpi\n      dup1\n      0x6057361d\n      eq\n      tag_5\n      jumpi\n      dup1\n      0x6f760f41\n      eq\n      tag_6\n      jumpi\n      dup1\n      0x8bab8dd5\n      eq\n      tag_7\n      jumpi\n    tag_2:\n      revert(0x00, 0x00)\n        /* \"SimpleStorage.sol\":522:614  function retrieve() public view returns (uint256) {... */\n    tag_3:\n      tag_8\n      tag_9\n      jump\t// in\n    tag_8:\n      mload(0x40)\n      tag_10\n      swap2\n      swap1\n      tag_11\n      jump\t// in\n    tag_10:\n      mload(0x40)\n      dup1\n      swap2\n      sub\n      swap1\n      return\n        /* \"SimpleStorage.sol\":306:334  Person[] public listOfPeople */\n    tag_4:\n      tag_12\n      0x04\n      dup1\n      calldatasize\n      sub\n      dup2\n      add\n      swap1\n      tag_13\n      swap2\n      swap1\n      tag_14\n      jump\t// in\n    tag_13:\n      tag_15\n      jump\t// in\n    tag_12:\n      mload(0x40)\n      tag_16\n      swap3\n      swap2\n      swap1\n      tag_17\n      jump\t// in\n    tag_16:\n      mload(0x40)\n      dup1\n      swap2\n      sub\n      swap1\n      return\n        /* \"Cyfrin Updraft Challenge/2.07.sol\":155:268  function store(uint256 _favoriteNumber) public override{... */\n    tag_5:\n      tag_18\n      0x04\n      dup1\n      calldatasize\n      sub\n      dup2\n      add\n      swap1\n      tag_19\n      swap2\n      swap1\n      tag_14\n      jump\t// in\n    tag_19:\n      tag_20\n      jump\t// in\n    tag_18:\n      stop\n        /* \"SimpleStorage.sol\":622:818  function addPerson(string memory _name, uint256 _favoriteNumber) public {... */\n    tag_6:\n      tag_21\n      0x04\n      dup1\n      calldatasize\n      sub\n      dup2\n      add\n      swap1\n      tag_22\n      swap2\n      swap1\n      tag_23\n      jump\t// in\n    tag_22:\n      tag_24\n      jump\t// in\n    tag_21:\n      stop\n        /* \"SimpleStorage.sol\":343:397  mapping(string => uint256) public nameToFavoriteNumber */\n    tag_7:\n      tag_25\n      0x04\n      dup1\n      calldatasize\n      sub\n      dup2\n      add\n      swap1\n      tag_26\n      swap2\n      swap1\n      tag_27\n      jump\t// in\n    tag_26:\n      tag_28\n      jump\t// in\n    tag_25:\n      mload(0x40)\n      tag_29\n      swap2\n      swap1\n      tag_11\n      jump\t// in\n    tag_29:\n      mload(0x40)\n      dup1\n      swap2\n      sub\n      swap1\n      return\n        /* \"SimpleStorage.sol\":522:614  function retrieve() public view returns (uint256) {... */\n    tag_9:\n        /* \"SimpleStorage.sol\":563:570  uint256 */\n      0x00\n        /* \"SimpleStorage.sol\":590:606  myFavoriteNumber */\n      sload(0x00)\n        /* \"SimpleStorage.sol\":583:606  return myFavoriteNumber */\n      swap1\n      pop\n        /* \"SimpleStorage.sol\":522:614  function retrieve() public view returns (uint256) {... */\n      swap1\n      jump\t// out\n        /* \"SimpleStorage.sol\":306:334  Person[] public listOfPeople */\n    tag_15:\n      0x01\n      dup2\n      dup2\n      sload\n      dup2\n      lt\n      tag_31\n      jumpi\n      0x00\n      dup1\n      revert\n    tag_31:\n      swap1\n      0x00\n      mstore\n      keccak256(0x00, 0x20)\n      swap1\n      0x02\n      mul\n      add\n      0x00\n      swap2\n      pop\n      swap1\n      pop\n      dup1\n      0x00\n      add\n      sload\n      swap1\n      dup1\n      0x01\n      add\n      dup1\n      sload\n      tag_33\n      swap1\n      tag_34\n      jump\t// in\n    tag_33:\n      dup1\n      0x1f\n      add\n      0x20\n      dup1\n      swap2\n      div\n      mul\n      0x20\n      add\n      mload(0x40)\n      swap1\n      dup2\n      add\n      0x40\n      mstore\n      dup1\n      swap3\n      swap2\n      swap1\n      dup2\n      dup2\n      mstore\n      0x20\n      add\n      dup3\n      dup1\n      sload\n      tag_35\n      swap1\n      tag_34\n      jump\t// in\n    tag_35:\n      dup1\n      iszero\n      tag_36\n      jumpi\n      dup1\n      0x1f\n      lt\n      tag_37\n      jumpi\n      0x0100\n      dup1\n      dup4\n      sload\n      div\n      mul\n      dup4\n      mstore\n      swap2\n      0x20\n      add\n      swap2\n      jump(tag_36)\n    tag_37:\n      dup3\n      add\n      swap2\n      swap1\n      0x00\n      mstore\n      keccak256(0x00, 0x20)\n      swap1\n    tag_38:\n      dup2\n      sload\n      dup2\n      mstore\n      swap1\n      0x01\n      add\n      swap1\n      0x20\n      add\n      dup1\n      dup4\n      gt\n      tag_38\n      jumpi\n      dup3\n      swap1\n      sub\n      0x1f\n      and\n      dup3\n      add\n      swap2\n    tag_36:\n      pop\n      pop\n      pop\n      pop\n      pop\n      swap1\n      pop\n      dup3\n      jump\t// out\n        /* \"Cyfrin Updraft Challenge/2.07.sol\":155:268  function store(uint256 _favoriteNumber) public override{... */\n    tag_20:\n        /* \"Cyfrin Updraft Challenge/2.07.sol\":259:260  2 */\n      0x02\n        /* \"Cyfrin Updraft Challenge/2.07.sol\":240:255  _favoriteNumber */\n      dup2\n        /* \"Cyfrin Updraft Challenge/2.07.sol\":240:260  _favoriteNumber ** 2 */\n      tag_40\n      swap2\n      swap1\n      tag_41\n      jump\t// in\n    tag_40:\n        /* \"Cyfrin Updraft Challenge/2.07.sol\":221:237  myFavoriteNumber */\n      0x00\n        /* \"Cyfrin Updraft Challenge/2.07.sol\":221:260  myFavoriteNumber = _favoriteNumber ** 2 */\n      dup2\n      swap1\n      sstore\n      pop\n        /* \"Cyfrin Updraft Challenge/2.07.sol\":155:268  function store(uint256 _favoriteNumber) public override{... */\n      pop\n      jump\t// out\n        /* \"SimpleStorage.sol\":622:818  function addPerson(string memory _name, uint256 _favoriteNumber) public {... */\n    tag_24:\n        /* \"SimpleStorage.sol\":705:717  listOfPeople */\n      0x01\n        /* \"SimpleStorage.sol\":723:753  Person(_favoriteNumber, _name) */\n      mload(0x40)\n      dup1\n      0x40\n      add\n      0x40\n      mstore\n      dup1\n        /* \"SimpleStorage.sol\":730:745  _favoriteNumber */\n      dup4\n        /* \"SimpleStorage.sol\":723:753  Person(_favoriteNumber, _name) */\n      dup2\n      mstore\n      0x20\n      add\n        /* \"SimpleStorage.sol\":747:752  _name */\n      dup5\n        /* \"SimpleStorage.sol\":723:753  Person(_favoriteNumber, _name) */\n      dup2\n      mstore\n      pop\n        /* \"SimpleStorage.sol\":705:754  listOfPeople.push(Person(_favoriteNumber, _name)) */\n      swap1\n      dup1\n      0x01\n      dup2\n      sload\n      add\n      dup1\n      dup3\n      sstore\n      dup1\n      swap2\n      pop\n      pop\n      0x01\n      swap1\n      sub\n      swap1\n      0x00\n      mstore\n      keccak256(0x00, 0x20)\n      swap1\n      0x02\n      mul\n      add\n      0x00\n      swap1\n      swap2\n      swap1\n      swap2\n      swap1\n      swap2\n      pop\n      0x00\n      dup3\n      add\n      mload\n      dup2\n      0x00\n      add\n      sstore\n      0x20\n      dup3\n      add\n      mload\n      dup2\n      0x01\n      add\n      swap1\n      dup2\n      tag_44\n      swap2\n      swap1\n      tag_45\n      jump\t// in\n    tag_44:\n      pop\n      pop\n      pop\n        /* \"SimpleStorage.sol\":795:810  _favoriteNumber */\n      dup1\n        /* \"SimpleStorage.sol\":765:785  nameToFavoriteNumber */\n      0x02\n        /* \"SimpleStorage.sol\":786:791  _name */\n      dup4\n        /* \"SimpleStorage.sol\":765:792  nameToFavoriteNumber[_name] */\n      mload(0x40)\n      tag_46\n      swap2\n      swap1\n      tag_47\n      jump\t// in\n    tag_46:\n      swap1\n      dup2\n      mstore\n      0x20\n      add\n      mload(0x40)\n      dup1\n      swap2\n      sub\n      swap1\n      keccak256\n        /* \"SimpleStorage.sol\":765:810  nameToFavoriteNumber[_name] = _favoriteNumber */\n      dup2\n      swap1\n      sstore\n      pop\n        /* \"SimpleStorage.sol\":622:818  function addPerson(string memory _name, uint256 _favoriteNumber) public {... */\n      pop\n      pop\n      jump\t// out\n        /* \"SimpleStorage.sol\":343:397  mapping(string => uint256) public nameToFavoriteNumber */\n    tag_28:\n      0x02\n      dup2\n      dup1\n      mload\n      0x20\n      dup2\n      add\n      dup3\n      add\n      dup1\n      mload\n      dup5\n      dup3\n      mstore\n      0x20\n      dup4\n      add\n      0x20\n      dup6\n      add\n      keccak256\n      dup2\n      dup4\n      mstore\n      dup1\n      swap6\n      pop\n      pop\n      pop\n      pop\n      pop\n      pop\n      0x00\n      swap2\n      pop\n      swap1\n      pop\n      sload\n      dup2\n      jump\t// out\n        /* \"#utility.yul\":7:84   */\n    tag_48:\n        /* \"#utility.yul\":44:51   */\n      0x00\n        /* \"#utility.yul\":73:78   */\n      dup2\n        /* \"#utility.yul\":62:78   */\n      swap1\n      pop\n        /* \"#utility.yul\":7:84   */\n      swap2\n      swap1\n      pop\n      jump\t// out\n        /* \"#utility.yul\":90:208   */\n    tag_49:\n        /* \"#utility.yul\":177:201   */\n      tag_95\n        /* \"#utility.yul\":195:200   */\n      dup2\n        /* \"#utility.yul\":177:201   */\n      tag_48\n      jump\t// in\n    tag_95:\n        /* \"#utility.yul\":172:175   */\n      dup3\n        /* \"#utility.yul\":165:202   */\n      mstore\n        /* \"#utility.yul\":90:208   */\n      pop\n      pop\n      jump\t// out\n        /* \"#utility.yul\":214:436   */\n    tag_11:\n        /* \"#utility.yul\":307:311   */\n      0x00\n        /* \"#utility.yul\":345:347   */\n      0x20\n        /* \"#utility.yul\":334:343   */\n      dup3\n        /* \"#utility.yul\":330:348   */\n      add\n        /* \"#utility.yul\":322:348   */\n      swap1\n      pop\n        /* \"#utility.yul\":358:429   */\n      tag_97\n        /* \"#utility.yul\":426:427   */\n      0x00\n        /* \"#utility.yul\":415:424   */\n      dup4\n        /* \"#utility.yul\":411:428   */\n      add\n        /* \"#utility.yul\":402:408   */\n      dup5\n        /* \"#utility.yul\":358:429   */\n      tag_49\n      jump\t// in\n    tag_97:\n        /* \"#utility.yul\":214:436   */\n      swap3\n      swap2\n      pop\n      pop\n      jump\t// out\n        /* \"#utility.yul\":442:517   */\n    tag_50:\n        /* \"#utility.yul\":475:481   */\n      0x00\n        /* \"#utility.yul\":508:510   */\n      0x40\n        /* \"#utility.yul\":502:511   */\n      mload\n        /* \"#utility.yul\":492:511   */\n      swap1\n      pop\n        /* \"#utility.yul\":442:517   */\n      swap1\n      jump\t// out\n        /* \"#utility.yul\":523:640   */\n    tag_51:\n        /* \"#utility.yul\":632:633   */\n      0x00\n        /* \"#utility.yul\":629:630   */\n      0x00\n        /* \"#utility.yul\":622:634   */\n      revert\n        /* \"#utility.yul\":646:763   */\n    tag_52:\n        /* \"#utility.yul\":755:756   */\n      0x00\n        /* \"#utility.yul\":752:753   */\n      0x00\n        /* \"#utility.yul\":745:757   */\n      revert\n        /* \"#utility.yul\":769:891   */\n    tag_53:\n        /* \"#utility.yul\":842:866   */\n      tag_102\n        /* \"#utility.yul\":860:865   */\n      dup2\n        /* \"#utility.yul\":842:866   */\n      tag_48\n      jump\t// in\n    tag_102:\n        /* \"#utility.yul\":835:840   */\n      dup2\n        /* \"#utility.yul\":832:867   */\n      eq\n        /* \"#utility.yul\":822:885   */\n      tag_103\n      jumpi\n        /* \"#utility.yul\":881:882   */\n      0x00\n        /* \"#utility.yul\":878:879   */\n      0x00\n        /* \"#utility.yul\":871:883   */\n      revert\n        /* \"#utility.yul\":822:885   */\n    tag_103:\n        /* \"#utility.yul\":769:891   */\n      pop\n      jump\t// out\n        /* \"#utility.yul\":897:1036   */\n    tag_54:\n        /* \"#utility.yul\":943:948   */\n      0x00\n        /* \"#utility.yul\":981:987   */\n      dup2\n        /* \"#utility.yul\":968:988   */\n      calldataload\n        /* \"#utility.yul\":959:988   */\n      swap1\n      pop\n        /* \"#utility.yul\":997:1030   */\n      tag_105\n        /* \"#utility.yul\":1024:1029   */\n      dup2\n        /* \"#utility.yul\":997:1030   */\n      tag_53\n      jump\t// in\n    tag_105:\n        /* \"#utility.yul\":897:1036   */\n      swap3\n      swap2\n      pop\n      pop\n      jump\t// out\n        /* \"#utility.yul\":1042:1371   */\n    tag_14:\n        /* \"#utility.yul\":1101:1107   */\n      0x00\n        /* \"#utility.yul\":1150:1152   */\n      0x20\n        /* \"#utility.yul\":1138:1147   */\n      dup3\n        /* \"#utility.yul\":1129:1136   */\n      dup5\n        /* \"#utility.yul\":1125:1148   */\n      sub\n        /* \"#utility.yul\":1121:1153   */\n      slt\n        /* \"#utility.yul\":1118:1237   */\n      iszero\n      tag_107\n      jumpi\n        /* \"#utility.yul\":1156:1235   */\n      tag_108\n      tag_51\n      jump\t// in\n    tag_108:\n        /* \"#utility.yul\":1118:1237   */\n    tag_107:\n        /* \"#utility.yul\":1276:1277   */\n      0x00\n        /* \"#utility.yul\":1301:1354   */\n      tag_109\n        /* \"#utility.yul\":1346:1353   */\n      dup5\n        /* \"#utility.yul\":1337:1343   */\n      dup3\n        /* \"#utility.yul\":1326:1335   */\n      dup6\n        /* \"#utility.yul\":1322:1344   */\n      add\n        /* \"#utility.yul\":1301:1354   */\n      tag_54\n      jump\t// in\n    tag_109:\n        /* \"#utility.yul\":1291:1354   */\n      swap2\n      pop\n        /* \"#utility.yul\":1247:1364   */\n      pop\n        /* \"#utility.yul\":1042:1371   */\n      swap3\n      swap2\n      pop\n      pop\n      jump\t// out\n        /* \"#utility.yul\":1377:1476   */\n    tag_55:\n        /* \"#utility.yul\":1429:1435   */\n      0x00\n        /* \"#utility.yul\":1463:1468   */\n      dup2\n        /* \"#utility.yul\":1457:1469   */\n      mload\n        /* \"#utility.yul\":1447:1469   */\n      swap1\n      pop\n        /* \"#utility.yul\":1377:1476   */\n      swap2\n      swap1\n      pop\n      jump\t// out\n        /* \"#utility.yul\":1482:1651   */\n    tag_56:\n        /* \"#utility.yul\":1566:1577   */\n      0x00\n        /* \"#utility.yul\":1600:1606   */\n      dup3\n        /* \"#utility.yul\":1595:1598   */\n      dup3\n        /* \"#utility.yul\":1588:1607   */\n      mstore\n        /* \"#utility.yul\":1640:1644   */\n      0x20\n        /* \"#utility.yul\":1635:1638   */\n      dup3\n        /* \"#utility.yul\":1631:1645   */\n      add\n        /* \"#utility.yul\":1616:1645   */\n      swap1\n      pop\n        /* \"#utility.yul\":1482:1651   */\n      swap3\n      swap2\n      pop\n      pop\n      jump\t// out\n        /* \"#utility.yul\":1657:1796   */\n    tag_57:\n        /* \"#utility.yul\":1746:1752   */\n      dup3\n        /* \"#utility.yul\":1741:1744   */\n      dup2\n        /* \"#utility.yul\":1736:1739   */\n      dup4\n        /* \"#utility.yul\":1730:1753   */\n      mcopy\n        /* \"#utility.yul\":1787:1788   */\n      0x00\n        /* \"#utility.yul\":1778:1784   */\n      dup4\n        /* \"#utility.yul\":1773:1776   */\n      dup4\n        /* \"#utility.yul\":1769:1785   */\n      add\n        /* \"#utility.yul\":1762:1789   */\n      mstore\n        /* \"#utility.yul\":1657:1796   */\n      pop\n      pop\n      pop\n      jump\t// out\n        /* \"#utility.yul\":1802:1904   */\n    tag_58:\n        /* \"#utility.yul\":1843:1849   */\n      0x00\n        /* \"#utility.yul\":1894:1896   */\n      0x1f\n        /* \"#utility.yul\":1890:1897   */\n      not\n        /* \"#utility.yul\":1885:1887   */\n      0x1f\n        /* \"#utility.yul\":1878:1883   */\n      dup4\n        /* \"#utility.yul\":1874:1888   */\n      add\n        /* \"#utility.yul\":1870:1898   */\n      and\n        /* \"#utility.yul\":1860:1898   */\n      swap1\n      pop\n        /* \"#utility.yul\":1802:1904   */\n      swap2\n      swap1\n      pop\n      jump\t// out\n        /* \"#utility.yul\":1910:2287   */\n    tag_59:\n        /* \"#utility.yul\":1998:2001   */\n      0x00\n        /* \"#utility.yul\":2026:2065   */\n      tag_115\n        /* \"#utility.yul\":2059:2064   */\n      dup3\n        /* \"#utility.yul\":2026:2065   */\n      tag_55\n      jump\t// in\n    tag_115:\n        /* \"#utility.yul\":2081:2152   */\n      tag_116\n        /* \"#utility.yul\":2145:2151   */\n      dup2\n        /* \"#utility.yul\":2140:2143   */\n      dup6\n        /* \"#utility.yul\":2081:2152   */\n      tag_56\n      jump\t// in\n    tag_116:\n        /* \"#utility.yul\":2074:2152   */\n      swap4\n      pop\n        /* \"#utility.yul\":2161:2226   */\n      tag_117\n        /* \"#utility.yul\":2219:2225   */\n      dup2\n        /* \"#utility.yul\":2214:2217   */\n      dup6\n        /* \"#utility.yul\":2207:2211   */\n      0x20\n        /* \"#utility.yul\":2200:2205   */\n      dup7\n        /* \"#utility.yul\":2196:2212   */\n      add\n        /* \"#utility.yul\":2161:2226   */\n      tag_57\n      jump\t// in\n    tag_117:\n        /* \"#utility.yul\":2251:2280   */\n      tag_118\n        /* \"#utility.yul\":2273:2279   */\n      dup2\n        /* \"#utility.yul\":2251:2280   */\n      tag_58\n      jump\t// in\n    tag_118:\n        /* \"#utility.yul\":2246:2249   */\n      dup5\n        /* \"#utility.yul\":2242:2281   */\n      add\n        /* \"#utility.yul\":2235:2281   */\n      swap2\n      pop\n        /* \"#utility.yul\":2002:2287   */\n      pop\n        /* \"#utility.yul\":1910:2287   */\n      swap3\n      swap2\n      pop\n      pop\n      jump\t// out\n        /* \"#utility.yul\":2293:2716   */\n    tag_17:\n        /* \"#utility.yul\":2434:2438   */\n      0x00\n        /* \"#utility.yul\":2472:2474   */\n      0x40\n        /* \"#utility.yul\":2461:2470   */\n      dup3\n        /* \"#utility.yul\":2457:2475   */\n      add\n        /* \"#utility.yul\":2449:2475   */\n      swap1\n      pop\n        /* \"#utility.yul\":2485:2556   */\n      tag_120\n        /* \"#utility.yul\":2553:2554   */\n      0x00\n        /* \"#utility.yul\":2542:2551   */\n      dup4\n        /* \"#utility.yul\":2538:2555   */\n      add\n        /* \"#utility.yul\":2529:2535   */\n      dup6\n        /* \"#utility.yul\":2485:2556   */\n      tag_49\n      jump\t// in\n    tag_120:\n        /* \"#utility.yul\":2603:2612   */\n      dup2\n        /* \"#utility.yul\":2597:2601   */\n      dup2\n        /* \"#utility.yul\":2593:2613   */\n      sub\n        /* \"#utility.yul\":2588:2590   */\n      0x20\n        /* \"#utility.yul\":2577:2586   */\n      dup4\n        /* \"#utility.yul\":2573:2591   */\n      add\n        /* \"#utility.yul\":2566:2614   */\n      mstore\n        /* \"#utility.yul\":2631:2709   */\n      tag_121\n        /* \"#utility.yul\":2704:2708   */\n      dup2\n        /* \"#utility.yul\":2695:2701   */\n      dup5\n        /* \"#utility.yul\":2631:2709   */\n      tag_59\n      jump\t// in\n    tag_121:\n        /* \"#utility.yul\":2623:2709   */\n      swap1\n      pop\n        /* \"#utility.yul\":2293:2716   */\n      swap4\n      swap3\n      pop\n      pop\n      pop\n      jump\t// out\n        /* \"#utility.yul\":2722:2839   */\n    tag_60:\n        /* \"#utility.yul\":2831:2832   */\n      0x00\n        /* \"#utility.yul\":2828:2829   */\n      0x00\n        /* \"#utility.yul\":2821:2833   */\n      revert\n        /* \"#utility.yul\":2845:2962   */\n    tag_61:\n        /* \"#utility.yul\":2954:2955   */\n      0x00\n        /* \"#utility.yul\":2951:2952   */\n      0x00\n        /* \"#utility.yul\":2944:2956   */\n      revert\n        /* \"#utility.yul\":2968:3148   */\n    tag_62:\n        /* \"#utility.yul\":3016:3093   */\n      0x4e487b7100000000000000000000000000000000000000000000000000000000\n        /* \"#utility.yul\":3013:3014   */\n      0x00\n        /* \"#utility.yul\":3006:3094   */\n      mstore\n        /* \"#utility.yul\":3113:3117   */\n      0x41\n        /* \"#utility.yul\":3110:3111   */\n      0x04\n        /* \"#utility.yul\":3103:3118   */\n      mstore\n        /* \"#utility.yul\":3137:3141   */\n      0x24\n        /* \"#utility.yul\":3134:3135   */\n      0x00\n        /* \"#utility.yul\":3127:3142   */\n      revert\n        /* \"#utility.yul\":3154:3435   */\n    tag_63:\n        /* \"#utility.yul\":3237:3264   */\n      tag_126\n        /* \"#utility.yul\":3259:3263   */\n      dup3\n        /* \"#utility.yul\":3237:3264   */\n      tag_58\n      jump\t// in\n    tag_126:\n        /* \"#utility.yul\":3229:3235   */\n      dup2\n        /* \"#utility.yul\":3225:3265   */\n      add\n        /* \"#utility.yul\":3367:3373   */\n      dup2\n        /* \"#utility.yul\":3355:3365   */\n      dup2\n        /* \"#utility.yul\":3352:3374   */\n      lt\n        /* \"#utility.yul\":3331:3349   */\n      0xffffffffffffffff\n        /* \"#utility.yul\":3319:3329   */\n      dup3\n        /* \"#utility.yul\":3316:3350   */\n      gt\n        /* \"#utility.yul\":3313:3375   */\n      or\n        /* \"#utility.yul\":3310:3398   */\n      iszero\n      tag_127\n      jumpi\n        /* \"#utility.yul\":3378:3396   */\n      tag_128\n      tag_62\n      jump\t// in\n    tag_128:\n        /* \"#utility.yul\":3310:3398   */\n    tag_127:\n        /* \"#utility.yul\":3418:3428   */\n      dup1\n        /* \"#utility.yul\":3414:3416   */\n      0x40\n        /* \"#utility.yul\":3407:3429   */\n      mstore\n        /* \"#utility.yul\":3197:3435   */\n      pop\n        /* \"#utility.yul\":3154:3435   */\n      pop\n      pop\n      jump\t// out\n        /* \"#utility.yul\":3441:3570   */\n    tag_64:\n        /* \"#utility.yul\":3475:3481   */\n      0x00\n        /* \"#utility.yul\":3502:3522   */\n      tag_130\n      tag_50\n      jump\t// in\n    tag_130:\n        /* \"#utility.yul\":3492:3522   */\n      swap1\n      pop\n        /* \"#utility.yul\":3531:3564   */\n      tag_131\n        /* \"#utility.yul\":3559:3563   */\n      dup3\n        /* \"#utility.yul\":3551:3557   */\n      dup3\n        /* \"#utility.yul\":3531:3564   */\n      tag_63\n      jump\t// in\n    tag_131:\n        /* \"#utility.yul\":3441:3570   */\n      swap2\n      swap1\n      pop\n      jump\t// out\n        /* \"#utility.yul\":3576:3884   */\n    tag_65:\n        /* \"#utility.yul\":3638:3642   */\n      0x00\n        /* \"#utility.yul\":3728:3746   */\n      0xffffffffffffffff\n        /* \"#utility.yul\":3720:3726   */\n      dup3\n        /* \"#utility.yul\":3717:3747   */\n      gt\n        /* \"#utility.yul\":3714:3770   */\n      iszero\n      tag_133\n      jumpi\n        /* \"#utility.yul\":3750:3768   */\n      tag_134\n      tag_62\n      jump\t// in\n    tag_134:\n        /* \"#utility.yul\":3714:3770   */\n    tag_133:\n        /* \"#utility.yul\":3788:3817   */\n      tag_135\n        /* \"#utility.yul\":3810:3816   */\n      dup3\n        /* \"#utility.yul\":3788:3817   */\n      tag_58\n      jump\t// in\n    tag_135:\n        /* \"#utility.yul\":3780:3817   */\n      swap1\n      pop\n        /* \"#utility.yul\":3872:3876   */\n      0x20\n        /* \"#utility.yul\":3866:3870   */\n      dup2\n        /* \"#utility.yul\":3862:3877   */\n      add\n        /* \"#utility.yul\":3854:3877   */\n      swap1\n      pop\n        /* \"#utility.yul\":3576:3884   */\n      swap2\n      swap1\n      pop\n      jump\t// out\n        /* \"#utility.yul\":3890:4038   */\n    tag_66:\n        /* \"#utility.yul\":3988:3994   */\n      dup3\n        /* \"#utility.yul\":3983:3986   */\n      dup2\n        /* \"#utility.yul\":3978:3981   */\n      dup4\n        /* \"#utility.yul\":3965:3995   */\n      calldatacopy\n        /* \"#utility.yul\":4029:4030   */\n      0x00\n        /* \"#utility.yul\":4020:4026   */\n      dup4\n        /* \"#utility.yul\":4015:4018   */\n      dup4\n        /* \"#utility.yul\":4011:4027   */\n      add\n        /* \"#utility.yul\":4004:4031   */\n      mstore\n        /* \"#utility.yul\":3890:4038   */\n      pop\n      pop\n      pop\n      jump\t// out\n        /* \"#utility.yul\":4044:4469   */\n    tag_67:\n        /* \"#utility.yul\":4122:4127   */\n      0x00\n        /* \"#utility.yul\":4147:4213   */\n      tag_138\n        /* \"#utility.yul\":4163:4212   */\n      tag_139\n        /* \"#utility.yul\":4205:4211   */\n      dup5\n        /* \"#utility.yul\":4163:4212   */\n      tag_65\n      jump\t// in\n    tag_139:\n        /* \"#utility.yul\":4147:4213   */\n      tag_64\n      jump\t// in\n    tag_138:\n        /* \"#utility.yul\":4138:4213   */\n      swap1\n      pop\n        /* \"#utility.yul\":4236:4242   */\n      dup3\n        /* \"#utility.yul\":4229:4234   */\n      dup2\n        /* \"#utility.yul\":4222:4243   */\n      mstore\n        /* \"#utility.yul\":4274:4278   */\n      0x20\n        /* \"#utility.yul\":4267:4272   */\n      dup2\n        /* \"#utility.yul\":4263:4279   */\n      add\n        /* \"#utility.yul\":4312:4315   */\n      dup5\n        /* \"#utility.yul\":4303:4309   */\n      dup5\n        /* \"#utility.yul\":4298:4301   */\n      dup5\n        /* \"#utility.yul\":4294:4310   */\n      add\n        /* \"#utility.yul\":4291:4316   */\n      gt\n        /* \"#utility.yul\":4288:4400   */\n      iszero\n      tag_140\n      jumpi\n        /* \"#utility.yul\":4319:4398   */\n      tag_141\n      tag_61\n      jump\t// in\n    tag_141:\n        /* \"#utility.yul\":4288:4400   */\n    tag_140:\n        /* \"#utility.yul\":4409:4463   */\n      tag_142\n        /* \"#utility.yul\":4456:4462   */\n      dup5\n        /* \"#utility.yul\":4451:4454   */\n      dup3\n        /* \"#utility.yul\":4446:4449   */\n      dup6\n        /* \"#utility.yul\":4409:4463   */\n      tag_66\n      jump\t// in\n    tag_142:\n        /* \"#utility.yul\":4128:4469   */\n      pop\n        /* \"#utility.yul\":4044:4469   */\n      swap4\n      swap3\n      pop\n      pop\n      pop\n      jump\t// out\n        /* \"#utility.yul\":4489:4829   */\n    tag_68:\n        /* \"#utility.yul\":4545:4550   */\n      0x00\n        /* \"#utility.yul\":4594:4597   */\n      dup3\n        /* \"#utility.yul\":4587:4591   */\n      0x1f\n        /* \"#utility.yul\":4579:4585   */\n      dup4\n        /* \"#utility.yul\":4575:4592   */\n      add\n        /* \"#utility.yul\":4571:4598   */\n      slt\n        /* \"#utility.yul\":4561:4683   */\n      tag_144\n      jumpi\n        /* \"#utility.yul\":4602:4681   */\n      tag_145\n      tag_60\n      jump\t// in\n    tag_145:\n        /* \"#utility.yul\":4561:4683   */\n    tag_144:\n        /* \"#utility.yul\":4719:4725   */\n      dup2\n        /* \"#utility.yul\":4706:4726   */\n      calldataload\n        /* \"#utility.yul\":4744:4823   */\n      tag_146\n        /* \"#utility.yul\":4819:4822   */\n      dup5\n        /* \"#utility.yul\":4811:4817   */\n      dup3\n        /* \"#utility.yul\":4804:4808   */\n      0x20\n        /* \"#utility.yul\":4796:4802   */\n      dup7\n        /* \"#utility.yul\":4792:4809   */\n      add\n        /* \"#utility.yul\":4744:4823   */\n      tag_67\n      jump\t// in\n    tag_146:\n        /* \"#utility.yul\":4735:4823   */\n      swap2\n      pop\n        /* \"#utility.yul\":4551:4829   */\n      pop\n        /* \"#utility.yul\":4489:4829   */\n      swap3\n      swap2\n      pop\n      pop\n      jump\t// out\n        /* \"#utility.yul\":4835:5489   */\n    tag_23:\n        /* \"#utility.yul\":4913:4919   */\n      0x00\n        /* \"#utility.yul\":4921:4927   */\n      0x00\n        /* \"#utility.yul\":4970:4972   */\n      0x40\n        /* \"#utility.yul\":4958:4967   */\n      dup4\n        /* \"#utility.yul\":4949:4956   */\n      dup6\n        /* \"#utility.yul\":4945:4968   */\n      sub\n        /* \"#utility.yul\":4941:4973   */\n      slt\n        /* \"#utility.yul\":4938:5057   */\n      iszero\n      tag_148\n      jumpi\n        /* \"#utility.yul\":4976:5055   */\n      tag_149\n      tag_51\n      jump\t// in\n    tag_149:\n        /* \"#utility.yul\":4938:5057   */\n    tag_148:\n        /* \"#utility.yul\":5124:5125   */\n      0x00\n        /* \"#utility.yul\":5113:5122   */\n      dup4\n        /* \"#utility.yul\":5109:5126   */\n      add\n        /* \"#utility.yul\":5096:5127   */\n      calldataload\n        /* \"#utility.yul\":5154:5172   */\n      0xffffffffffffffff\n        /* \"#utility.yul\":5146:5152   */\n      dup2\n        /* \"#utility.yul\":5143:5173   */\n      gt\n        /* \"#utility.yul\":5140:5257   */\n      iszero\n      tag_150\n      jumpi\n        /* \"#utility.yul\":5176:5255   */\n      tag_151\n      tag_52\n      jump\t// in\n    tag_151:\n        /* \"#utility.yul\":5140:5257   */\n    tag_150:\n        /* \"#utility.yul\":5281:5344   */\n      tag_152\n        /* \"#utility.yul\":5336:5343   */\n      dup6\n        /* \"#utility.yul\":5327:5333   */\n      dup3\n        /* \"#utility.yul\":5316:5325   */\n      dup7\n        /* \"#utility.yul\":5312:5334   */\n      add\n        /* \"#utility.yul\":5281:5344   */\n      tag_68\n      jump\t// in\n    tag_152:\n        /* \"#utility.yul\":5271:5344   */\n      swap3\n      pop\n        /* \"#utility.yul\":5067:5354   */\n      pop\n        /* \"#utility.yul\":5393:5395   */\n      0x20\n        /* \"#utility.yul\":5419:5472   */\n      tag_153\n        /* \"#utility.yul\":5464:5471   */\n      dup6\n        /* \"#utility.yul\":5455:5461   */\n      dup3\n        /* \"#utility.yul\":5444:5453   */\n      dup7\n        /* \"#utility.yul\":5440:5462   */\n      add\n        /* \"#utility.yul\":5419:5472   */\n      tag_54\n      jump\t// in\n    tag_153:\n        /* \"#utility.yul\":5409:5472   */\n      swap2\n      pop\n        /* \"#utility.yul\":5364:5482   */\n      pop\n        /* \"#utility.yul\":4835:5489   */\n      swap3\n      pop\n      swap3\n      swap1\n      pop\n      jump\t// out\n        /* \"#utility.yul\":5495:6004   */\n    tag_27:\n        /* \"#utility.yul\":5564:5570   */\n      0x00\n        /* \"#utility.yul\":5613:5615   */\n      0x20\n        /* \"#utility.yul\":5601:5610   */\n      dup3\n        /* \"#utility.yul\":5592:5599   */\n      dup5\n        /* \"#utility.yul\":5588:5611   */\n      sub\n        /* \"#utility.yul\":5584:5616   */\n      slt\n        /* \"#utility.yul\":5581:5700   */\n      iszero\n      tag_155\n      jumpi\n        /* \"#utility.yul\":5619:5698   */\n      tag_156\n      tag_51\n      jump\t// in\n    tag_156:\n        /* \"#utility.yul\":5581:5700   */\n    tag_155:\n        /* \"#utility.yul\":5767:5768   */\n      0x00\n        /* \"#utility.yul\":5756:5765   */\n      dup3\n        /* \"#utility.yul\":5752:5769   */\n      add\n        /* \"#utility.yul\":5739:5770   */\n      calldataload\n        /* \"#utility.yul\":5797:5815   */\n      0xffffffffffffffff\n        /* \"#utility.yul\":5789:5795   */\n      dup2\n        /* \"#utility.yul\":5786:5816   */\n      gt\n        /* \"#utility.yul\":5783:5900   */\n      iszero\n      tag_157\n      jumpi\n        /* \"#utility.yul\":5819:5898   */\n      tag_158\n      tag_52\n      jump\t// in\n    tag_158:\n        /* \"#utility.yul\":5783:5900   */\n    tag_157:\n        /* \"#utility.yul\":5924:5987   */\n      tag_159\n        /* \"#utility.yul\":5979:5986   */\n      dup5\n        /* \"#utility.yul\":5970:5976   */\n      dup3\n        /* \"#utility.yul\":5959:5968   */\n      dup6\n        /* \"#utility.yul\":5955:5977   */\n      add\n        /* \"#utility.yul\":5924:5987   */\n      tag_68\n      jump\t// in\n    tag_159:\n        /* \"#utility.yul\":5914:5987   */\n      swap2\n      pop\n        /* \"#utility.yul\":5710:5997   */\n      pop\n        /* \"#utility.yul\":5495:6004   */\n      swap3\n      swap2\n      pop\n      pop\n      jump\t// out\n        /* \"#utility.yul\":6010:6190   */\n    tag_69:\n        /* \"#utility.yul\":6058:6135   */\n      0x4e487b7100000000000000000000000000000000000000000000000000000000\n        /* \"#utility.yul\":6055:6056   */\n      0x00\n        /* \"#utility.yul\":6048:6136   */\n      mstore\n        /* \"#utility.yul\":6155:6159   */\n      0x22\n        /* \"#utility.yul\":6152:6153   */\n      0x04\n        /* \"#utility.yul\":6145:6160   */\n      mstore\n        /* \"#utility.yul\":6179:6183   */\n      0x24\n        /* \"#utility.yul\":6176:6177   */\n      0x00\n        /* \"#utility.yul\":6169:6184   */\n      revert\n        /* \"#utility.yul\":6196:6516   */\n    tag_34:\n        /* \"#utility.yul\":6240:6246   */\n      0x00\n        /* \"#utility.yul\":6277:6278   */\n      0x02\n        /* \"#utility.yul\":6271:6275   */\n      dup3\n        /* \"#utility.yul\":6267:6279   */\n      div\n        /* \"#utility.yul\":6257:6279   */\n      swap1\n      pop\n        /* \"#utility.yul\":6324:6325   */\n      0x01\n        /* \"#utility.yul\":6318:6322   */\n      dup3\n        /* \"#utility.yul\":6314:6326   */\n      and\n        /* \"#utility.yul\":6345:6363   */\n      dup1\n        /* \"#utility.yul\":6335:6416   */\n      tag_162\n      jumpi\n        /* \"#utility.yul\":6401:6405   */\n      0x7f\n        /* \"#utility.yul\":6393:6399   */\n      dup3\n        /* \"#utility.yul\":6389:6406   */\n      and\n        /* \"#utility.yul\":6379:6406   */\n      swap2\n      pop\n        /* \"#utility.yul\":6335:6416   */\n    tag_162:\n        /* \"#utility.yul\":6463:6465   */\n      0x20\n        /* \"#utility.yul\":6455:6461   */\n      dup3\n        /* \"#utility.yul\":6452:6466   */\n      lt\n        /* \"#utility.yul\":6432:6450   */\n      dup2\n        /* \"#utility.yul\":6429:6467   */\n      sub\n        /* \"#utility.yul\":6426:6510   */\n      tag_163\n      jumpi\n        /* \"#utility.yul\":6482:6500   */\n      tag_164\n      tag_69\n      jump\t// in\n    tag_164:\n        /* \"#utility.yul\":6426:6510   */\n    tag_163:\n        /* \"#utility.yul\":6247:6516   */\n      pop\n        /* \"#utility.yul\":6196:6516   */\n      swap2\n      swap1\n      pop\n      jump\t// out\n        /* \"#utility.yul\":6522:6702   */\n    tag_70:\n        /* \"#utility.yul\":6570:6647   */\n      0x4e487b7100000000000000000000000000000000000000000000000000000000\n        /* \"#utility.yul\":6567:6568   */\n      0x00\n        /* \"#utility.yul\":6560:6648   */\n      mstore\n        /* \"#utility.yul\":6667:6671   */\n      0x11\n        /* \"#utility.yul\":6664:6665   */\n      0x04\n        /* \"#utility.yul\":6657:6672   */\n      mstore\n        /* \"#utility.yul\":6691:6695   */\n      0x24\n        /* \"#utility.yul\":6688:6689   */\n      0x00\n        /* \"#utility.yul\":6681:6696   */\n      revert\n        /* \"#utility.yul\":6708:6810   */\n    tag_71:\n        /* \"#utility.yul\":6750:6758   */\n      0x00\n        /* \"#utility.yul\":6797:6802   */\n      dup2\n        /* \"#utility.yul\":6794:6795   */\n      0x01\n        /* \"#utility.yul\":6790:6803   */\n      shr\n        /* \"#utility.yul\":6769:6803   */\n      swap1\n      pop\n        /* \"#utility.yul\":6708:6810   */\n      swap2\n      swap1\n      pop\n      jump\t// out\n        /* \"#utility.yul\":6816:7664   */\n    tag_72:\n        /* \"#utility.yul\":6877:6882   */\n      0x00\n        /* \"#utility.yul\":6884:6888   */\n      0x00\n        /* \"#utility.yul\":6908:6914   */\n      dup3\n        /* \"#utility.yul\":6899:6914   */\n      swap2\n      pop\n        /* \"#utility.yul\":6932:6937   */\n      dup4\n        /* \"#utility.yul\":6923:6937   */\n      swap1\n      pop\n        /* \"#utility.yul\":6946:7658   */\n    tag_168:\n        /* \"#utility.yul\":6967:6968   */\n      0x01\n        /* \"#utility.yul\":6957:6965   */\n      dup6\n        /* \"#utility.yul\":6954:6969   */\n      gt\n        /* \"#utility.yul\":6946:7658   */\n      iszero\n      tag_170\n      jumpi\n        /* \"#utility.yul\":7062:7066   */\n      dup1\n        /* \"#utility.yul\":7057:7060   */\n      dup7\n        /* \"#utility.yul\":7053:7067   */\n      div\n        /* \"#utility.yul\":7047:7051   */\n      dup2\n        /* \"#utility.yul\":7044:7068   */\n      gt\n        /* \"#utility.yul\":7041:7091   */\n      iszero\n      tag_171\n      jumpi\n        /* \"#utility.yul\":7071:7089   */\n      tag_172\n      tag_70\n      jump\t// in\n    tag_172:\n        /* \"#utility.yul\":7041:7091   */\n    tag_171:\n        /* \"#utility.yul\":7121:7122   */\n      0x01\n        /* \"#utility.yul\":7111:7119   */\n      dup6\n        /* \"#utility.yul\":7107:7123   */\n      and\n        /* \"#utility.yul\":7104:7555   */\n      iszero\n      tag_173\n      jumpi\n        /* \"#utility.yul\":7536:7540   */\n      dup1\n        /* \"#utility.yul\":7529:7534   */\n      dup3\n        /* \"#utility.yul\":7525:7541   */\n      mul\n        /* \"#utility.yul\":7516:7541   */\n      swap2\n      pop\n        /* \"#utility.yul\":7104:7555   */\n    tag_173:\n        /* \"#utility.yul\":7586:7590   */\n      dup1\n        /* \"#utility.yul\":7580:7584   */\n      dup2\n        /* \"#utility.yul\":7576:7591   */\n      mul\n        /* \"#utility.yul\":7568:7591   */\n      swap1\n      pop\n        /* \"#utility.yul\":7616:7648   */\n      tag_174\n        /* \"#utility.yul\":7639:7647   */\n      dup6\n        /* \"#utility.yul\":7616:7648   */\n      tag_71\n      jump\t// in\n    tag_174:\n        /* \"#utility.yul\":7604:7648   */\n      swap5\n      pop\n        /* \"#utility.yul\":6946:7658   */\n      jump(tag_168)\n    tag_170:\n        /* \"#utility.yul\":6816:7664   */\n      swap5\n      pop\n      swap5\n      swap3\n      pop\n      pop\n      pop\n      jump\t// out\n        /* \"#utility.yul\":7670:8743   */\n    tag_73:\n        /* \"#utility.yul\":7724:7729   */\n      0x00\n        /* \"#utility.yul\":7915:7923   */\n      dup3\n        /* \"#utility.yul\":7905:7945   */\n      tag_176\n      jumpi\n        /* \"#utility.yul\":7936:7937   */\n      0x01\n        /* \"#utility.yul\":7927:7937   */\n      swap1\n      pop\n        /* \"#utility.yul\":7938:7943   */\n      jump(tag_175)\n        /* \"#utility.yul\":7905:7945   */\n    tag_176:\n        /* \"#utility.yul\":7964:7968   */\n      dup2\n        /* \"#utility.yul\":7954:7990   */\n      tag_177\n      jumpi\n        /* \"#utility.yul\":7981:7982   */\n      0x00\n        /* \"#utility.yul\":7972:7982   */\n      swap1\n      pop\n        /* \"#utility.yul\":7983:7988   */\n      jump(tag_175)\n        /* \"#utility.yul\":7954:7990   */\n    tag_177:\n        /* \"#utility.yul\":8050:8054   */\n      dup2\n        /* \"#utility.yul\":8098:8099   */\n      0x01\n        /* \"#utility.yul\":8093:8120   */\n      dup2\n      eq\n      tag_179\n      jumpi\n        /* \"#utility.yul\":8134:8135   */\n      0x02\n        /* \"#utility.yul\":8129:8320   */\n      dup2\n      eq\n      tag_180\n      jumpi\n        /* \"#utility.yul\":8043:8320   */\n      jump(tag_178)\n        /* \"#utility.yul\":8093:8120   */\n    tag_179:\n        /* \"#utility.yul\":8111:8112   */\n      0x01\n        /* \"#utility.yul\":8102:8112   */\n      swap2\n      pop\n        /* \"#utility.yul\":8113:8118   */\n      pop\n      jump(tag_175)\n        /* \"#utility.yul\":8129:8320   */\n    tag_180:\n        /* \"#utility.yul\":8174:8177   */\n      0xff\n        /* \"#utility.yul\":8164:8172   */\n      dup5\n        /* \"#utility.yul\":8161:8178   */\n      gt\n        /* \"#utility.yul\":8158:8201   */\n      iszero\n      tag_181\n      jumpi\n        /* \"#utility.yul\":8181:8199   */\n      tag_182\n      tag_70\n      jump\t// in\n    tag_182:\n        /* \"#utility.yul\":8158:8201   */\n    tag_181:\n        /* \"#utility.yul\":8230:8238   */\n      dup4\n        /* \"#utility.yul\":8227:8228   */\n      0x02\n        /* \"#utility.yul\":8223:8239   */\n      exp\n        /* \"#utility.yul\":8214:8239   */\n      swap2\n      pop\n        /* \"#utility.yul\":8265:8268   */\n      dup5\n        /* \"#utility.yul\":8258:8263   */\n      dup3\n        /* \"#utility.yul\":8255:8269   */\n      gt\n        /* \"#utility.yul\":8252:8292   */\n      iszero\n      tag_183\n      jumpi\n        /* \"#utility.yul\":8272:8290   */\n      tag_184\n      tag_70\n      jump\t// in\n    tag_184:\n        /* \"#utility.yul\":8252:8292   */\n    tag_183:\n        /* \"#utility.yul\":8305:8310   */\n      pop\n      jump(tag_175)\n        /* \"#utility.yul\":8043:8320   */\n    tag_178:\n      pop\n        /* \"#utility.yul\":8429:8431   */\n      0x20\n        /* \"#utility.yul\":8419:8427   */\n      dup4\n        /* \"#utility.yul\":8416:8432   */\n      lt\n        /* \"#utility.yul\":8410:8413   */\n      0x0133\n        /* \"#utility.yul\":8404:8408   */\n      dup4\n        /* \"#utility.yul\":8401:8414   */\n      lt\n        /* \"#utility.yul\":8397:8433   */\n      and\n        /* \"#utility.yul\":8379:8381   */\n      0x4e\n        /* \"#utility.yul\":8369:8377   */\n      dup5\n        /* \"#utility.yul\":8366:8382   */\n      lt\n        /* \"#utility.yul\":8361:8363   */\n      0x0b\n        /* \"#utility.yul\":8355:8359   */\n      dup5\n        /* \"#utility.yul\":8352:8364   */\n      lt\n        /* \"#utility.yul\":8348:8383   */\n      and\n        /* \"#utility.yul\":8332:8443   */\n      or\n        /* \"#utility.yul\":8329:8575   */\n      iszero\n      tag_185\n      jumpi\n        /* \"#utility.yul\":8485:8493   */\n      dup3\n        /* \"#utility.yul\":8479:8483   */\n      dup3\n        /* \"#utility.yul\":8475:8494   */\n      exp\n        /* \"#utility.yul\":8466:8494   */\n      swap1\n      pop\n        /* \"#utility.yul\":8520:8523   */\n      dup4\n        /* \"#utility.yul\":8513:8518   */\n      dup2\n        /* \"#utility.yul\":8510:8524   */\n      gt\n        /* \"#utility.yul\":8507:8547   */\n      iszero\n      tag_186\n      jumpi\n        /* \"#utility.yul\":8527:8545   */\n      tag_187\n      tag_70\n      jump\t// in\n    tag_187:\n        /* \"#utility.yul\":8507:8547   */\n    tag_186:\n        /* \"#utility.yul\":8560:8565   */\n      jump(tag_175)\n        /* \"#utility.yul\":8329:8575   */\n    tag_185:\n        /* \"#utility.yul\":8600:8642   */\n      tag_188\n        /* \"#utility.yul\":8638:8641   */\n      dup5\n        /* \"#utility.yul\":8628:8636   */\n      dup5\n        /* \"#utility.yul\":8622:8626   */\n      dup5\n        /* \"#utility.yul\":8619:8620   */\n      0x01\n        /* \"#utility.yul\":8600:8642   */\n      tag_72\n      jump\t// in\n    tag_188:\n        /* \"#utility.yul\":8585:8642   */\n      swap3\n      pop\n      swap1\n      pop\n        /* \"#utility.yul\":8674:8678   */\n      dup2\n        /* \"#utility.yul\":8669:8672   */\n      dup5\n        /* \"#utility.yul\":8665:8679   */\n      div\n        /* \"#utility.yul\":8658:8663   */\n      dup2\n        /* \"#utility.yul\":8655:8680   */\n      gt\n        /* \"#utility.yul\":8652:8703   */\n      iszero\n      tag_189\n      jumpi\n        /* \"#utility.yul\":8683:8701   */\n      tag_190\n      tag_70\n      jump\t// in\n    tag_190:\n        /* \"#utility.yul\":8652:8703   */\n    tag_189:\n        /* \"#utility.yul\":8732:8736   */\n      dup2\n        /* \"#utility.yul\":8725:8730   */\n      dup2\n        /* \"#utility.yul\":8721:8737   */\n      mul\n        /* \"#utility.yul\":8712:8737   */\n      swap1\n      pop\n        /* \"#utility.yul\":7670:8743   */\n    tag_175:\n      swap4\n      swap3\n      pop\n      pop\n      pop\n      jump\t// out\n        /* \"#utility.yul\":8749:8835   */\n    tag_74:\n        /* \"#utility.yul\":8784:8791   */\n      0x00\n        /* \"#utility.yul\":8824:8828   */\n      0xff\n        /* \"#utility.yul\":8817:8822   */\n      dup3\n        /* \"#utility.yul\":8813:8829   */\n      and\n        /* \"#utility.yul\":8802:8829   */\n      swap1\n      pop\n        /* \"#utility.yul\":8749:8835   */\n      swap2\n      swap1\n      pop\n      jump\t// out\n        /* \"#utility.yul\":8841:9122   */\n    tag_41:\n        /* \"#utility.yul\":8899:8904   */\n      0x00\n        /* \"#utility.yul\":8923:8946   */\n      tag_193\n        /* \"#utility.yul\":8941:8945   */\n      dup3\n        /* \"#utility.yul\":8923:8946   */\n      tag_48\n      jump\t// in\n    tag_193:\n        /* \"#utility.yul\":8915:8946   */\n      swap2\n      pop\n        /* \"#utility.yul\":8967:8992   */\n      tag_194\n        /* \"#utility.yul\":8983:8991   */\n      dup4\n        /* \"#utility.yul\":8967:8992   */\n      tag_74\n      jump\t// in\n    tag_194:\n        /* \"#utility.yul\":8955:8992   */\n      swap3\n      pop\n        /* \"#utility.yul\":9011:9115   */\n      tag_195\n        /* \"#utility.yul\":9048:9114   */\n      0xffffffffffffffffffffffffffffffffffffffffffffffffffffffffffffffff\n        /* \"#utility.yul\":9038:9046   */\n      dup5\n        /* \"#utility.yul\":9032:9036   */\n      dup5\n        /* \"#utility.yul\":9011:9115   */\n      tag_73\n      jump\t// in\n    tag_195:\n        /* \"#utility.yul\":9002:9115   */\n      swap1\n      pop\n        /* \"#utility.yul\":8841:9122   */\n      swap3\n      swap2\n      pop\n      pop\n      jump\t// out\n        /* \"#utility.yul\":9128:9269   */\n    tag_75:\n        /* \"#utility.yul\":9177:9181   */\n      0x00\n        /* \"#utility.yul\":9200:9203   */\n      dup2\n        /* \"#utility.yul\":9192:9203   */\n      swap1\n      pop\n        /* \"#utility.yul\":9223:9226   */\n      dup2\n        /* \"#utility.yul\":9220:9221   */\n      0x00\n        /* \"#utility.yul\":9213:9227   */\n      mstore\n        /* \"#utility.yul\":9257:9261   */\n      0x20\n        /* \"#utility.yul\":9254:9255   */\n      0x00\n        /* \"#utility.yul\":9244:9262   */\n      keccak256\n        /* \"#utility.yul\":9236:9262   */\n      swap1\n      pop\n        /* \"#utility.yul\":9128:9269   */\n      swap2\n      swap1\n      pop\n      jump\t// out\n        /* \"#utility.yul\":9275:9368   */\n    tag_76:\n        /* \"#utility.yul\":9312:9318   */\n      0x00\n        /* \"#utility.yul\":9359:9361   */\n      0x20\n        /* \"#utility.yul\":9354:9356   */\n      0x1f\n        /* \"#utility.yul\":9347:9352   */\n      dup4\n        /* \"#utility.yul\":9343:9357   */\n      add\n        /* \"#utility.yul\":9339:9362   */\n      div\n        /* \"#utility.yul\":9329:9362   */\n      swap1\n      pop\n        /* \"#utility.yul\":9275:9368   */\n      swap2\n      swap1\n      pop\n      jump\t// out\n        /* \"#utility.yul\":9374:9481   */\n    tag_77:\n        /* \"#utility.yul\":9418:9426   */\n      0x00\n        /* \"#utility.yul\":9468:9473   */\n      dup3\n        /* \"#utility.yul\":9462:9466   */\n      dup3\n        /* \"#utility.yul\":9458:9474   */\n      shl\n        /* \"#utility.yul\":9437:9474   */\n      swap1\n      pop\n        /* \"#utility.yul\":9374:9481   */\n      swap3\n      swap2\n      pop\n      pop\n      jump\t// out\n        /* \"#utility.yul\":9487:9880   */\n    tag_78:\n        /* \"#utility.yul\":9556:9562   */\n      0x00\n        /* \"#utility.yul\":9606:9607   */\n      0x08\n        /* \"#utility.yul\":9594:9604   */\n      dup4\n        /* \"#utility.yul\":9590:9608   */\n      mul\n        /* \"#utility.yul\":9629:9726   */\n      tag_200\n        /* \"#utility.yul\":9659:9725   */\n      0xffffffffffffffffffffffffffffffffffffffffffffffffffffffffffffffff\n        /* \"#utility.yul\":9648:9657   */\n      dup3\n        /* \"#utility.yul\":9629:9726   */\n      tag_77\n      jump\t// in\n    tag_200:\n        /* \"#utility.yul\":9747:9786   */\n      tag_201\n        /* \"#utility.yul\":9777:9785   */\n      dup7\n        /* \"#utility.yul\":9766:9775   */\n      dup4\n        /* \"#utility.yul\":9747:9786   */\n      tag_77\n      jump\t// in\n    tag_201:\n        /* \"#utility.yul\":9735:9786   */\n      swap6\n      pop\n        /* \"#utility.yul\":9819:9823   */\n      dup1\n        /* \"#utility.yul\":9815:9824   */\n      not\n        /* \"#utility.yul\":9808:9813   */\n      dup5\n        /* \"#utility.yul\":9804:9825   */\n      and\n        /* \"#utility.yul\":9795:9825   */\n      swap4\n      pop\n        /* \"#utility.yul\":9868:9872   */\n      dup1\n        /* \"#utility.yul\":9858:9866   */\n      dup7\n        /* \"#utility.yul\":9854:9873   */\n      and\n        /* \"#utility.yul\":9847:9852   */\n      dup5\n        /* \"#utility.yul\":9844:9874   */\n      or\n        /* \"#utility.yul\":9834:9874   */\n      swap3\n      pop\n        /* \"#utility.yul\":9563:9880   */\n      pop\n      pop\n        /* \"#utility.yul\":9487:9880   */\n      swap4\n      swap3\n      pop\n      pop\n      pop\n      jump\t// out\n        /* \"#utility.yul\":9886:9946   */\n    tag_79:\n        /* \"#utility.yul\":9914:9917   */\n      0x00\n        /* \"#utility.yul\":9935:9940   */\n      dup2\n        /* \"#utility.yul\":9928:9940   */\n      swap1\n      pop\n        /* \"#utility.yul\":9886:9946   */\n      swap2\n      swap1\n      pop\n      jump\t// out\n        /* \"#utility.yul\":9952:10094   */\n    tag_80:\n        /* \"#utility.yul\":10002:10011   */\n      0x00\n        /* \"#utility.yul\":10035:10088   */\n      tag_204\n        /* \"#utility.yul\":10053:10087   */\n      tag_205\n        /* \"#utility.yul\":10062:10086   */\n      tag_206\n        /* \"#utility.yul\":10080:10085   */\n      dup5\n        /* \"#utility.yul\":10062:10086   */\n      tag_48\n      jump\t// in\n    tag_206:\n        /* \"#utility.yul\":10053:10087   */\n      tag_79\n      jump\t// in\n    tag_205:\n        /* \"#utility.yul\":10035:10088   */\n      tag_48\n      jump\t// in\n    tag_204:\n        /* \"#utility.yul\":10022:10088   */\n      swap1\n      pop\n        /* \"#utility.yul\":9952:10094   */\n      swap2\n      swap1\n      pop\n      jump\t// out\n        /* \"#utility.yul\":10100:10175   */\n    tag_81:\n        /* \"#utility.yul\":10143:10146   */\n      0x00\n        /* \"#utility.yul\":10164:10169   */\n      dup2\n        /* \"#utility.yul\":10157:10169   */\n      swap1\n      pop\n        /* \"#utility.yul\":10100:10175   */\n      swap2\n      swap1\n      pop\n      jump\t// out\n        /* \"#utility.yul\":10181:10450   */\n    tag_82:\n        /* \"#utility.yul\":10291:10330   */\n      tag_209\n        /* \"#utility.yul\":10322:10329   */\n      dup4\n        /* \"#utility.yul\":10291:10330   */\n      tag_80\n      jump\t// in\n    tag_209:\n        /* \"#utility.yul\":10352:10443   */\n      tag_210\n        /* \"#utility.yul\":10401:10442   */\n      tag_211\n        /* \"#utility.yul\":10425:10441   */\n      dup3\n        /* \"#utility.yul\":10401:10442   */\n      tag_81\n      jump\t// in\n    tag_211:\n        /* \"#utility.yul\":10393:10399   */\n      dup5\n        /* \"#utility.yul\":10386:10390   */\n      dup5\n        /* \"#utility.yul\":10380:10391   */\n      sload\n        /* \"#utility.yul\":10352:10443   */\n      tag_78\n      jump\t// in\n    tag_210:\n        /* \"#utility.yul\":10346:10350   */\n      dup3\n        /* \"#utility.yul\":10339:10444   */\n      sstore\n        /* \"#utility.yul\":10257:10450   */\n      pop\n        /* \"#utility.yul\":10181:10450   */\n      pop\n      pop\n      pop\n      jump\t// out\n        /* \"#utility.yul\":10456:10529   */\n    tag_83:\n        /* \"#utility.yul\":10501:10504   */\n      0x00\n        /* \"#utility.yul\":10522:10523   */\n      0x00\n        /* \"#utility.yul\":10515:10523   */\n      swap1\n      pop\n        /* \"#utility.yul\":10456:10529   */\n      swap1\n      jump\t// out\n        /* \"#utility.yul\":10535:10724   */\n    tag_84:\n        /* \"#utility.yul\":10612:10644   */\n      tag_214\n      tag_83\n      jump\t// in\n    tag_214:\n        /* \"#utility.yul\":10653:10718   */\n      tag_215\n        /* \"#utility.yul\":10711:10717   */\n      dup2\n        /* \"#utility.yul\":10703:10709   */\n      dup5\n        /* \"#utility.yul\":10697:10701   */\n      dup5\n        /* \"#utility.yul\":10653:10718   */\n      tag_82\n      jump\t// in\n    tag_215:\n        /* \"#utility.yul\":10588:10724   */\n      pop\n        /* \"#utility.yul\":10535:10724   */\n      pop\n      pop\n      jump\t// out\n        /* \"#utility.yul\":10730:10916   */\n    tag_85:\n        /* \"#utility.yul\":10790:10910   */\n    tag_217:\n        /* \"#utility.yul\":10807:10810   */\n      dup2\n        /* \"#utility.yul\":10800:10805   */\n      dup2\n        /* \"#utility.yul\":10797:10811   */\n      lt\n        /* \"#utility.yul\":10790:10910   */\n      iszero\n      tag_219\n      jumpi\n        /* \"#utility.yul\":10861:10900   */\n      tag_220\n        /* \"#utility.yul\":10898:10899   */\n      0x00\n        /* \"#utility.yul\":10891:10896   */\n      dup3\n        /* \"#utility.yul\":10861:10900   */\n      tag_84\n      jump\t// in\n    tag_220:\n        /* \"#utility.yul\":10834:10835   */\n      0x01\n        /* \"#utility.yul\":10827:10832   */\n      dup2\n        /* \"#utility.yul\":10823:10836   */\n      add\n        /* \"#utility.yul\":10814:10836   */\n      swap1\n      pop\n        /* \"#utility.yul\":10790:10910   */\n      jump(tag_217)\n    tag_219:\n        /* \"#utility.yul\":10730:10916   */\n      pop\n      pop\n      jump\t// out\n        /* \"#utility.yul\":10922:11465   */\n    tag_86:\n        /* \"#utility.yul\":11023:11025   */\n      0x1f\n        /* \"#utility.yul\":11018:11021   */\n      dup3\n        /* \"#utility.yul\":11015:11026   */\n      gt\n        /* \"#utility.yul\":11012:11458   */\n      iszero\n      tag_222\n      jumpi\n        /* \"#utility.yul\":11057:11095   */\n      tag_223\n        /* \"#utility.yul\":11089:11094   */\n      dup2\n        /* \"#utility.yul\":11057:11095   */\n      tag_75\n      jump\t// in\n    tag_223:\n        /* \"#utility.yul\":11141:11170   */\n      tag_224\n        /* \"#utility.yul\":11159:11169   */\n      dup5\n        /* \"#utility.yul\":11141:11170   */\n      tag_76\n      jump\t// in\n    tag_224:\n        /* \"#utility.yul\":11131:11139   */\n      dup2\n        /* \"#utility.yul\":11127:11171   */\n      add\n        /* \"#utility.yul\":11324:11326   */\n      0x20\n        /* \"#utility.yul\":11312:11322   */\n      dup6\n        /* \"#utility.yul\":11309:11327   */\n      lt\n        /* \"#utility.yul\":11306:11355   */\n      iszero\n      tag_225\n      jumpi\n        /* \"#utility.yul\":11345:11353   */\n      dup2\n        /* \"#utility.yul\":11330:11353   */\n      swap1\n      pop\n        /* \"#utility.yul\":11306:11355   */\n    tag_225:\n        /* \"#utility.yul\":11368:11448   */\n      tag_226\n        /* \"#utility.yul\":11424:11446   */\n      tag_227\n        /* \"#utility.yul\":11442:11445   */\n      dup6\n        /* \"#utility.yul\":11424:11446   */\n      tag_76\n      jump\t// in\n    tag_227:\n        /* \"#utility.yul\":11414:11422   */\n      dup4\n        /* \"#utility.yul\":11410:11447   */\n      add\n        /* \"#utility.yul\":11397:11408   */\n      dup3\n        /* \"#utility.yul\":11368:11448   */\n      tag_85\n      jump\t// in\n    tag_226:\n        /* \"#utility.yul\":11027:11458   */\n      pop\n      pop\n        /* \"#utility.yul\":11012:11458   */\n    tag_222:\n        /* \"#utility.yul\":10922:11465   */\n      pop\n      pop\n      pop\n      jump\t// out\n        /* \"#utility.yul\":11471:11588   */\n    tag_87:\n        /* \"#utility.yul\":11525:11533   */\n      0x00\n        /* \"#utility.yul\":11575:11580   */\n      dup3\n        /* \"#utility.yul\":11569:11573   */\n      dup3\n        /* \"#utility.yul\":11565:11581   */\n      shr\n        /* \"#utility.yul\":11544:11581   */\n      swap1\n      pop\n        /* \"#utility.yul\":11471:11588   */\n      swap3\n      swap2\n      pop\n      pop\n      jump\t// out\n        /* \"#utility.yul\":11594:11763   */\n    tag_88:\n        /* \"#utility.yul\":11638:11644   */\n      0x00\n        /* \"#utility.yul\":11671:11722   */\n      tag_230\n        /* \"#utility.yul\":11719:11720   */\n      0x00\n        /* \"#utility.yul\":11715:11721   */\n      not\n        /* \"#utility.yul\":11707:11712   */\n      dup5\n        /* \"#utility.yul\":11704:11705   */\n      0x08\n        /* \"#utility.yul\":11700:11713   */\n      mul\n        /* \"#utility.yul\":11671:11722   */\n      tag_87\n      jump\t// in\n    tag_230:\n        /* \"#utility.yul\":11667:11723   */\n      not\n        /* \"#utility.yul\":11752:11756   */\n      dup1\n        /* \"#utility.yul\":11746:11750   */\n      dup4\n        /* \"#utility.yul\":11742:11757   */\n      and\n        /* \"#utility.yul\":11732:11757   */\n      swap2\n      pop\n        /* \"#utility.yul\":11645:11763   */\n      pop\n        /* \"#utility.yul\":11594:11763   */\n      swap3\n      swap2\n      pop\n      pop\n      jump\t// out\n        /* \"#utility.yul\":11768:12063   */\n    tag_89:\n        /* \"#utility.yul\":11844:11848   */\n      0x00\n        /* \"#utility.yul\":11990:12019   */\n      tag_232\n        /* \"#utility.yul\":12015:12018   */\n      dup4\n        /* \"#utility.yul\":12009:12013   */\n      dup4\n        /* \"#utility.yul\":11990:12019   */\n      tag_88\n      jump\t// in\n    tag_232:\n        /* \"#utility.yul\":11982:12019   */\n      swap2\n      pop\n        /* \"#utility.yul\":12052:12055   */\n      dup3\n        /* \"#utility.yul\":12049:12050   */\n      0x02\n        /* \"#utility.yul\":12045:12056   */\n      mul\n        /* \"#utility.yul\":12039:12043   */\n      dup3\n        /* \"#utility.yul\":12036:12057   */\n      or\n        /* \"#utility.yul\":12028:12057   */\n      swap1\n      pop\n        /* \"#utility.yul\":11768:12063   */\n      swap3\n      swap2\n      pop\n      pop\n      jump\t// out\n        /* \"#utility.yul\":12068:13463   */\n    tag_45:\n        /* \"#utility.yul\":12185:12222   */\n      tag_234\n        /* \"#utility.yul\":12218:12221   */\n      dup3\n        /* \"#utility.yul\":12185:12222   */\n      tag_55\n      jump\t// in\n    tag_234:\n        /* \"#utility.yul\":12287:12305   */\n      0xffffffffffffffff\n        /* \"#utility.yul\":12279:12285   */\n      dup2\n        /* \"#utility.yul\":12276:12306   */\n      gt\n        /* \"#utility.yul\":12273:12329   */\n      iszero\n      tag_235\n      jumpi\n        /* \"#utility.yul\":12309:12327   */\n      tag_236\n      tag_62\n      jump\t// in\n    tag_236:\n        /* \"#utility.yul\":12273:12329   */\n    tag_235:\n        /* \"#utility.yul\":12353:12391   */\n      tag_237\n        /* \"#utility.yul\":12385:12389   */\n      dup3\n        /* \"#utility.yul\":12379:12390   */\n      sload\n        /* \"#utility.yul\":12353:12391   */\n      tag_34\n      jump\t// in\n    tag_237:\n        /* \"#utility.yul\":12438:12505   */\n      tag_238\n        /* \"#utility.yul\":12498:12504   */\n      dup3\n        /* \"#utility.yul\":12490:12496   */\n      dup3\n        /* \"#utility.yul\":12484:12488   */\n      dup6\n        /* \"#utility.yul\":12438:12505   */\n      tag_86\n      jump\t// in\n    tag_238:\n        /* \"#utility.yul\":12532:12533   */\n      0x00\n        /* \"#utility.yul\":12556:12560   */\n      0x20\n        /* \"#utility.yul\":12543:12560   */\n      swap1\n      pop\n        /* \"#utility.yul\":12588:12590   */\n      0x1f\n        /* \"#utility.yul\":12580:12586   */\n      dup4\n        /* \"#utility.yul\":12577:12591   */\n      gt\n        /* \"#utility.yul\":12605:12606   */\n      0x01\n        /* \"#utility.yul\":12600:13218   */\n      dup2\n      eq\n      tag_240\n      jumpi\n        /* \"#utility.yul\":13262:13263   */\n      0x00\n        /* \"#utility.yul\":13279:13285   */\n      dup5\n        /* \"#utility.yul\":13276:13353   */\n      iszero\n      tag_241\n      jumpi\n        /* \"#utility.yul\":13328:13337   */\n      dup3\n        /* \"#utility.yul\":13323:13326   */\n      dup8\n        /* \"#utility.yul\":13319:13338   */\n      add\n        /* \"#utility.yul\":13313:13339   */\n      mload\n        /* \"#utility.yul\":13304:13339   */\n      swap1\n      pop\n        /* \"#utility.yul\":13276:13353   */\n    tag_241:\n        /* \"#utility.yul\":13379:13446   */\n      tag_242\n        /* \"#utility.yul\":13439:13445   */\n      dup6\n        /* \"#utility.yul\":13432:13437   */\n      dup3\n        /* \"#utility.yul\":13379:13446   */\n      tag_89\n      jump\t// in\n    tag_242:\n        /* \"#utility.yul\":13373:13377   */\n      dup7\n        /* \"#utility.yul\":13366:13447   */\n      sstore\n        /* \"#utility.yul\":13235:13457   */\n      pop\n        /* \"#utility.yul\":12570:13457   */\n      jump(tag_239)\n        /* \"#utility.yul\":12600:13218   */\n    tag_240:\n        /* \"#utility.yul\":12652:12656   */\n      0x1f\n        /* \"#utility.yul\":12648:12657   */\n      not\n        /* \"#utility.yul\":12640:12646   */\n      dup5\n        /* \"#utility.yul\":12636:12658   */\n      and\n        /* \"#utility.yul\":12686:12723   */\n      tag_243\n        /* \"#utility.yul\":12718:12722   */\n      dup7\n        /* \"#utility.yul\":12686:12723   */\n      tag_75\n      jump\t// in\n    tag_243:\n        /* \"#utility.yul\":12745:12746   */\n      0x00\n        /* \"#utility.yul\":12759:12967   */\n    tag_244:\n        /* \"#utility.yul\":12773:12780   */\n      dup3\n        /* \"#utility.yul\":12770:12771   */\n      dup2\n        /* \"#utility.yul\":12767:12781   */\n      lt\n        /* \"#utility.yul\":12759:12967   */\n      iszero\n      tag_246\n      jumpi\n        /* \"#utility.yul\":12852:12861   */\n      dup5\n        /* \"#utility.yul\":12847:12850   */\n      dup10\n        /* \"#utility.yul\":12843:12862   */\n      add\n        /* \"#utility.yul\":12837:12863   */\n      mload\n        /* \"#utility.yul\":12829:12835   */\n      dup3\n        /* \"#utility.yul\":12822:12864   */\n      sstore\n        /* \"#utility.yul\":12903:12904   */\n      0x01\n        /* \"#utility.yul\":12895:12901   */\n      dup3\n        /* \"#utility.yul\":12891:12905   */\n      add\n        /* \"#utility.yul\":12881:12905   */\n      swap2\n      pop\n        /* \"#utility.yul\":12950:12952   */\n      0x20\n        /* \"#utility.yul\":12939:12948   */\n      dup6\n        /* \"#utility.yul\":12935:12953   */\n      add\n        /* \"#utility.yul\":12922:12953   */\n      swap5\n      pop\n        /* \"#utility.yul\":12796:12800   */\n      0x20\n        /* \"#utility.yul\":12793:12794   */\n      dup2\n        /* \"#utility.yul\":12789:12801   */\n      add\n        /* \"#utility.yul\":12784:12801   */\n      swap1\n      pop\n        /* \"#utility.yul\":12759:12967   */\n      jump(tag_244)\n    tag_246:\n        /* \"#utility.yul\":12995:13001   */\n      dup7\n        /* \"#utility.yul\":12986:12993   */\n      dup4\n        /* \"#utility.yul\":12983:13002   */\n      lt\n        /* \"#utility.yul\":12980:13159   */\n      iszero\n      tag_247\n      jumpi\n        /* \"#utility.yul\":13053:13062   */\n      dup5\n        /* \"#utility.yul\":13048:13051   */\n      dup10\n        /* \"#utility.yul\":13044:13063   */\n      add\n        /* \"#utility.yul\":13038:13064   */\n      mload\n        /* \"#utility.yul\":13096:13144   */\n      tag_248\n        /* \"#utility.yul\":13138:13142   */\n      0x1f\n        /* \"#utility.yul\":13130:13136   */\n      dup10\n        /* \"#utility.yul\":13126:13143   */\n      and\n        /* \"#utility.yul\":13115:13124   */\n      dup3\n        /* \"#utility.yul\":13096:13144   */\n      tag_88\n      jump\t// in\n    tag_248:\n        /* \"#utility.yul\":13088:13094   */\n      dup4\n        /* \"#utility.yul\":13081:13145   */\n      sstore\n        /* \"#utility.yul\":13003:13159   */\n      pop\n        /* \"#utility.yul\":12980:13159   */\n    tag_247:\n        /* \"#utility.yul\":13205:13206   */\n      0x01\n        /* \"#utility.yul\":13201:13202   */\n      0x02\n        /* \"#utility.yul\":13193:13199   */\n      dup9\n        /* \"#utility.yul\":13189:13203   */\n      mul\n        /* \"#utility.yul\":13185:13207   */\n      add\n        /* \"#utility.yul\":13179:13183   */\n      dup9\n        /* \"#utility.yul\":13172:13208   */\n      sstore\n        /* \"#utility.yul\":12607:13218   */\n      pop\n      pop\n      pop\n        /* \"#utility.yul\":12570:13457   */\n    tag_239:\n      pop\n        /* \"#utility.yul\":12160:13463   */\n      pop\n      pop\n      pop\n        /* \"#utility.yul\":12068:13463   */\n      pop\n      pop\n      jump\t// out\n        /* \"#utility.yul\":13469:13617   */\n    tag_90:\n        /* \"#utility.yul\":13571:13582   */\n      0x00\n        /* \"#utility.yul\":13608:13611   */\n      dup2\n        /* \"#utility.yul\":13593:13611   */\n      swap1\n      pop\n        /* \"#utility.yul\":13469:13617   */\n      swap3\n      swap2\n      pop\n      pop\n      jump\t// out\n        /* \"#utility.yul\":13623:14013   */\n    tag_91:\n        /* \"#utility.yul\":13729:13732   */\n      0x00\n        /* \"#utility.yul\":13757:13796   */\n      tag_251\n        /* \"#utility.yul\":13790:13795   */\n      dup3\n        /* \"#utility.yul\":13757:13796   */\n      tag_55\n      jump\t// in\n    tag_251:\n        /* \"#utility.yul\":13812:13901   */\n      tag_252\n        /* \"#utility.yul\":13894:13900   */\n      dup2\n        /* \"#utility.yul\":13889:13892   */\n      dup6\n        /* \"#utility.yul\":13812:13901   */\n      tag_90\n      jump\t// in\n    tag_252:\n        /* \"#utility.yul\":13805:13901   */\n      swap4\n      pop\n        /* \"#utility.yul\":13910:13975   */\n      tag_253\n        /* \"#utility.yul\":13968:13974   */\n      dup2\n        /* \"#utility.yul\":13963:13966   */\n      dup6\n        /* \"#utility.yul\":13956:13960   */\n      0x20\n        /* \"#utility.yul\":13949:13954   */\n      dup7\n        /* \"#utility.yul\":13945:13961   */\n      add\n        /* \"#utility.yul\":13910:13975   */\n      tag_57\n      jump\t// in\n    tag_253:\n        /* \"#utility.yul\":14000:14006   */\n      dup1\n        /* \"#utility.yul\":13995:13998   */\n      dup5\n        /* \"#utility.yul\":13991:14007   */\n      add\n        /* \"#utility.yul\":13984:14007   */\n      swap2\n      pop\n        /* \"#utility.yul\":13733:14013   */\n      pop\n        /* \"#utility.yul\":13623:14013   */\n      swap3\n      swap2\n      pop\n      pop\n      jump\t// out\n        /* \"#utility.yul\":14019:14294   */\n    tag_47:\n        /* \"#utility.yul\":14151:14154   */\n      0x00\n        /* \"#utility.yul\":14173:14268   */\n      tag_255\n        /* \"#utility.yul\":14264:14267   */\n      dup3\n        /* \"#utility.yul\":14255:14261   */\n      dup5\n        /* \"#utility.yul\":14173:14268   */\n      tag_91\n      jump\t// in\n    tag_255:\n        /* \"#utility.yul\":14166:14268   */\n      swap2\n      pop\n        /* \"#utility.yul\":14285:14288   */\n      dup2\n        /* \"#utility.yul\":14278:14288   */\n      swap1\n      pop\n        /* \"#utility.yul\":14019:14294   */\n      swap3\n      swap2\n      pop\n      pop\n      jump\t// out\n\n    auxdata: 0xa2646970667358221220b8a33f2c3c307faff64ece4c7e0fbcb0f9922718804dd6f319ec585f04e9924864736f6c634300081b0033\n}\n",
				"bytecode": {
					"linkReferences": {},
					"object": "6080604052348015600e575f5ffd5b50610a998061001c5f395ff3fe608060405234801561000f575f5ffd5b5060043610610055575f3560e01c80632e64cec1146100595780632ebce631146100775780636057361d146100a85780636f760f41146100c45780638bab8dd5146100e0575b5f5ffd5b610061610110565b60405161006e91906102ab565b60405180910390f35b610091600480360381019061008c91906102ff565b610118565b60405161009f92919061039a565b60405180910390f35b6100c260048036038101906100bd91906102ff565b6101cd565b005b6100de60048036038101906100d991906104f4565b6101e2565b005b6100fa60048036038101906100f5919061054e565b610266565b60405161010791906102ab565b60405180910390f35b5f5f54905090565b60018181548110610127575f80fd5b905f5260205f2090600202015f91509050805f01549080600101805461014c906105c2565b80601f0160208091040260200160405190810160405280929190818152602001828054610178906105c2565b80156101c35780601f1061019a576101008083540402835291602001916101c3565b820191905f5260205f20905b8154815290600101906020018083116101a657829003601f168201915b5050505050905082565b6002816101da919061075a565b5f8190555050565b6001604051806040016040528083815260200184815250908060018154018082558091505060019003905f5260205f2090600202015f909190919091505f820151815f0155602082015181600101908161023c9190610944565b505050806002836040516102509190610a4d565b9081526020016040518091039020819055505050565b6002818051602081018201805184825260208301602085012081835280955050505050505f915090505481565b5f819050919050565b6102a581610293565b82525050565b5f6020820190506102be5f83018461029c565b92915050565b5f604051905090565b5f5ffd5b5f5ffd5b6102de81610293565b81146102e8575f5ffd5b50565b5f813590506102f9816102d5565b92915050565b5f60208284031215610314576103136102cd565b5b5f610321848285016102eb565b91505092915050565b5f81519050919050565b5f82825260208201905092915050565b8281835e5f83830152505050565b5f601f19601f8301169050919050565b5f61036c8261032a565b6103768185610334565b9350610386818560208601610344565b61038f81610352565b840191505092915050565b5f6040820190506103ad5f83018561029c565b81810360208301526103bf8184610362565b90509392505050565b5f5ffd5b5f5ffd5b7f4e487b71000000000000000000000000000000000000000000000000000000005f52604160045260245ffd5b61040682610352565b810181811067ffffffffffffffff82111715610425576104246103d0565b5b80604052505050565b5f6104376102c4565b905061044382826103fd565b919050565b5f67ffffffffffffffff821115610462576104616103d0565b5b61046b82610352565b9050602081019050919050565b828183375f83830152505050565b5f61049861049384610448565b61042e565b9050828152602081018484840111156104b4576104b36103cc565b5b6104bf848285610478565b509392505050565b5f82601f8301126104db576104da6103c8565b5b81356104eb848260208601610486565b91505092915050565b5f5f6040838503121561050a576105096102cd565b5b5f83013567ffffffffffffffff811115610527576105266102d1565b5b610533858286016104c7565b9250506020610544858286016102eb565b9150509250929050565b5f60208284031215610563576105626102cd565b5b5f82013567ffffffffffffffff8111156105805761057f6102d1565b5b61058c848285016104c7565b91505092915050565b7f4e487b71000000000000000000000000000000000000000000000000000000005f52602260045260245ffd5b5f60028204905060018216806105d957607f821691505b6020821081036105ec576105eb610595565b5b50919050565b7f4e487b71000000000000000000000000000000000000000000000000000000005f52601160045260245ffd5b5f8160011c9050919050565b5f5f8291508390505b6001851115610674578086048111156106505761064f6105f2565b5b600185161561065f5780820291505b808102905061066d8561061f565b9450610634565b94509492505050565b5f8261068c5760019050610747565b81610699575f9050610747565b81600181146106af57600281146106b9576106e8565b6001915050610747565b60ff8411156106cb576106ca6105f2565b5b8360020a9150848211156106e2576106e16105f2565b5b50610747565b5060208310610133831016604e8410600b841016171561071d5782820a905083811115610718576107176105f2565b5b610747565b61072a848484600161062b565b92509050818404811115610741576107406105f2565b5b81810290505b9392505050565b5f60ff82169050919050565b5f61076482610293565b915061076f8361074e565b925061079c7fffffffffffffffffffffffffffffffffffffffffffffffffffffffffffffffff848461067d565b905092915050565b5f819050815f5260205f209050919050565b5f6020601f8301049050919050565b5f82821b905092915050565b5f600883026108007fffffffffffffffffffffffffffffffffffffffffffffffffffffffffffffffff826107c5565b61080a86836107c5565b95508019841693508086168417925050509392505050565b5f819050919050565b5f61084561084061083b84610293565b610822565b610293565b9050919050565b5f819050919050565b61085e8361082b565b61087261086a8261084c565b8484546107d1565b825550505050565b5f5f905090565b61088961087a565b610894818484610855565b505050565b5b818110156108b7576108ac5f82610881565b60018101905061089a565b5050565b601f8211156108fc576108cd816107a4565b6108d6846107b6565b810160208510156108e5578190505b6108f96108f1856107b6565b830182610899565b50505b505050565b5f82821c905092915050565b5f61091c5f1984600802610901565b1980831691505092915050565b5f610934838361090d565b9150826002028217905092915050565b61094d8261032a565b67ffffffffffffffff811115610966576109656103d0565b5b61097082546105c2565b61097b8282856108bb565b5f60209050601f8311600181146109ac575f841561099a578287015190505b6109a48582610929565b865550610a0b565b601f1984166109ba866107a4565b5f5b828110156109e1578489015182556001820191506020850194506020810190506109bc565b868310156109fe57848901516109fa601f89168261090d565b8355505b6001600288020188555050505b505050505050565b5f81905092915050565b5f610a278261032a565b610a318185610a13565b9350610a41818560208601610344565b80840191505092915050565b5f610a588284610a1d565b91508190509291505056fea2646970667358221220b8a33f2c3c307faff64ece4c7e0fbcb0f9922718804dd6f319ec585f04e9924864736f6c634300081b0033",
					"opcodes": "PUSH1 0x80 PUSH1 0x40 MSTORE CALLVALUE DUP1 ISZERO PUSH1 0xE JUMPI PUSH0 PUSH0 REVERT JUMPDEST POP PUSH2 0xA99 DUP1 PUSH2 0x1C PUSH0 CODECOPY PUSH0 RETURN INVALID PUSH1 0x80 PUSH1 0x40 MSTORE CALLVALUE DUP1 ISZERO PUSH2 0xF JUMPI PUSH0 PUSH0 REVERT JUMPDEST POP PUSH1 0x4 CALLDATASIZE LT PUSH2 0x55 JUMPI PUSH0 CALLDATALOAD PUSH1 0xE0 SHR DUP1 PUSH4 0x2E64CEC1 EQ PUSH2 0x59 JUMPI DUP1 PUSH4 0x2EBCE631 EQ PUSH2 0x77 JUMPI DUP1 PUSH4 0x6057361D EQ PUSH2 0xA8 JUMPI DUP1 PUSH4 0x6F760F41 EQ PUSH2 0xC4 JUMPI DUP1 PUSH4 0x8BAB8DD5 EQ PUSH2 0xE0 JUMPI JUMPDEST PUSH0 PUSH0 REVERT JUMPDEST PUSH2 0x61 PUSH2 0x110 JUMP JUMPDEST PUSH1 0x40 MLOAD PUSH2 0x6E SWAP2 SWAP1 PUSH2 0x2AB JUMP JUMPDEST PUSH1 0x40 MLOAD DUP1 SWAP2 SUB SWAP1 RETURN JUMPDEST PUSH2 0x91 PUSH1 0x4 DUP1 CALLDATASIZE SUB DUP2 ADD SWAP1 PUSH2 0x8C SWAP2 SWAP1 PUSH2 0x2FF JUMP JUMPDEST PUSH2 0x118 JUMP JUMPDEST PUSH1 0x40 MLOAD PUSH2 0x9F SWAP3 SWAP2 SWAP1 PUSH2 0x39A JUMP JUMPDEST PUSH1 0x40 MLOAD DUP1 SWAP2 SUB SWAP1 RETURN JUMPDEST PUSH2 0xC2 PUSH1 0x4 DUP1 CALLDATASIZE SUB DUP2 ADD SWAP1 PUSH2 0xBD SWAP2 SWAP1 PUSH2 0x2FF JUMP JUMPDEST PUSH2 0x1CD JUMP JUMPDEST STOP JUMPDEST PUSH2 0xDE PUSH1 0x4 DUP1 CALLDATASIZE SUB DUP2 ADD SWAP1 PUSH2 0xD9 SWAP2 SWAP1 PUSH2 0x4F4 JUMP JUMPDEST PUSH2 0x1E2 JUMP JUMPDEST STOP JUMPDEST PUSH2 0xFA PUSH1 0x4 DUP1 CALLDATASIZE SUB DUP2 ADD SWAP1 PUSH2 0xF5 SWAP2 SWAP1 PUSH2 0x54E JUMP JUMPDEST PUSH2 0x266 JUMP JUMPDEST PUSH1 0x40 MLOAD PUSH2 0x107 SWAP2 SWAP1 PUSH2 0x2AB JUMP JUMPDEST PUSH1 0x40 MLOAD DUP1 SWAP2 SUB SWAP1 RETURN JUMPDEST PUSH0 PUSH0 SLOAD SWAP1 POP SWAP1 JUMP JUMPDEST PUSH1 0x1 DUP2 DUP2 SLOAD DUP2 LT PUSH2 0x127 JUMPI PUSH0 DUP1 REVERT JUMPDEST SWAP1 PUSH0 MSTORE PUSH1 0x20 PUSH0 KECCAK256 SWAP1 PUSH1 0x2 MUL ADD PUSH0 SWAP2 POP SWAP1 POP DUP1 PUSH0 ADD SLOAD SWAP1 DUP1 PUSH1 0x1 ADD DUP1 SLOAD PUSH2 0x14C SWAP1 PUSH2 0x5C2 JUMP JUMPDEST DUP1 PUSH1 0x1F ADD PUSH1 0x20 DUP1 SWAP2 DIV MUL PUSH1 0x20 ADD PUSH1 0x40 MLOAD SWAP1 DUP2 ADD PUSH1 0x40 MSTORE DUP1 SWAP3 SWAP2 SWAP1 DUP2 DUP2 MSTORE PUSH1 0x20 ADD DUP3 DUP1 SLOAD PUSH2 0x178 SWAP1 PUSH2 0x5C2 JUMP JUMPDEST DUP1 ISZERO PUSH2 0x1C3 JUMPI DUP1 PUSH1 0x1F LT PUSH2 0x19A JUMPI PUSH2 0x100 DUP1 DUP4 SLOAD DIV MUL DUP4 MSTORE SWAP2 PUSH1 0x20 ADD SWAP2 PUSH2 0x1C3 JUMP JUMPDEST DUP3 ADD SWAP2 SWAP1 PUSH0 MSTORE PUSH1 0x20 PUSH0 KECCAK256 SWAP1 JUMPDEST DUP2 SLOAD DUP2 MSTORE SWAP1 PUSH1 0x1 ADD SWAP1 PUSH1 0x20 ADD DUP1 DUP4 GT PUSH2 0x1A6 JUMPI DUP3 SWAP1 SUB PUSH1 0x1F AND DUP3 ADD SWAP2 JUMPDEST POP POP POP POP POP SWAP1 POP DUP3 JUMP JUMPDEST PUSH1 0x2 DUP2 PUSH2 0x1DA SWAP2 SWAP1 PUSH2 0x75A JUMP JUMPDEST PUSH0 DUP2 SWAP1 SSTORE POP POP JUMP JUMPDEST PUSH1 0x1 PUSH1 0x40 MLOAD DUP1 PUSH1 0x40 ADD PUSH1 0x40 MSTORE DUP1 DUP4 DUP2 MSTORE PUSH1 0x20 ADD DUP5 DUP2 MSTORE POP SWAP1 DUP1 PUSH1 0x1 DUP2 SLOAD ADD DUP1 DUP3 SSTORE DUP1 SWAP2 POP POP PUSH1 0x1 SWAP1 SUB SWAP1 PUSH0 MSTORE PUSH1 0x20 PUSH0 KECCAK256 SWAP1 PUSH1 0x2 MUL ADD PUSH0 SWAP1 SWAP2 SWAP1 SWAP2 SWAP1 SWAP2 POP PUSH0 DUP3 ADD MLOAD DUP2 PUSH0 ADD SSTORE PUSH1 0x20 DUP3 ADD MLOAD DUP2 PUSH1 0x1 ADD SWAP1 DUP2 PUSH2 0x23C SWAP2 SWAP1 PUSH2 0x944 JUMP JUMPDEST POP POP POP DUP1 PUSH1 0x2 DUP4 PUSH1 0x40 MLOAD PUSH2 0x250 SWAP2 SWAP1 PUSH2 0xA4D JUMP JUMPDEST SWAP1 DUP2 MSTORE PUSH1 0x20 ADD PUSH1 0x40 MLOAD DUP1 SWAP2 SUB SWAP1 KECCAK256 DUP2 SWAP1 SSTORE POP POP POP JUMP JUMPDEST PUSH1 0x2 DUP2 DUP1 MLOAD PUSH1 0x20 DUP2 ADD DUP3 ADD DUP1 MLOAD DUP5 DUP3 MSTORE PUSH1 0x20 DUP4 ADD PUSH1 0x20 DUP6 ADD KECCAK256 DUP2 DUP4 MSTORE DUP1 SWAP6 POP POP POP POP POP POP PUSH0 SWAP2 POP SWAP1 POP SLOAD DUP2 JUMP JUMPDEST PUSH0 DUP2 SWAP1 POP SWAP2 SWAP1 POP JUMP JUMPDEST PUSH2 0x2A5 DUP2 PUSH2 0x293 JUMP JUMPDEST DUP3 MSTORE POP POP JUMP JUMPDEST PUSH0 PUSH1 0x20 DUP3 ADD SWAP1 POP PUSH2 0x2BE PUSH0 DUP4 ADD DUP5 PUSH2 0x29C JUMP JUMPDEST SWAP3 SWAP2 POP POP JUMP JUMPDEST PUSH0 PUSH1 0x40 MLOAD SWAP1 POP SWAP1 JUMP JUMPDEST PUSH0 PUSH0 REVERT JUMPDEST PUSH0 PUSH0 REVERT JUMPDEST PUSH2 0x2DE DUP2 PUSH2 0x293 JUMP JUMPDEST DUP2 EQ PUSH2 0x2E8 JUMPI PUSH0 PUSH0 REVERT JUMPDEST POP JUMP JUMPDEST PUSH0 DUP2 CALLDATALOAD SWAP1 POP PUSH2 0x2F9 DUP2 PUSH2 0x2D5 JUMP JUMPDEST SWAP3 SWAP2 POP POP JUMP JUMPDEST PUSH0 PUSH1 0x20 DUP3 DUP5 SUB SLT ISZERO PUSH2 0x314 JUMPI PUSH2 0x313 PUSH2 0x2CD JUMP JUMPDEST JUMPDEST PUSH0 PUSH2 0x321 DUP5 DUP3 DUP6 ADD PUSH2 0x2EB JUMP JUMPDEST SWAP2 POP POP SWAP3 SWAP2 POP POP JUMP JUMPDEST PUSH0 DUP2 MLOAD SWAP1 POP SWAP2 SWAP1 POP JUMP JUMPDEST PUSH0 DUP3 DUP3 MSTORE PUSH1 0x20 DUP3 ADD SWAP1 POP SWAP3 SWAP2 POP POP JUMP JUMPDEST DUP3 DUP2 DUP4 MCOPY PUSH0 DUP4 DUP4 ADD MSTORE POP POP POP JUMP JUMPDEST PUSH0 PUSH1 0x1F NOT PUSH1 0x1F DUP4 ADD AND SWAP1 POP SWAP2 SWAP1 POP JUMP JUMPDEST PUSH0 PUSH2 0x36C DUP3 PUSH2 0x32A JUMP JUMPDEST PUSH2 0x376 DUP2 DUP6 PUSH2 0x334 JUMP JUMPDEST SWAP4 POP PUSH2 0x386 DUP2 DUP6 PUSH1 0x20 DUP7 ADD PUSH2 0x344 JUMP JUMPDEST PUSH2 0x38F DUP2 PUSH2 0x352 JUMP JUMPDEST DUP5 ADD SWAP2 POP POP SWAP3 SWAP2 POP POP JUMP JUMPDEST PUSH0 PUSH1 0x40 DUP3 ADD SWAP1 POP PUSH2 0x3AD PUSH0 DUP4 ADD DUP6 PUSH2 0x29C JUMP JUMPDEST DUP2 DUP2 SUB PUSH1 0x20 DUP4 ADD MSTORE PUSH2 0x3BF DUP2 DUP5 PUSH2 0x362 JUMP JUMPDEST SWAP1 POP SWAP4 SWAP3 POP POP POP JUMP JUMPDEST PUSH0 PUSH0 REVERT JUMPDEST PUSH0 PUSH0 REVERT JUMPDEST PUSH32 0x4E487B7100000000000000000000000000000000000000000000000000000000 PUSH0 MSTORE PUSH1 0x41 PUSH1 0x4 MSTORE PUSH1 0x24 PUSH0 REVERT JUMPDEST PUSH2 0x406 DUP3 PUSH2 0x352 JUMP JUMPDEST DUP2 ADD DUP2 DUP2 LT PUSH8 0xFFFFFFFFFFFFFFFF DUP3 GT OR ISZERO PUSH2 0x425 JUMPI PUSH2 0x424 PUSH2 0x3D0 JUMP JUMPDEST JUMPDEST DUP1 PUSH1 0x40 MSTORE POP POP POP JUMP JUMPDEST PUSH0 PUSH2 0x437 PUSH2 0x2C4 JUMP JUMPDEST SWAP1 POP PUSH2 0x443 DUP3 DUP3 PUSH2 0x3FD JUMP JUMPDEST SWAP2 SWAP1 POP JUMP JUMPDEST PUSH0 PUSH8 0xFFFFFFFFFFFFFFFF DUP3 GT ISZERO PUSH2 0x462 JUMPI PUSH2 0x461 PUSH2 0x3D0 JUMP JUMPDEST JUMPDEST PUSH2 0x46B DUP3 PUSH2 0x352 JUMP JUMPDEST SWAP1 POP PUSH1 0x20 DUP2 ADD SWAP1 POP SWAP2 SWAP1 POP JUMP JUMPDEST DUP3 DUP2 DUP4 CALLDATACOPY PUSH0 DUP4 DUP4 ADD MSTORE POP POP POP JUMP JUMPDEST PUSH0 PUSH2 0x498 PUSH2 0x493 DUP5 PUSH2 0x448 JUMP JUMPDEST PUSH2 0x42E JUMP JUMPDEST SWAP1 POP DUP3 DUP2 MSTORE PUSH1 0x20 DUP2 ADD DUP5 DUP5 DUP5 ADD GT ISZERO PUSH2 0x4B4 JUMPI PUSH2 0x4B3 PUSH2 0x3CC JUMP JUMPDEST JUMPDEST PUSH2 0x4BF DUP5 DUP3 DUP6 PUSH2 0x478 JUMP JUMPDEST POP SWAP4 SWAP3 POP POP POP JUMP JUMPDEST PUSH0 DUP3 PUSH1 0x1F DUP4 ADD SLT PUSH2 0x4DB JUMPI PUSH2 0x4DA PUSH2 0x3C8 JUMP JUMPDEST JUMPDEST DUP2 CALLDATALOAD PUSH2 0x4EB DUP5 DUP3 PUSH1 0x20 DUP7 ADD PUSH2 0x486 JUMP JUMPDEST SWAP2 POP POP SWAP3 SWAP2 POP POP JUMP JUMPDEST PUSH0 PUSH0 PUSH1 0x40 DUP4 DUP6 SUB SLT ISZERO PUSH2 0x50A JUMPI PUSH2 0x509 PUSH2 0x2CD JUMP JUMPDEST JUMPDEST PUSH0 DUP4 ADD CALLDATALOAD PUSH8 0xFFFFFFFFFFFFFFFF DUP2 GT ISZERO PUSH2 0x527 JUMPI PUSH2 0x526 PUSH2 0x2D1 JUMP JUMPDEST JUMPDEST PUSH2 0x533 DUP6 DUP3 DUP7 ADD PUSH2 0x4C7 JUMP JUMPDEST SWAP3 POP POP PUSH1 0x20 PUSH2 0x544 DUP6 DUP3 DUP7 ADD PUSH2 0x2EB JUMP JUMPDEST SWAP2 POP POP SWAP3 POP SWAP3 SWAP1 POP JUMP JUMPDEST PUSH0 PUSH1 0x20 DUP3 DUP5 SUB SLT ISZERO PUSH2 0x563 JUMPI PUSH2 0x562 PUSH2 0x2CD JUMP JUMPDEST JUMPDEST PUSH0 DUP3 ADD CALLDATALOAD PUSH8 0xFFFFFFFFFFFFFFFF DUP2 GT ISZERO PUSH2 0x580 JUMPI PUSH2 0x57F PUSH2 0x2D1 JUMP JUMPDEST JUMPDEST PUSH2 0x58C DUP5 DUP3 DUP6 ADD PUSH2 0x4C7 JUMP JUMPDEST SWAP2 POP POP SWAP3 SWAP2 POP POP JUMP JUMPDEST PUSH32 0x4E487B7100000000000000000000000000000000000000000000000000000000 PUSH0 MSTORE PUSH1 0x22 PUSH1 0x4 MSTORE PUSH1 0x24 PUSH0 REVERT JUMPDEST PUSH0 PUSH1 0x2 DUP3 DIV SWAP1 POP PUSH1 0x1 DUP3 AND DUP1 PUSH2 0x5D9 JUMPI PUSH1 0x7F DUP3 AND SWAP2 POP JUMPDEST PUSH1 0x20 DUP3 LT DUP2 SUB PUSH2 0x5EC JUMPI PUSH2 0x5EB PUSH2 0x595 JUMP JUMPDEST JUMPDEST POP SWAP2 SWAP1 POP JUMP JUMPDEST PUSH32 0x4E487B7100000000000000000000000000000000000000000000000000000000 PUSH0 MSTORE PUSH1 0x11 PUSH1 0x4 MSTORE PUSH1 0x24 PUSH0 REVERT JUMPDEST PUSH0 DUP2 PUSH1 0x1 SHR SWAP1 POP SWAP2 SWAP1 POP JUMP JUMPDEST PUSH0 PUSH0 DUP3 SWAP2 POP DUP4 SWAP1 POP JUMPDEST PUSH1 0x1 DUP6 GT ISZERO PUSH2 0x674 JUMPI DUP1 DUP7 DIV DUP2 GT ISZERO PUSH2 0x650 JUMPI PUSH2 0x64F PUSH2 0x5F2 JUMP JUMPDEST JUMPDEST PUSH1 0x1 DUP6 AND ISZERO PUSH2 0x65F JUMPI DUP1 DUP3 MUL SWAP2 POP JUMPDEST DUP1 DUP2 MUL SWAP1 POP PUSH2 0x66D DUP6 PUSH2 0x61F JUMP JUMPDEST SWAP5 POP PUSH2 0x634 JUMP JUMPDEST SWAP5 POP SWAP5 SWAP3 POP POP POP JUMP JUMPDEST PUSH0 DUP3 PUSH2 0x68C JUMPI PUSH1 0x1 SWAP1 POP PUSH2 0x747 JUMP JUMPDEST DUP2 PUSH2 0x699 JUMPI PUSH0 SWAP1 POP PUSH2 0x747 JUMP JUMPDEST DUP2 PUSH1 0x1 DUP2 EQ PUSH2 0x6AF JUMPI PUSH1 0x2 DUP2 EQ PUSH2 0x6B9 JUMPI PUSH2 0x6E8 JUMP JUMPDEST PUSH1 0x1 SWAP2 POP POP PUSH2 0x747 JUMP JUMPDEST PUSH1 0xFF DUP5 GT ISZERO PUSH2 0x6CB JUMPI PUSH2 0x6CA PUSH2 0x5F2 JUMP JUMPDEST JUMPDEST DUP4 PUSH1 0x2 EXP SWAP2 POP DUP5 DUP3 GT ISZERO PUSH2 0x6E2 JUMPI PUSH2 0x6E1 PUSH2 0x5F2 JUMP JUMPDEST JUMPDEST POP PUSH2 0x747 JUMP JUMPDEST POP PUSH1 0x20 DUP4 LT PUSH2 0x133 DUP4 LT AND PUSH1 0x4E DUP5 LT PUSH1 0xB DUP5 LT AND OR ISZERO PUSH2 0x71D JUMPI DUP3 DUP3 EXP SWAP1 POP DUP4 DUP2 GT ISZERO PUSH2 0x718 JUMPI PUSH2 0x717 PUSH2 0x5F2 JUMP JUMPDEST JUMPDEST PUSH2 0x747 JUMP JUMPDEST PUSH2 0x72A DUP5 DUP5 DUP5 PUSH1 0x1 PUSH2 0x62B JUMP JUMPDEST SWAP3 POP SWAP1 POP DUP2 DUP5 DIV DUP2 GT ISZERO PUSH2 0x741 JUMPI PUSH2 0x740 PUSH2 0x5F2 JUMP JUMPDEST JUMPDEST DUP2 DUP2 MUL SWAP1 POP JUMPDEST SWAP4 SWAP3 POP POP POP JUMP JUMPDEST PUSH0 PUSH1 0xFF DUP3 AND SWAP1 POP SWAP2 SWAP1 POP JUMP JUMPDEST PUSH0 PUSH2 0x764 DUP3 PUSH2 0x293 JUMP JUMPDEST SWAP2 POP PUSH2 0x76F DUP4 PUSH2 0x74E JUMP JUMPDEST SWAP3 POP PUSH2 0x79C PUSH32 0xFFFFFFFFFFFFFFFFFFFFFFFFFFFFFFFFFFFFFFFFFFFFFFFFFFFFFFFFFFFFFFFF DUP5 DUP5 PUSH2 0x67D JUMP JUMPDEST SWAP1 POP SWAP3 SWAP2 POP POP JUMP JUMPDEST PUSH0 DUP2 SWAP1 POP DUP2 PUSH0 MSTORE PUSH1 0x20 PUSH0 KECCAK256 SWAP1 POP SWAP2 SWAP1 POP JUMP JUMPDEST PUSH0 PUSH1 0x20 PUSH1 0x1F DUP4 ADD DIV SWAP1 POP SWAP2 SWAP1 POP JUMP JUMPDEST PUSH0 DUP3 DUP3 SHL SWAP1 POP SWAP3 SWAP2 POP POP JUMP JUMPDEST PUSH0 PUSH1 0x8 DUP4 MUL PUSH2 0x800 PUSH32 0xFFFFFFFFFFFFFFFFFFFFFFFFFFFFFFFFFFFFFFFFFFFFFFFFFFFFFFFFFFFFFFFF DUP3 PUSH2 0x7C5 JUMP JUMPDEST PUSH2 0x80A DUP7 DUP4 PUSH2 0x7C5 JUMP JUMPDEST SWAP6 POP DUP1 NOT DUP5 AND SWAP4 POP DUP1 DUP7 AND DUP5 OR SWAP3 POP POP POP SWAP4 SWAP3 POP POP POP JUMP JUMPDEST PUSH0 DUP2 SWAP1 POP SWAP2 SWAP1 POP JUMP JUMPDEST PUSH0 PUSH2 0x845 PUSH2 0x840 PUSH2 0x83B DUP5 PUSH2 0x293 JUMP JUMPDEST PUSH2 0x822 JUMP JUMPDEST PUSH2 0x293 JUMP JUMPDEST SWAP1 POP SWAP2 SWAP1 POP JUMP JUMPDEST PUSH0 DUP2 SWAP1 POP SWAP2 SWAP1 POP JUMP JUMPDEST PUSH2 0x85E DUP4 PUSH2 0x82B JUMP JUMPDEST PUSH2 0x872 PUSH2 0x86A DUP3 PUSH2 0x84C JUMP JUMPDEST DUP5 DUP5 SLOAD PUSH2 0x7D1 JUMP JUMPDEST DUP3 SSTORE POP POP POP POP JUMP JUMPDEST PUSH0 PUSH0 SWAP1 POP SWAP1 JUMP JUMPDEST PUSH2 0x889 PUSH2 0x87A JUMP JUMPDEST PUSH2 0x894 DUP2 DUP5 DUP5 PUSH2 0x855 JUMP JUMPDEST POP POP POP JUMP JUMPDEST JUMPDEST DUP2 DUP2 LT ISZERO PUSH2 0x8B7 JUMPI PUSH2 0x8AC PUSH0 DUP3 PUSH2 0x881 JUMP JUMPDEST PUSH1 0x1 DUP2 ADD SWAP1 POP PUSH2 0x89A JUMP JUMPDEST POP POP JUMP JUMPDEST PUSH1 0x1F DUP3 GT ISZERO PUSH2 0x8FC JUMPI PUSH2 0x8CD DUP2 PUSH2 0x7A4 JUMP JUMPDEST PUSH2 0x8D6 DUP5 PUSH2 0x7B6 JUMP JUMPDEST DUP2 ADD PUSH1 0x20 DUP6 LT ISZERO PUSH2 0x8E5 JUMPI DUP2 SWAP1 POP JUMPDEST PUSH2 0x8F9 PUSH2 0x8F1 DUP6 PUSH2 0x7B6 JUMP JUMPDEST DUP4 ADD DUP3 PUSH2 0x899 JUMP JUMPDEST POP POP JUMPDEST POP POP POP JUMP JUMPDEST PUSH0 DUP3 DUP3 SHR SWAP1 POP SWAP3 SWAP2 POP POP JUMP JUMPDEST PUSH0 PUSH2 0x91C PUSH0 NOT DUP5 PUSH1 0x8 MUL PUSH2 0x901 JUMP JUMPDEST NOT DUP1 DUP4 AND SWAP2 POP POP SWAP3 SWAP2 POP POP JUMP JUMPDEST PUSH0 PUSH2 0x934 DUP4 DUP4 PUSH2 0x90D JUMP JUMPDEST SWAP2 POP DUP3 PUSH1 0x2 MUL DUP3 OR SWAP1 POP SWAP3 SWAP2 POP POP JUMP JUMPDEST PUSH2 0x94D DUP3 PUSH2 0x32A JUMP JUMPDEST PUSH8 0xFFFFFFFFFFFFFFFF DUP2 GT ISZERO PUSH2 0x966 JUMPI PUSH2 0x965 PUSH2 0x3D0 JUMP JUMPDEST JUMPDEST PUSH2 0x970 DUP3 SLOAD PUSH2 0x5C2 JUMP JUMPDEST PUSH2 0x97B DUP3 DUP3 DUP6 PUSH2 0x8BB JUMP JUMPDEST PUSH0 PUSH1 0x20 SWAP1 POP PUSH1 0x1F DUP4 GT PUSH1 0x1 DUP2 EQ PUSH2 0x9AC JUMPI PUSH0 DUP5 ISZERO PUSH2 0x99A JUMPI DUP3 DUP8 ADD MLOAD SWAP1 POP JUMPDEST PUSH2 0x9A4 DUP6 DUP3 PUSH2 0x929 JUMP JUMPDEST DUP7 SSTORE POP PUSH2 0xA0B JUMP JUMPDEST PUSH1 0x1F NOT DUP5 AND PUSH2 0x9BA DUP7 PUSH2 0x7A4 JUMP JUMPDEST PUSH0 JUMPDEST DUP3 DUP2 LT ISZERO PUSH2 0x9E1 JUMPI DUP5 DUP10 ADD MLOAD DUP3 SSTORE PUSH1 0x1 DUP3 ADD SWAP2 POP PUSH1 0x20 DUP6 ADD SWAP5 POP PUSH1 0x20 DUP2 ADD SWAP1 POP PUSH2 0x9BC JUMP JUMPDEST DUP7 DUP4 LT ISZERO PUSH2 0x9FE JUMPI DUP5 DUP10 ADD MLOAD PUSH2 0x9FA PUSH1 0x1F DUP10 AND DUP3 PUSH2 0x90D JUMP JUMPDEST DUP4 SSTORE POP JUMPDEST PUSH1 0x1 PUSH1 0x2 DUP9 MUL ADD DUP9 SSTORE POP POP POP JUMPDEST POP POP POP POP POP POP JUMP JUMPDEST PUSH0 DUP2 SWAP1 POP SWAP3 SWAP2 POP POP JUMP JUMPDEST PUSH0 PUSH2 0xA27 DUP3 PUSH2 0x32A JUMP JUMPDEST PUSH2 0xA31 DUP2 DUP6 PUSH2 0xA13 JUMP JUMPDEST SWAP4 POP PUSH2 0xA41 DUP2 DUP6 PUSH1 0x20 DUP7 ADD PUSH2 0x344 JUMP JUMPDEST DUP1 DUP5 ADD SWAP2 POP POP SWAP3 SWAP2 POP POP JUMP JUMPDEST PUSH0 PUSH2 0xA58 DUP3 DUP5 PUSH2 0xA1D JUMP JUMPDEST SWAP2 POP DUP2 SWAP1 POP SWAP3 SWAP2 POP POP JUMP INVALID LOG2 PUSH5 0x6970667358 0x22 SLT KECCAK256 0xB8 LOG3 EXTCODEHASH 0x2C EXTCODECOPY ADDRESS PUSH32 0xAFF64ECE4C7E0FBCB0F9922718804DD6F319EC585F04E9924864736F6C634300 ADDMOD SHL STOP CALLER "
				},
				"gasEstimates": {
					"creation": {
						"codeDepositCost": "542600",
						"executionCost": "573",
						"totalCost": "543173"
					},
					"external": {
						"addPerson(string,uint256)": "infinite",
						"listOfPeople(uint256)": "infinite",
						"nameToFavoriteNumber(string)": "infinite",
						"retrieve()": "2409",
						"store(uint256)": "infinite"
					}
				},
				"methodIdentifiers": {
					"addPerson(string,uint256)": "6f760f41",
					"listOfPeople(uint256)": "2ebce631",
					"nameToFavoriteNumber(string)": "8bab8dd5",
					"retrieve()": "2e64cec1",
					"store(uint256)": "6057361d"
				}
			},
			"storageLayout": {
				"storage": [
					{
						"astId": 23,
						"contract": "Cyfrin Updraft Challenge/2.07.sol:Squared",
						"label": "myFavoriteNumber",
						"offset": 0,
						"slot": "0",
						"type": "t_uint256"
					},
					{
						"astId": 32,
						"contract": "Cyfrin Updraft Challenge/2.07.sol:Squared",
						"label": "listOfPeople",
						"offset": 0,
						"slot": "1",
						"type": "t_array(t_struct(Person)28_storage)dyn_storage"
					},
					{
						"astId": 36,
						"contract": "Cyfrin Updraft Challenge/2.07.sol:Squared",
						"label": "nameToFavoriteNumber",
						"offset": 0,
						"slot": "2",
						"type": "t_mapping(t_string_memory_ptr,t_uint256)"
					}
				],
				"types": {
					"t_array(t_struct(Person)28_storage)dyn_storage": {
						"base": "t_struct(Person)28_storage",
						"encoding": "dynamic_array",
						"label": "struct SimpleStorage.Person[]",
						"numberOfBytes": "32"
					},
					"t_mapping(t_string_memory_ptr,t_uint256)": {
						"encoding": "mapping",
						"key": "t_string_memory_ptr",
						"label": "mapping(string => uint256)",
						"numberOfBytes": "32",
						"value": "t_uint256"
					},
					"t_string_memory_ptr": {
						"encoding": "bytes",
						"label": "string",
						"numberOfBytes": "32"
					},
					"t_string_storage": {
						"encoding": "bytes",
						"label": "string",
						"numberOfBytes": "32"
					},
					"t_struct(Person)28_storage": {
						"encoding": "inplace",
						"label": "struct SimpleStorage.Person",
						"members": [
							{
								"astId": 25,
								"contract": "Cyfrin Updraft Challenge/2.07.sol:Squared",
								"label": "favoriteNumber",
								"offset": 0,
								"slot": "0",
								"type": "t_uint256"
							},
							{
								"astId": 27,
								"contract": "Cyfrin Updraft Challenge/2.07.sol:Squared",
								"label": "name",
								"offset": 0,
								"slot": "1",
								"type": "t_string_storage"
							}
						],
						"numberOfBytes": "64"
					},
					"t_uint256": {
						"encoding": "inplace",
						"label": "uint256",
						"numberOfBytes": "32"
					}
				}
			},
			"userdoc": {
				"kind": "user",
				"methods": {},
				"version": 1
			}
		}
	}
}